{"abi":[{"type":"constructor","inputs":[{"name":"_ttsToken","type":"address","internalType":"address"},{"name":"vrfCoordinator_","type":"address","internalType":"address"},{"name":"_keyHash","type":"bytes32","internalType":"bytes32"},{"name":"_subscriptionId","type":"uint256","internalType":"uint256"},{"name":"_stakingContract","type":"address","internalType":"address"},{"name":"_charityWallet","type":"address","internalType":"address"},{"name":"_houseWallet","type":"address","internalType":"address"}],"stateMutability":"nonpayable"},{"type":"function","name":"CALLBACK_GAS_LIMIT","inputs":[],"outputs":[{"name":"","type":"uint32","internalType":"uint32"}],"stateMutability":"view"},{"type":"function","name":"MAX_VOTE_CAP_BPS","inputs":[],"outputs":[{"name":"","type":"uint256","internalType":"uint256"}],"stateMutability":"view"},{"type":"function","name":"MIN_VOTE","inputs":[],"outputs":[{"name":"","type":"uint256","internalType":"uint256"}],"stateMutability":"view"},{"type":"function","name":"NUM_WORDS","inputs":[],"outputs":[{"name":"","type":"uint32","internalType":"uint32"}],"stateMutability":"view"},{"type":"function","name":"REQUEST_CONFIRMATIONS","inputs":[],"outputs":[{"name":"","type":"uint16","internalType":"uint16"}],"stateMutability":"view"},{"type":"function","name":"admin","inputs":[],"outputs":[{"name":"","type":"address","internalType":"address"}],"stateMutability":"view"},{"type":"function","name":"approveProfile","inputs":[{"name":"profileId","type":"string","internalType":"string"},{"name":"wallet","type":"address","internalType":"address"}],"outputs":[],"stateMutability":"nonpayable"},{"type":"function","name":"batchApproveProfiles","inputs":[{"name":"profileIds","type":"string[]","internalType":"string[]"},{"name":"wallets","type":"address[]","internalType":"address[]"}],"outputs":[],"stateMutability":"nonpayable"},{"type":"function","name":"charityWallet","inputs":[],"outputs":[{"name":"","type":"address","internalType":"address"}],"stateMutability":"view"},{"type":"function","name":"clubWallets","inputs":[{"name":"","type":"string","internalType":"string"}],"outputs":[{"name":"","type":"address","internalType":"address"}],"stateMutability":"view"},{"type":"function","name":"currentRoundId","inputs":[],"outputs":[{"name":"","type":"uint256","internalType":"uint256"}],"stateMutability":"view"},{"type":"function","name":"getProfile","inputs":[{"name":"roundId","type":"uint256","internalType":"uint256"},{"name":"profileId","type":"string","internalType":"string"}],"outputs":[{"name":"wallet","type":"address","internalType":"address"},{"name":"totalTickets","type":"uint256","internalType":"uint256"},{"name":"rawVotes","type":"uint256","internalType":"uint256"},{"name":"topVoter","type":"address","internalType":"address"},{"name":"approved","type":"bool","internalType":"bool"}],"stateMutability":"view"},{"type":"function","name":"getProfiles","inputs":[{"name":"roundId","type":"uint256","internalType":"uint256"}],"outputs":[{"name":"","type":"string[]","internalType":"string[]"}],"stateMutability":"view"},{"type":"function","name":"getRound","inputs":[{"name":"roundId","type":"uint256","internalType":"uint256"}],"outputs":[{"name":"startTime","type":"uint256","internalType":"uint256"},{"name":"endTime","type":"uint256","internalType":"uint256"},{"name":"totalTickets","type":"uint256","internalType":"uint256"},{"name":"totalRawVotes","type":"uint256","internalType":"uint256"},{"name":"settled","type":"bool","internalType":"bool"},{"name":"vrfPending","type":"bool","internalType":"bool"},{"name":"profileCount","type":"uint256","internalType":"uint256"}],"stateMutability":"view"},{"type":"function","name":"getVoterAmount","inputs":[{"name":"roundId","type":"uint256","internalType":"uint256"},{"name":"profileId","type":"string","internalType":"string"},{"name":"voter","type":"address","internalType":"address"}],"outputs":[{"name":"","type":"uint256","internalType":"uint256"}],"stateMutability":"view"},{"type":"function","name":"houseWallet","inputs":[],"outputs":[{"name":"","type":"address","internalType":"address"}],"stateMutability":"view"},{"type":"function","name":"keyHash","inputs":[],"outputs":[{"name":"","type":"bytes32","internalType":"bytes32"}],"stateMutability":"view"},{"type":"function","name":"midpointSnapshot","inputs":[],"outputs":[],"stateMutability":"nonpayable"},{"type":"function","name":"minProfilesPerRound","inputs":[],"outputs":[{"name":"","type":"uint256","internalType":"uint256"}],"stateMutability":"pure"},{"type":"function","name":"nftContract","inputs":[],"outputs":[{"name":"","type":"address","internalType":"address"}],"stateMutability":"view"},{"type":"function","name":"owner","inputs":[],"outputs":[{"name":"","type":"address","internalType":"address"}],"stateMutability":"view"},{"type":"function","name":"profileClub","inputs":[{"name":"","type":"string","internalType":"string"}],"outputs":[{"name":"","type":"string","internalType":"string"}],"stateMutability":"view"},{"type":"function","name":"rawFulfillRandomWords","inputs":[{"name":"requestId","type":"uint256","internalType":"uint256"},{"name":"randomWords","type":"uint256[]","internalType":"uint256[]"}],"outputs":[],"stateMutability":"nonpayable"},{"type":"function","name":"renounceOwnership","inputs":[],"outputs":[],"stateMutability":"nonpayable"},{"type":"function","name":"requestSettlement","inputs":[],"outputs":[],"stateMutability":"nonpayable"},{"type":"function","name":"rolloverRound","inputs":[],"outputs":[],"stateMutability":"nonpayable"},{"type":"function","name":"setCharityWallet","inputs":[{"name":"_charity","type":"address","internalType":"address"}],"outputs":[],"stateMutability":"nonpayable"},{"type":"function","name":"setClubWallet","inputs":[{"name":"code","type":"string","internalType":"string"},{"name":"wallet","type":"address","internalType":"address"}],"outputs":[],"stateMutability":"nonpayable"},{"type":"function","name":"setHouseWallet","inputs":[{"name":"_house","type":"address","internalType":"address"}],"outputs":[],"stateMutability":"nonpayable"},{"type":"function","name":"setNFTContract","inputs":[{"name":"_nft","type":"address","internalType":"address"}],"outputs":[],"stateMutability":"nonpayable"},{"type":"function","name":"setProfileClub","inputs":[{"name":"profileId","type":"string","internalType":"string"},{"name":"clubCode","type":"string","internalType":"string"}],"outputs":[],"stateMutability":"nonpayable"},{"type":"function","name":"setStakingContract","inputs":[{"name":"_staking","type":"address","internalType":"address"}],"outputs":[],"stateMutability":"nonpayable"},{"type":"function","name":"settleRound","inputs":[],"outputs":[],"stateMutability":"nonpayable"},{"type":"function","name":"stakingContract","inputs":[],"outputs":[{"name":"","type":"address","internalType":"contract IStaking"}],"stateMutability":"view"},{"type":"function","name":"startRound","inputs":[],"outputs":[],"stateMutability":"nonpayable"},{"type":"function","name":"startRound","inputs":[{"name":"duration","type":"uint256","internalType":"uint256"}],"outputs":[],"stateMutability":"nonpayable"},{"type":"function","name":"subscriptionId","inputs":[],"outputs":[{"name":"","type":"uint256","internalType":"uint256"}],"stateMutability":"view"},{"type":"function","name":"takeMidpointSnapshot","inputs":[],"outputs":[],"stateMutability":"nonpayable"},{"type":"function","name":"transferAdmin","inputs":[{"name":"newAdmin","type":"address","internalType":"address"}],"outputs":[],"stateMutability":"nonpayable"},{"type":"function","name":"transferOwnership","inputs":[{"name":"newOwner","type":"address","internalType":"address"}],"outputs":[],"stateMutability":"nonpayable"},{"type":"function","name":"ttsToken","inputs":[],"outputs":[{"name":"","type":"address","internalType":"contract IERC20"}],"stateMutability":"view"},{"type":"function","name":"vote","inputs":[{"name":"profileId","type":"string","internalType":"string"},{"name":"amount","type":"uint256","internalType":"uint256"}],"outputs":[],"stateMutability":"nonpayable"},{"type":"event","name":"AdminTransferred","inputs":[{"name":"previous","type":"address","indexed":true,"internalType":"address"},{"name":"next","type":"address","indexed":true,"internalType":"address"}],"anonymous":false},{"type":"event","name":"ClubPayoutSent","inputs":[{"name":"roundId","type":"uint256","indexed":true,"internalType":"uint256"},{"name":"clubCode","type":"string","indexed":false,"internalType":"string"},{"name":"clubWallet","type":"address","indexed":true,"internalType":"address"},{"name":"amount","type":"uint256","indexed":false,"internalType":"uint256"}],"anonymous":false},{"type":"event","name":"ClubWalletSet","inputs":[{"name":"clubCode","type":"string","indexed":true,"internalType":"string"},{"name":"wallet","type":"address","indexed":true,"internalType":"address"}],"anonymous":false},{"type":"event","name":"OwnershipTransferred","inputs":[{"name":"previousOwner","type":"address","indexed":true,"internalType":"address"},{"name":"newOwner","type":"address","indexed":true,"internalType":"address"}],"anonymous":false},{"type":"event","name":"ProfileApproved","inputs":[{"name":"roundId","type":"uint256","indexed":true,"internalType":"uint256"},{"name":"profileId","type":"string","indexed":false,"internalType":"string"},{"name":"wallet","type":"address","indexed":false,"internalType":"address"}],"anonymous":false},{"type":"event","name":"ProfileClubSet","inputs":[{"name":"profileId","type":"string","indexed":true,"internalType":"string"},{"name":"clubCode","type":"string","indexed":true,"internalType":"string"}],"anonymous":false},{"type":"event","name":"RoundRolledOver","inputs":[{"name":"roundId","type":"uint256","indexed":true,"internalType":"uint256"}],"anonymous":false},{"type":"event","name":"RoundSettled","inputs":[{"name":"roundId","type":"uint256","indexed":true,"internalType":"uint256"},{"name":"winnerProfileId","type":"string","indexed":false,"internalType":"string"},{"name":"winnerWallet","type":"address","indexed":false,"internalType":"address"},{"name":"pool","type":"uint256","indexed":false,"internalType":"uint256"}],"anonymous":false},{"type":"event","name":"RoundStarted","inputs":[{"name":"roundId","type":"uint256","indexed":true,"internalType":"uint256"},{"name":"startTime","type":"uint256","indexed":false,"internalType":"uint256"},{"name":"endTime","type":"uint256","indexed":false,"internalType":"uint256"}],"anonymous":false},{"type":"event","name":"VRFRequested","inputs":[{"name":"roundId","type":"uint256","indexed":true,"internalType":"uint256"},{"name":"requestId","type":"uint256","indexed":false,"internalType":"uint256"}],"anonymous":false},{"type":"event","name":"Voted","inputs":[{"name":"roundId","type":"uint256","indexed":true,"internalType":"uint256"},{"name":"profileId","type":"string","indexed":true,"internalType":"string"},{"name":"voter","type":"address","indexed":false,"internalType":"address"},{"name":"amount","type":"uint256","indexed":false,"internalType":"uint256"},{"name":"tickets","type":"uint256","indexed":false,"internalType":"uint256"}],"anonymous":false},{"type":"error","name":"OnlyCoordinatorCanFulfill","inputs":[{"name":"have","type":"address","internalType":"address"},{"name":"want","type":"address","internalType":"address"}]},{"type":"error","name":"OwnableInvalidOwner","inputs":[{"name":"owner_","type":"address","internalType":"address"}]},{"type":"error","name":"OwnableUnauthorizedAccount","inputs":[{"name":"account","type":"address","internalType":"address"}]}],"bytecode":{"object":"0x61012034620001bb57601f62002b8638819003918201601f19168301916001600160401b03831184841017620001bf5780849260e094604052833981010312620001bb576200004e81620001d3565b6200005c60208301620001d3565b906040830151916060840151936200007760808201620001d3565b926200009460c06200008c60a08501620001d3565b9301620001d3565b913315620001a3575f5460018060a01b03199533878316175f556040519760018060a01b0380978180978196823391167f8be0079c531659141344cd1fd0a4f28419497f9722a3daafe3b4186f6b6457e05f80a382608052338c60015416176001551660a0521660c05260e05261010098895216856002541617600255168360035416176003551690600454161760045561299d9182620001e9833960805182611431015260a05182818161022f015281816105ec015281816120b60152818161213f015281816121ae01528181612228015281816122970152818161235601526124e7015260c05182611b57015260e051828181610bd10152611a7401525181818161155a0152611a970152f35b604051631e4fbdf760e01b81525f6004820152602490fd5b5f80fd5b634e487b7160e01b5f52604160045260245ffd5b51906001600160a01b0382168203620001bb5756fe6080604081815260049182361015610015575f80fd5b5f92833560e01c91826309c1ba2e146115435750816310947a33146114bd5781631770cc8e146114a05781631fe543e3146113bd57816324016aae1461129957816324e2371b146110bb5781632e52ce1614610bf45781632efab6fa1461109857816330563bd71461104257816333d608f11461102457816335d4de5114610fd15781633bf990e514610efd57816342600f9614610e315781634346e4ea14610ddd57816355e3f08614610ceb5781635fc3d52d14610c0d5781635fe00dc714610bf457816361728f3914610bb957816367f082b014610b9d5781636ffbfaa8146109ab578163715018a614610b4357816372cf6e3414610b2757816375829def14610ab057816377818f0214610a885781637b20876914610a5f5781638da5cb5b14610a375781638f1327c0146109c757816393b2a651146109ab578163960ff4191461098f5781639cbe5efd146109705781639dd373b9146109255781639fb6866b1461089c578163a6385803146104d5578163a7ccabdf14610487578163d56d229d1461045e578163d6ca8383146103d1578163e33a89c214610359578163ee99205c14610330578163f2fac627146102e9578163f2fde38b1461025e57508063f75edc8c1461021b5763f851a440146101f0575f80fd5b3461021757816003193601126102175760015490516001600160a01b039091168152602090f35b5080fd5b5034610217578160031936011261021757517f00000000000000000000000000000000000000000000000000000000000000006001600160a01b03168152602090f35b9050346102e55760203660031901126102e5576102796115fa565b90610282611810565b6001600160a01b039182169283156102cf57505082546001600160a01b0319811683178455167f8be0079c531659141344cd1fd0a4f28419497f9722a3daafe3b4186f6b6457e08380a380f35b51631e4fbdf760e01b8152908101849052602490fd5b8280fd5b505034610217576020906102fc366116c8565b8261030f83519283815193849201611682565b6006908201908152819003830190205490516001600160a01b039091168152f35b50503461021757816003193601126102175760025490516001600160a01b039091168152602090f35b9050346102e55760603660031901126102e5576024356001600160401b0381116103cd5761038a90369083016115c9565b6044356001600160a01b03811693908490036103c957602095928594926103bb92358552600b8852858520916118ae565b908252845220549051908152f35b8580fd5b8380fd5b9050346102e557816003193601126102e5576024356001600160401b0381116103cd579060a0938361040961041b94369085016115c9565b929093358152600a60205220916118ae565b90600180841b0391828154169260018201549260ff6005600285015493600386015416940154169381519586526020860152840152606083015215156080820152f35b50503461021757816003193601126102175760055490516001600160a01b039091168152602090f35b83346104d25760203660031901126104d2576104a16115fa565b6001546001600160a01b0391906104bb908316331461183b565b166001600160601b0360a01b600554161760055580f35b80fd5b919050346102e557806003193601126102e55781356001600160401b0381116103cd5761050590369084016115c9565b909160249182359460085493848852602094600986528489209081548015158061088e575b61053390611d6f565b42101580610880575b1561084b57674563918244f400008910610819578952600a8652610563858a2085896118ae565b9160ff600584015416156107e157600283016105808a8254611edd565b9160038401926105918c8554611edd565b90612710908181029181830414901517156107cf57610fa0918281029281840414901517156107cf571161079b578b898c60648b51809481936323b872dd60e01b8352338d8401523088840152604483015260018060a01b037f0000000000000000000000000000000000000000000000000000000000000000165af1908115610791578d91610764575b501561073157509260027fb44b499827de3c0d29f0a7c52813bfb08522a61d971fabccf87ad89bddab0db99896938b96936060999661066661065e8a336127fa565b998254611edd565b905560018401610677898254611edd565b90556106848d8254611edd565b905501610692868254611edd565b90556008548b52600b86526106aa848c20848b6118ae565b338c528652838b206106bd8b8254611edd565b90556008548b52600b86526106d5848c20848b6118ae565b338c528652838b20549181019182548111610713575b50505060085496818351928392833781018a815203902096815193338552840152820152a380f35b90915560030180546001600160a01b031916331790555f80806106eb565b85600f6064928b8b519362461bcd60e51b85528401528201526e151c985b9cd9995c8819985a5b1959608a1b6044820152fd5b61078491508a3d8c1161078a575b61077c818361157d565b810190611ef7565b5f61061c565b503d610772565b89513d8f823e3d90fd5b8560106064928b8b519362461bcd60e51b85528401528201526f04578636565647320766f7465206361760841b6044820152fd5b634e487b7160e01b8e5260118852828efd5b8360146064928989519362461bcd60e51b855284015282015273141c9bd99a5b19481b9bdd08185c1c1c9bdd995960621b6044820152fd5b855162461bcd60e51b8152808501889052600d818501526c42656c6f77206d696e696d756d60981b6044820152606490fd5b855162461bcd60e51b81528085018890526010818501526f526f756e64206e6f742061637469766560801b6044820152606490fd5b50600182015442111561053c565b508285015460ff161561052a565b505034610217576108ac36611610565b929080929160018060a01b036108c78160015416331461183b565b8151838582376020818581016006815203019020951694856001600160601b0360a01b82541617905551928392833781018481520390207feb1a8899125a6bae920bed4b13ea41775f79d071d165819cd2160c951756abb88380a380f35b83346104d25760203660031901126104d25761093f6115fa565b6001546001600160a01b039190610959908316331461183b565b166001600160601b0360a01b600254161760025580f35b5050346102175781600319360112610217576020906008549051908152f35b5050346102175781600319360112610217576020905160018152f35b83346104d257806003193601126104d2576109c46119cd565b80f35b919050346102e55760203660031901126102e55760ff8160e094843581526009602052208054936001820154936002830154906005600385015493850154940154958151978852602088015286015260608501528181161515608085015260081c16151560a083015260c0820152f35b505034610217578160031936011261021757905490516001600160a01b039091168152602090f35b50503461021757816003193601126102175760035490516001600160a01b039091168152602090f35b9050346102e557826003193601126102e5575490516001600160a01b03909116815260209150f35b83346104d25760203660031901126104d257610aca6115fa565b6001546001600160a01b0380821692610ae433851461183b565b168092610af2821515611873565b7ff8ccb027dfcd135e000e9d45e6cc2d662578a8825d4c45b5e32e0adf67e79ec68580a36001600160a01b0319161760015580f35b5050346102175781600319360112610217576020905160028152f35b83346104d257806003193601126104d257610b5c611810565b80546001600160a01b03198116825581906001600160a01b03167f8be0079c531659141344cd1fd0a4f28419497f9722a3daafe3b4186f6b6457e08280a380f35b5050346102175781600319360112610217576020905160038152f35b505034610217578160031936011261021757602090517f00000000000000000000000000000000000000000000000000000000000000008152f35b83346104d257806003193601126104d2576109c4611810565b9050346102e55760203660031901126102e557610c28611810565b60085480610c93575b917fa359b664a68acd8839e42112eb50eff3408165e15074fde89ddb58a0db2e691d91610c5f600194611e56565b8060085585526009602052610c7b828620914283553542611edd565b9384910155600854928151904282526020820152a280f35b808452600960205260ff82848620015416610c3157506020606492519162461bcd60e51b8352820152601a60248201527f50726576696f757320726f756e64206e6f7420736574746c65640000000000006044820152fd5b838334610217578160031936011261021757610d05611810565b60085480610d85575b610d1790611e56565b80600855825260096020528082209042825562093a80420191824211610d7257908260017fa359b664a68acd8839e42112eb50eff3408165e15074fde89ddb58a0db2e691d930155600854928151904282526020820152a280f35b634e487b7160e01b845260118552602484fd5b808352600960205260ff84838520015416610d0e57815162461bcd60e51b8152602081860152601a60248201527f50726576696f757320726f756e64206e6f7420736574746c65640000000000006044820152606490fd5b50503461021757610e2d90610e1a610e0b6020610df9366116c8565b81855193828580945193849201611682565b8101600781520301902061176f565b90519182916020835260208301906116a3565b0390f35b9050346102e557816003193601126102e5576001600160401b03908035828111610ef957610e6290369083016115c9565b9290916024359182116103c957610e7b913691016115c9565b92839192610e9460018060a01b0360015416331461183b565b610eb2838588518585823760208187810160078152030190206118c7565b81865192839283378101878152039020935192839283378101848152039020907fe3317bd8cb72b6bcda2048acbf25b3e72f5153a3cf13f751a78bfa96ecec98928380a380f35b8480fd5b8391503461021757602090816003193601126102e55791909135815260098252600583822001908154610f2f816115b2565b90610f3c8651928361157d565b8082528482018094845285842084915b838310610fad57505050508451938085019181865251809252858501958260051b8601019392955b828710610f815785850386f35b909192938280610f9d600193603f198a820301865288516116a3565b9601920196019592919092610f74565b6001888192610fbf859b98999b61176f565b81520192019201919096949396610f4c565b83903461021757602036600319011261021757610fec6115fa565b6001546001600160a01b039190611006908316331461183b565b16611012811515611873565b81546001600160a01b03191617905580f35b505034610217578160031936011261021757602090516207a1208152f35b83346104d25760203660031901126104d25761105c6115fa565b6001546001600160a01b039190611076908316331461183b565b16611082811515611873565b6001600160601b0360a01b600354161760035580f35b50503461021757816003193601126102175760209051674563918244f400008152f35b9050346102e557816003193601126102e5576001600160401b03908035828111610ef9576110ec9036908301611652565b9390926024359081116103c9576111069036908401611652565b9160018060a01b039060019461112083875416331461183b565b8488036112655760089081548a5260209360098552611150848c2092835415159081611256575b509a959a611d6f565b6005918201948b805b828110611164575080f35b8b8b8b8f8b8a898f936111928f61118c8b8e9261123e9e600a83978a5483525220928c611e78565b906118ae565b8d8101908c82549560ff87166112455761121c61123698611216878f7f8d061afbca52698fe41de9d62735bed36e9df7431e20b1c6a1477aa1551cc6b89f908f988f9c61120061122b9f6111fb9f879d6112239f9189928f996111fb9560ff1916179055611eb9565b611ec9565b82546001600160a01b0319169116179055611e78565b91611dd6565b549a611e78565b969095611eb9565b8c5193849384611e1e565b0390a2611e56565b8c90611159565b505050505050505050505050611e56565b60ff915084015416155f611147565b6020606492519162461bcd60e51b8352820152600f60248201526e098cadccee8d040dad2e6dac2e8c6d608b1b6044820152fd5b838334610217576112a936611610565b60015490959192916001600160a01b03916112c7908316331461183b565b6008549182875260096020528587209283541515806113af575b6112ea90611d6f565b8752600a6020526112fe86882086866118ae565b91600583019081549060ff8216611379575060ff1916600117905581546001600160a01b031916908816179055939492937f8d061afbca52698fe41de9d62735bed36e9df7431e20b1c6a1477aa1551cc6b893611373916113659085908590600501611dd6565b600854955193849384611e1e565b0390a280f35b60649060208a519162461bcd60e51b8352820152601060248201526f105b1c9958591e48185c1c1c9bdd995960821b6044820152fd5b508383015460ff16156112e1565b83915034610217578260031936011261021757602435906001600160401b0382116102e557366023830112156102e557818101356113fa816115b2565b926114078651948561157d565b81845260209160248386019160051b8301019136831161149c57602401905b82821061148d5750507f00000000000000000000000000000000000000000000000000000000000000006001600160a01b0316915050338190036114705750906109c49135611f0f565b6044925084519163073e64fd60e21b835233908301526024820152fd5b81358152908301908301611426565b8680fd5b50503461021757816003193601126102175760209051610fa08152f35b919050346102e557826003193601126102e5576114d8611810565b6008548352600960205282206114f081541515611cb7565b016001815461150260ff821615611cf7565b61151260ff8260081c1615611d35565b60ff19161790556008547fa664225dd6089d2e7eb155ed5dda4a608160b0dc0f6eb58d948171bc5bc813f58280a280f35b8490346102175781600319360112610217576020907f00000000000000000000000000000000000000000000000000000000000000008152f35b90601f801991011681019081106001600160401b0382111761159e57604052565b634e487b7160e01b5f52604160045260245ffd5b6001600160401b03811161159e5760051b60200190565b9181601f840112156115f6578235916001600160401b0383116115f657602083818601950101116115f657565b5f80fd5b600435906001600160a01b03821682036115f657565b60406003198201126115f657600435906001600160401b0382116115f65761163a916004016115c9565b90916024356001600160a01b03811681036115f65790565b9181601f840112156115f6578235916001600160401b0383116115f6576020808501948460051b0101116115f657565b5f5b8381106116935750505f910152565b8181015183820152602001611684565b906020916116bc81518092818552858086019101611682565b601f01601f1916010190565b60206003198201126115f6576001600160401b036004358181116115f657826023820112156115f657806004013591821161159e5760405192611715601f8401601f19166020018561157d565b828452602483830101116115f657815f92602460209301838601378301015290565b90600182811c92168015611765575b602083101461175157565b634e487b7160e01b5f52602260045260245ffd5b91607f1691611746565b9060405191825f82549261178284611737565b9081845260019485811690815f146117ed57506001146117ad575b50506117ab9250038361157d565b565b909391505f52602090815f20935f915b8183106117d55750506117ab93508201015f8061179d565b855488840185015294850194879450918301916117bd565b9150506117ab94506020925060ff191682840152151560051b8201015f8061179d565b5f546001600160a01b0316330361182357565b60405163118cdaa760e01b8152336004820152602490fd5b1561184257565b60405162461bcd60e51b81526020600482015260096024820152682737ba1030b236b4b760b91b6044820152606490fd5b1561187a57565b60405162461bcd60e51b815260206004820152600c60248201526b5a65726f206164647265737360a01b6044820152606490fd5b6020919283604051948593843782019081520301902090565b9092916001600160401b03811161159e576118e28254611737565b601f8111611986575b505f601f821160011461192357819293945f92611918575b50508160011b915f199060031b1c1916179055565b013590505f80611903565b601f198216948382526020918281209281905b88821061196e57505083600195969710611955575b505050811b019055565b01355f19600384901b60f8161c191690555f808061194b565b80600184968294958701358155019501920190611936565b5f83815260208120601f840160051c810192602085106119c3575b601f0160051c01915b8281106119b85750506118eb565b8181556001016119aa565b90925082906119a1565b6119d5611810565b6008545f90815260209060098252604091828220916119f683541515611cb7565b60049283810190815490611a0d60ff831615611cf7565b611a1d60ff8360081c1615611d35565b60018101544210611c82576005015415611c505761ff0019166101001790558351926001600160401b0360c0850181811186821017611c3d578652838501868601906060870191608088019160a0890194606086527f00000000000000000000000000000000000000000000000000000000000000008a527f00000000000000000000000000000000000000000000000000000000000000008252600383526207a1208552600284528a5190606082019082821090821117611c2a578b528a815263125fa26760e31b818a01528a810188905285528951634d8e1c2f60e11b81529586018890529751602486015296516044850152955161ffff1660648401525163ffffffff9081166084840152945190941660a4820152925160c060c4850152829084908190611b529060e48301906116a3565b0381847f00000000000000000000000000000000000000000000000000000000000000006001600160a01b03165af1908115611c1f5780859192611bca575b7fc6f253de430148d7581a940518a73a6d98efc85ea9162887a3918443ba67c2129450600854958184889352600c8652205551908152a2565b9293809250848092503d8311611c18575b611be5818361157d565b8101031261021757517fc6f253de430148d7581a940518a73a6d98efc85ea9162887a3918443ba67c21292918490611b91565b503d611bdb565b8451903d90823e3d90fd5b634e487b7160e01b895260418852602489fd5b634e487b7160e01b845260418352602484fd5b5050925162461bcd60e51b815291820152600b60248201526a4e6f2070726f66696c657360a81b604482015260649150fd5b865162461bcd60e51b8152808701869052600f60248201526e149bdd5b99081b9bdd08195b991959608a1b6044820152606490fd5b15611cbe57565b60405162461bcd60e51b8152602060048201526011602482015270149bdd5b99081b9bdd081cdd185c9d1959607a1b6044820152606490fd5b15611cfe57565b60405162461bcd60e51b815260206004820152600f60248201526e105b1c9958591e481cd95d1d1b1959608a1b6044820152606490fd5b15611d3c57565b60405162461bcd60e51b815260206004820152600b60248201526a5652462070656e64696e6760a81b6044820152606490fd5b15611d7657565b60405162461bcd60e51b815260206004820152600f60248201526e139bc81858dd1a5d99481c9bdd5b99608a1b6044820152606490fd5b8054821015611dc2575f5260205f2001905f90565b634e487b7160e01b5f52603260045260245ffd5b91909180546801000000000000000081101561159e57611dfb91600182018155611dad565b929092611e0b576117ab926118c7565b634e487b7160e01b5f525f60045260245ffd5b918060609160209396959660408652816040870152838601375f828286010152601f80199101168301019360018060a01b0316910152565b5f198114611e645760010190565b634e487b7160e01b5f52601160045260245ffd5b9190811015611dc25760051b81013590601e19813603018212156115f65701908135916001600160401b0383116115f65760200182360381136115f6579190565b9190811015611dc25760051b0190565b356001600160a01b03811681036115f65790565b91908201809211611e6457565b91908203918211611e6457565b908160209103126115f6575180151581036115f65790565b905f918252600c60205260408220549182815260096020526040812091600483019283549360ff8560081c16156127c3576001809561ffff19161790556005810190815492831580156127b7575b612692578051156127a3576020600291015191015490811561278f57068360609585915b8583106126ad575b505050505050828152600a602052604081209060405160208185519482870195611fb4818489611682565b8201908152030190209060028201549283159081801561269b575b61269257602385029185830460231481171561267e5785600a810204600a14171561266a57610e0b602061200e92604051809381928b51928391611682565b805180156126635760405190612028818360208601611682565b60069082019081528190036020019020546001600160a01b03165b836001600160a01b0382161561264057506064600a8702049261207b84612076816120768b612076606488048092611eea565b611eea565b905b865460405163a9059cbb60e01b81526001600160a01b03909116600482015260649091046024820181905290602081806044810103818a7f00000000000000000000000000000000000000000000000000000000000000006001600160a01b03165af18015612635579160209161213a93612618575b5060038901546001600160a01b03168015612607575b60405163a9059cbb60e01b81526001600160a01b039091166004820152602481019190915291829081906044820190565b0381897f00000000000000000000000000000000000000000000000000000000000000006001600160a01b03165af180156125dd576125e8575b5060035460405163a9059cbb60e01b81526001600160a01b0390911660048201526064600a890204602482015260208180604481010381897f00000000000000000000000000000000000000000000000000000000000000006001600160a01b03165af180156125dd5791602091612223936125c0575b506004805460405163a9059cbb60e01b81526001600160a01b0390911691810191909152602481019190915291829081906044820190565b0381887f00000000000000000000000000000000000000000000000000000000000000006001600160a01b03165af18015612596576125a1575b50826124b7575b50506005546001600160a01b031690508061242d575b506040516370a0823160e01b8152306004820152906020826024817f00000000000000000000000000000000000000000000000000000000000000006001600160a01b03165afa9182156124205781926123ec575b5081612330575b50505460405160608082527fabf0728119ba3c53309b0f987eda834ecf31e54dfaeec92465c1512c5eb9c2b994919384936001600160a01b031692909161232091908501906116a3565b91602084015260408301520390a2565b60405163a9059cbb60e01b815261dead60048201526024810192909252602082604481847f00000000000000000000000000000000000000000000000000000000000000006001600160a01b03165af19081156123e057509161232093917fabf0728119ba3c53309b0f987eda834ecf31e54dfaeec92465c1512c5eb9c2b995936123c1575b5091938193506122d6565b6123d99060203d60201161078a5761077c818361157d565b505f6123b6565b604051903d90823e3d90fd5b9091506020813d602011612418575b816124086020938361157d565b810103126115f65751905f6122cf565b3d91506123fb565b50604051903d90823e3d90fd5b82546001600160a01b0316813b156102e55782906040519283916304546bd560e11b8352600483015288602483015260806044830152818381612473608482018c6116a3565b670de0b6b3a76400008b04606483015203925af11561227a576001600160401b0381116124a3576040525f61227a565b634e487b7160e01b82526041600452602482fd5b60405163a9059cbb60e01b81526001600160a01b03821660048201526024810184905260208180604481010381887f00000000000000000000000000000000000000000000000000000000000000006001600160a01b03165af1801561259657927f1fdaf9e270dd288f02596ed65fa57029f29b68ec99c2e5790a4b0a2900447f789261255a928b95612577575b506040519283926040845260408401906116a3565b60208301969096526001600160a01b0316940390a35f8080612264565b61258f9060203d60201161078a5761077c818361157d565b505f612545565b6040513d87823e3d90fd5b6125b99060203d60201161078a5761077c818361157d565b505f61225d565b6125d690833d851161078a5761077c818361157d565b505f6121eb565b6040513d88823e3d90fd5b6126009060203d60201161078a5761077c818361157d565b505f612174565b5088546001600160a01b0316612109565b61262e90833d851161078a5761077c818361157d565b505f6120f3565b6040513d89823e3d90fd5b9261265d606482046120766064600a8b020491612076818c611eea565b9061207d565b5082612043565b634e487b7160e01b83526011600452602483fd5b634e487b7160e01b84526011600452602484fd5b50505050505050565b5083546001600160a01b031615611fcf565b888752600a6020526040872090826126c58588611dad565b5060405181548b9591926126d882611737565b918581169081156127775750600114612742575b50508185602092612704975203019020015490611edd565b9182841061271b5761271590611e56565b91611f81565b93925050506127369394506127309250611dad565b5061176f565b905f8080808080611f89565b909195508b5260208b208b905b8282106127635750508101938160206126ec565b80548285015287946020909201910161274f565b60ff19168552505080151502820194508160206126ec565b634e487b7160e01b85526012600452602485fd5b634e487b7160e01b85526032600452602485fd5b50600282015415611f5d565b60405162461bcd60e51b815260206004820152600f60248201526e4e6f74205652462070656e64696e6760881b6044820152606490fd5b60025460405163a8a82fd760e01b81526001600160a01b039283166004808301919091526024939092602091839186918391165afa5f9181612934575b50612843575b50505090565b60058114612916578181146128f957600381146128dc57600281146128bf57600181146128a25715612875578061283d565b606e830292808404606e14901517156128915750506064900490565b601190634e487b7160e01b5f52525ffd5b50607d830292808404607d14901517156128915750506064900490565b506096830292808404609614901517156128915750506064900490565b5060af83029280840460af14901517156128915750506064900490565b5060c883029280840460c814901517156128915750506064900490565b5061012c928381029381850414901517156128915750506064900490565b90916020823d821161295f575b8161294e6020938361157d565b810103126104d2575051905f612837565b3d915061294156fea26469706673582212202e874e05d2b8b46cb3fdecd495326ff1bc63875fb8cbbf95d28bacbd10367cb864736f6c63430008140033","linkReferences":{}},"methodIdentifiers":{"CALLBACK_GAS_LIMIT()":"33d608f1","MAX_VOTE_CAP_BPS()":"1770cc8e","MIN_VOTE()":"2efab6fa","NUM_WORDS()":"72cf6e34","REQUEST_CONFIRMATIONS()":"67f082b0","admin()":"f851a440","approveProfile(string,address)":"24016aae","batchApproveProfiles(string[],address[])":"24e2371b","charityWallet()":"7b208769","clubWallets(string)":"f2fac627","currentRoundId()":"9cbe5efd","getProfile(uint256,string)":"d6ca8383","getProfiles(uint256)":"3bf990e5","getRound(uint256)":"8f1327c0","getVoterAmount(uint256,string,address)":"e33a89c2","houseWallet()":"77818f02","keyHash()":"61728f39","midpointSnapshot()":"5fe00dc7","minProfilesPerRound()":"960ff419","nftContract()":"d56d229d","owner()":"8da5cb5b","profileClub(string)":"4346e4ea","rawFulfillRandomWords(uint256,uint256[])":"1fe543e3","renounceOwnership()":"715018a6","requestSettlement()":"93b2a651","rolloverRound()":"10947a33","setCharityWallet(address)":"30563bd7","setClubWallet(string,address)":"9fb6866b","setHouseWallet(address)":"35d4de51","setNFTContract(address)":"a7ccabdf","setProfileClub(string,string)":"42600f96","setStakingContract(address)":"9dd373b9","settleRound()":"6ffbfaa8","stakingContract()":"ee99205c","startRound()":"55e3f086","startRound(uint256)":"5fc3d52d","subscriptionId()":"09c1ba2e","takeMidpointSnapshot()":"2e52ce16","transferAdmin(address)":"75829def","transferOwnership(address)":"f2fde38b","ttsToken()":"f75edc8c","vote(string,uint256)":"a6385803"},"id":0}