{"abi":[{"type":"constructor","inputs":[{"name":"_ttsToken","type":"address","internalType":"address"},{"name":"vrfCoordinator_","type":"address","internalType":"address"},{"name":"_keyHash","type":"bytes32","internalType":"bytes32"},{"name":"_subscriptionId","type":"uint256","internalType":"uint256"},{"name":"_stakingContract","type":"address","internalType":"address"},{"name":"_charityWallet","type":"address","internalType":"address"},{"name":"_houseWallet","type":"address","internalType":"address"}],"stateMutability":"nonpayable"},{"type":"function","name":"CALLBACK_GAS_LIMIT","inputs":[],"outputs":[{"name":"","type":"uint32","internalType":"uint32"}],"stateMutability":"view"},{"type":"function","name":"MAX_VOTE_CAP_BPS","inputs":[],"outputs":[{"name":"","type":"uint256","internalType":"uint256"}],"stateMutability":"view"},{"type":"function","name":"MIN_VOTE","inputs":[],"outputs":[{"name":"","type":"uint256","internalType":"uint256"}],"stateMutability":"view"},{"type":"function","name":"NUM_WORDS","inputs":[],"outputs":[{"name":"","type":"uint32","internalType":"uint32"}],"stateMutability":"view"},{"type":"function","name":"REQUEST_CONFIRMATIONS","inputs":[],"outputs":[{"name":"","type":"uint16","internalType":"uint16"}],"stateMutability":"view"},{"type":"function","name":"admin","inputs":[],"outputs":[{"name":"","type":"address","internalType":"address"}],"stateMutability":"view"},{"type":"function","name":"approveProfile","inputs":[{"name":"profileId","type":"string","internalType":"string"},{"name":"wallet","type":"address","internalType":"address"}],"outputs":[],"stateMutability":"nonpayable"},{"type":"function","name":"batchApproveProfiles","inputs":[{"name":"profileIds","type":"string[]","internalType":"string[]"},{"name":"wallets","type":"address[]","internalType":"address[]"}],"outputs":[],"stateMutability":"nonpayable"},{"type":"function","name":"charityWallet","inputs":[],"outputs":[{"name":"","type":"address","internalType":"address"}],"stateMutability":"view"},{"type":"function","name":"currentRoundId","inputs":[],"outputs":[{"name":"","type":"uint256","internalType":"uint256"}],"stateMutability":"view"},{"type":"function","name":"getProfile","inputs":[{"name":"roundId","type":"uint256","internalType":"uint256"},{"name":"profileId","type":"string","internalType":"string"}],"outputs":[{"name":"wallet","type":"address","internalType":"address"},{"name":"totalTickets","type":"uint256","internalType":"uint256"},{"name":"rawVotes","type":"uint256","internalType":"uint256"},{"name":"topVoter","type":"address","internalType":"address"},{"name":"approved","type":"bool","internalType":"bool"}],"stateMutability":"view"},{"type":"function","name":"getProfiles","inputs":[{"name":"roundId","type":"uint256","internalType":"uint256"}],"outputs":[{"name":"","type":"string[]","internalType":"string[]"}],"stateMutability":"view"},{"type":"function","name":"getRound","inputs":[{"name":"roundId","type":"uint256","internalType":"uint256"}],"outputs":[{"name":"startTime","type":"uint256","internalType":"uint256"},{"name":"endTime","type":"uint256","internalType":"uint256"},{"name":"totalTickets","type":"uint256","internalType":"uint256"},{"name":"totalRawVotes","type":"uint256","internalType":"uint256"},{"name":"settled","type":"bool","internalType":"bool"},{"name":"vrfPending","type":"bool","internalType":"bool"},{"name":"profileCount","type":"uint256","internalType":"uint256"}],"stateMutability":"view"},{"type":"function","name":"getVoterAmount","inputs":[{"name":"roundId","type":"uint256","internalType":"uint256"},{"name":"profileId","type":"string","internalType":"string"},{"name":"voter","type":"address","internalType":"address"}],"outputs":[{"name":"","type":"uint256","internalType":"uint256"}],"stateMutability":"view"},{"type":"function","name":"houseWallet","inputs":[],"outputs":[{"name":"","type":"address","internalType":"address"}],"stateMutability":"view"},{"type":"function","name":"keyHash","inputs":[],"outputs":[{"name":"","type":"bytes32","internalType":"bytes32"}],"stateMutability":"view"},{"type":"function","name":"midpointSnapshot","inputs":[],"outputs":[],"stateMutability":"nonpayable"},{"type":"function","name":"minProfilesPerRound","inputs":[],"outputs":[{"name":"","type":"uint256","internalType":"uint256"}],"stateMutability":"pure"},{"type":"function","name":"nftContract","inputs":[],"outputs":[{"name":"","type":"address","internalType":"address"}],"stateMutability":"view"},{"type":"function","name":"owner","inputs":[],"outputs":[{"name":"","type":"address","internalType":"address"}],"stateMutability":"view"},{"type":"function","name":"rawFulfillRandomWords","inputs":[{"name":"requestId","type":"uint256","internalType":"uint256"},{"name":"randomWords","type":"uint256[]","internalType":"uint256[]"}],"outputs":[],"stateMutability":"nonpayable"},{"type":"function","name":"renounceOwnership","inputs":[],"outputs":[],"stateMutability":"nonpayable"},{"type":"function","name":"requestSettlement","inputs":[],"outputs":[],"stateMutability":"nonpayable"},{"type":"function","name":"rolloverRound","inputs":[],"outputs":[],"stateMutability":"nonpayable"},{"type":"function","name":"setCharityWallet","inputs":[{"name":"_charity","type":"address","internalType":"address"}],"outputs":[],"stateMutability":"nonpayable"},{"type":"function","name":"setHouseWallet","inputs":[{"name":"_house","type":"address","internalType":"address"}],"outputs":[],"stateMutability":"nonpayable"},{"type":"function","name":"setNFTContract","inputs":[{"name":"_nft","type":"address","internalType":"address"}],"outputs":[],"stateMutability":"nonpayable"},{"type":"function","name":"setStakingContract","inputs":[{"name":"_staking","type":"address","internalType":"address"}],"outputs":[],"stateMutability":"nonpayable"},{"type":"function","name":"settleRound","inputs":[],"outputs":[],"stateMutability":"nonpayable"},{"type":"function","name":"stakingContract","inputs":[],"outputs":[{"name":"","type":"address","internalType":"contract IStaking"}],"stateMutability":"view"},{"type":"function","name":"startRound","inputs":[],"outputs":[],"stateMutability":"nonpayable"},{"type":"function","name":"startRound","inputs":[{"name":"duration","type":"uint256","internalType":"uint256"}],"outputs":[],"stateMutability":"nonpayable"},{"type":"function","name":"subscriptionId","inputs":[],"outputs":[{"name":"","type":"uint256","internalType":"uint256"}],"stateMutability":"view"},{"type":"function","name":"takeMidpointSnapshot","inputs":[],"outputs":[],"stateMutability":"nonpayable"},{"type":"function","name":"transferAdmin","inputs":[{"name":"newAdmin","type":"address","internalType":"address"}],"outputs":[],"stateMutability":"nonpayable"},{"type":"function","name":"transferOwnership","inputs":[{"name":"newOwner","type":"address","internalType":"address"}],"outputs":[],"stateMutability":"nonpayable"},{"type":"function","name":"ttsToken","inputs":[],"outputs":[{"name":"","type":"address","internalType":"contract IERC20"}],"stateMutability":"view"},{"type":"function","name":"vote","inputs":[{"name":"profileId","type":"string","internalType":"string"},{"name":"amount","type":"uint256","internalType":"uint256"}],"outputs":[],"stateMutability":"nonpayable"},{"type":"event","name":"AdminTransferred","inputs":[{"name":"previous","type":"address","indexed":true,"internalType":"address"},{"name":"next","type":"address","indexed":true,"internalType":"address"}],"anonymous":false},{"type":"event","name":"OwnershipTransferred","inputs":[{"name":"previousOwner","type":"address","indexed":true,"internalType":"address"},{"name":"newOwner","type":"address","indexed":true,"internalType":"address"}],"anonymous":false},{"type":"event","name":"ProfileApproved","inputs":[{"name":"roundId","type":"uint256","indexed":true,"internalType":"uint256"},{"name":"profileId","type":"string","indexed":false,"internalType":"string"},{"name":"wallet","type":"address","indexed":false,"internalType":"address"}],"anonymous":false},{"type":"event","name":"RoundRolledOver","inputs":[{"name":"roundId","type":"uint256","indexed":true,"internalType":"uint256"}],"anonymous":false},{"type":"event","name":"RoundSettled","inputs":[{"name":"roundId","type":"uint256","indexed":true,"internalType":"uint256"},{"name":"winnerProfileId","type":"string","indexed":false,"internalType":"string"},{"name":"winnerWallet","type":"address","indexed":false,"internalType":"address"},{"name":"pool","type":"uint256","indexed":false,"internalType":"uint256"}],"anonymous":false},{"type":"event","name":"RoundStarted","inputs":[{"name":"roundId","type":"uint256","indexed":true,"internalType":"uint256"},{"name":"startTime","type":"uint256","indexed":false,"internalType":"uint256"},{"name":"endTime","type":"uint256","indexed":false,"internalType":"uint256"}],"anonymous":false},{"type":"event","name":"VRFRequested","inputs":[{"name":"roundId","type":"uint256","indexed":true,"internalType":"uint256"},{"name":"requestId","type":"uint256","indexed":false,"internalType":"uint256"}],"anonymous":false},{"type":"event","name":"Voted","inputs":[{"name":"roundId","type":"uint256","indexed":true,"internalType":"uint256"},{"name":"profileId","type":"string","indexed":true,"internalType":"string"},{"name":"voter","type":"address","indexed":false,"internalType":"address"},{"name":"amount","type":"uint256","indexed":false,"internalType":"uint256"},{"name":"tickets","type":"uint256","indexed":false,"internalType":"uint256"}],"anonymous":false},{"type":"error","name":"OnlyCoordinatorCanFulfill","inputs":[{"name":"have","type":"address","internalType":"address"},{"name":"want","type":"address","internalType":"address"}]},{"type":"error","name":"OwnableInvalidOwner","inputs":[{"name":"owner_","type":"address","internalType":"address"}]},{"type":"error","name":"OwnableUnauthorizedAccount","inputs":[{"name":"account","type":"address","internalType":"address"}]}],"bytecode":{"object":"0x610120346200019157601f6200262038819003918201601f19168301916001600160401b03831184841017620001955780849260e09460405283398101031262000191576200004e81620001a9565b6200005c60208301620001a9565b906040830151916060840151936200007760808201620001a9565b926200009460c06200008c60a08501620001a9565b9301620001a9565b91331562000179575f5460018060a01b03199533878316175f556040519760018060a01b0380978180978196823391167f8be0079c531659141344cd1fd0a4f28419497f9722a3daafe3b4186f6b6457e05f80a382608052338c60015416176001551660a0521660c05260e0526101009889521685600254161760025516836003541617600355169060045416176004556124619182620001bf833960805182611245015260a051828181610203015281816105790152611d8b015260c05182611797015260e051828181610ad501526116b401525181818161136a01526116d70152f35b604051631e4fbdf760e01b81525f6004820152602490fd5b5f80fd5b634e487b7160e01b5f52604160045260245ffd5b51906001600160a01b0382168203620001915756fe6080604081815260049182361015610015575f80fd5b5f92833560e01c91826309c1ba2e146113535750816310947a33146112cd5781631770cc8e146112b05781631fe543e3146111d157816324016aae1461108157816324e2371b14610e9f5781632e52ce1614610af85781632efab6fa14610e7c57816330563bd714610e2657816333d608f114610e0857816335d4de5114610db55781633bf990e514610ce157816355e3f08614610bef5781635fc3d52d14610b115781635fe00dc714610af857816361728f3914610abd57816367f082b014610aa15781636ffbfaa8146108af578163715018a614610a4757816372cf6e3414610a2b57816375829def146109b457816377818f021461098c5781637b208769146109635781638da5cb5b1461093b5781638f1327c0146108cb57816393b2a651146108af578163960ff419146108935781639cbe5efd146108745781639dd373b914610829578163a638580314610462578163a7ccabdf14610414578163d56d229d146103eb578163d6ca83831461035e578163e33a89c2146102e6578163ee99205c146102bd578163f2fde38b1461023257508063f75edc8c146101ef5763f851a440146101c4575f80fd5b346101eb57816003193601126101eb5760015490516001600160a01b039091168152602090f35b5080fd5b50346101eb57816003193601126101eb57517f00000000000000000000000000000000000000000000000000000000000000006001600160a01b03168152602090f35b9050346102b95760203660031901126102b95761024d61140a565b90610256611496565b6001600160a01b039182169283156102a357505082546001600160a01b0319811683178455167f8be0079c531659141344cd1fd0a4f28419497f9722a3daafe3b4186f6b6457e08380a380f35b51631e4fbdf760e01b8152908101849052602490fd5b8280fd5b5050346101eb57816003193601126101eb5760025490516001600160a01b039091168152602090f35b9050346102b95760603660031901126102b9576024356001600160401b03811161035a5761031790369083016113d9565b6044356001600160a01b038116939084900361035657602095928594926103489235855260098852858520916119ed565b908252845220549051908152f35b8580fd5b8380fd5b9050346102b957816003193601126102b9576024356001600160401b03811161035a579060a093836103966103a894369085016113d9565b929093358152600860205220916119ed565b90600180841b0391828154169260018201549260ff6005600285015493600386015416940154169381519586526020860152840152606083015215156080820152f35b5050346101eb57816003193601126101eb5760055490516001600160a01b039091168152602090f35b833461045f57602036600319011261045f5761042e61140a565b6001546001600160a01b03919061044890831633146114c1565b166001600160601b0360a01b600554161760055580f35b80fd5b919050346102b957806003193601126102b95781356001600160401b03811161035a5761049290369084016113d9565b909160249182359460065493848852602094600786528489209081548015158061081b575b6104c0906119af565b4210158061080d575b156107d857674563918244f4000089106107a6578952600886526104f0858a2085896119ed565b9160ff6005840154161561076e576002830161050d8a8254611c33565b91600384019261051e8c8554611c33565b906127109081810291818304149015171561075c57610fa09182810292818404149015171561075c5711610728578b898c60648b51809481936323b872dd60e01b8352338d8401523088840152604483015260018060a01b037f0000000000000000000000000000000000000000000000000000000000000000165af190811561071e578d916106f1575b50156106be57509260027fb44b499827de3c0d29f0a7c52813bfb08522a61d971fabccf87ad89bddab0db99896938b9693606099966105f36105eb8a336122be565b998254611c33565b905560018401610604898254611c33565b90556106118d8254611c33565b90550161061f868254611c33565b90556006548b5260098652610637848c20848b6119ed565b338c528652838b2061064a8b8254611c33565b90556006548b5260098652610662848c20848b6119ed565b338c528652838b205491810191825481116106a0575b50505060065496818351928392833781018a815203902096815193338552840152820152a380f35b90915560030180546001600160a01b031916331790555f8080610678565b85600f6064928b8b519362461bcd60e51b85528401528201526e151c985b9cd9995c8819985a5b1959608a1b6044820152fd5b61071191508a3d8c11610717575b610709818361138d565b810190611c4d565b5f6105a9565b503d6106ff565b89513d8f823e3d90fd5b8560106064928b8b519362461bcd60e51b85528401528201526f04578636565647320766f7465206361760841b6044820152fd5b634e487b7160e01b8e5260118852828efd5b8360146064928989519362461bcd60e51b855284015282015273141c9bd99a5b19481b9bdd08185c1c1c9bdd995960621b6044820152fd5b855162461bcd60e51b8152808501889052600d818501526c42656c6f77206d696e696d756d60981b6044820152606490fd5b855162461bcd60e51b81528085018890526010818501526f526f756e64206e6f742061637469766560801b6044820152606490fd5b5060018201544211156104c9565b508285015460ff16156104b7565b833461045f57602036600319011261045f5761084361140a565b6001546001600160a01b03919061085d90831633146114c1565b166001600160601b0360a01b600254161760025580f35b5050346101eb57816003193601126101eb576020906006549051908152f35b5050346101eb57816003193601126101eb576020905160018152f35b833461045f578060031936011261045f576108c861160d565b80f35b919050346102b95760203660031901126102b95760ff8160e094843581526007602052208054936001820154936002830154906005600385015493850154940154958151978852602088015286015260608501528181161515608085015260081c16151560a083015260c0820152f35b5050346101eb57816003193601126101eb57905490516001600160a01b039091168152602090f35b5050346101eb57816003193601126101eb5760035490516001600160a01b039091168152602090f35b9050346102b957826003193601126102b9575490516001600160a01b03909116815260209150f35b833461045f57602036600319011261045f576109ce61140a565b6001546001600160a01b03808216926109e83385146114c1565b1680926109f68215156114f9565b7ff8ccb027dfcd135e000e9d45e6cc2d662578a8825d4c45b5e32e0adf67e79ec68580a36001600160a01b0319161760015580f35b5050346101eb57816003193601126101eb576020905160028152f35b833461045f578060031936011261045f57610a60611496565b80546001600160a01b03198116825581906001600160a01b03167f8be0079c531659141344cd1fd0a4f28419497f9722a3daafe3b4186f6b6457e08280a380f35b5050346101eb57816003193601126101eb576020905160038152f35b5050346101eb57816003193601126101eb57602090517f00000000000000000000000000000000000000000000000000000000000000008152f35b833461045f578060031936011261045f576108c8611496565b9050346102b95760203660031901126102b957610b2c611496565b60065480610b97575b917fa359b664a68acd8839e42112eb50eff3408165e15074fde89ddb58a0db2e691d91610b63600194611bac565b8060065585526007602052610b7f828620914283553542611c33565b9384910155600654928151904282526020820152a280f35b808452600760205260ff82848620015416610b3557506020606492519162461bcd60e51b8352820152601a60248201527f50726576696f757320726f756e64206e6f7420736574746c65640000000000006044820152fd5b8383346101eb57816003193601126101eb57610c09611496565b60065480610c89575b610c1b90611bac565b80600655825260076020528082209042825562093a80420191824211610c7657908260017fa359b664a68acd8839e42112eb50eff3408165e15074fde89ddb58a0db2e691d930155600654928151904282526020820152a280f35b634e487b7160e01b845260118552602484fd5b808352600760205260ff84838520015416610c1257815162461bcd60e51b8152602081860152601a60248201527f50726576696f757320726f756e64206e6f7420736574746c65640000000000006044820152606490fd5b839150346101eb57602090816003193601126102b95791909135815260078252600583822001908154610d13816113c2565b90610d208651928361138d565b8082528482018094845285842084915b838310610d9157505050508451938085019181865251809252858501958260051b8601019392955b828710610d655785850386f35b909192938280610d81600193603f198a82030186528851611471565b9601920196019592919092610d58565b6001888192610da3859b98999b61156c565b81520192019201919096949396610d30565b8390346101eb5760203660031901126101eb57610dd061140a565b6001546001600160a01b039190610dea90831633146114c1565b16610df68115156114f9565b81546001600160a01b03191617905580f35b5050346101eb57816003193601126101eb57602090516207a1208152f35b833461045f57602036600319011261045f57610e4061140a565b6001546001600160a01b039190610e5a90831633146114c1565b16610e668115156114f9565b6001600160601b0360a01b600354161760035580f35b5050346101eb57816003193601126101eb5760209051674563918244f400008152f35b9050346102b957816003193601126102b9576001600160401b0390803582811161107d57610ed09036908301611420565b93909260243590811161035657610eea9036908401611420565b9160018060a01b0390600194610f048387541633146114c1565b8488036110495760069081548a5260209360078552610f34848c209283541515908161103a575b509a959a6119af565b6005918201948b805b828110610f48575080f35b8b8b8b8f8b8a898f93610f768f610f708b8e926110229e600883978a5483525220928c611bce565b906119ed565b8d8101908c82549560ff87166110295761100061101a98610ffa878f7f8d061afbca52698fe41de9d62735bed36e9df7431e20b1c6a1477aa1551cc6b89f908f988f9c610fe461100f9f610fdf9f879d6110079f9189928f99610fdf9560ff1916179055611c0f565b611c1f565b82546001600160a01b0319169116179055611bce565b91611a2f565b549a611bce565b969095611c0f565b8c5193849384611b74565b0390a2611bac565b8c90610f3d565b505050505050505050505050611bac565b60ff915084015416155f610f2b565b6020606492519162461bcd60e51b8352820152600f60248201526e098cadccee8d040dad2e6dac2e8c6d608b1b6044820152fd5b8480fd5b8383346101eb57806003193601126101eb5782356001600160401b0381116102b9576110b090369085016113d9565b602435949091906001600160a01b0380871691908288036111cd576110da906001541633146114c1565b6006549182875260076020528587209283541515806111bf575b6110fd906119af565b8752600860205261111186882086866119ed565b91600583019081549060ff8216611189575060ff1916600117905581546001600160a01b031916179055939492937f8d061afbca52698fe41de9d62735bed36e9df7431e20b1c6a1477aa1551cc6b893611183916111759085908590600501611a2f565b600654955193849384611b74565b0390a280f35b60649060208a519162461bcd60e51b8352820152601060248201526f105b1c9958591e48185c1c1c9bdd995960821b6044820152fd5b508383015460ff16156110f4565b8680fd5b839150346101eb57826003193601126101eb57602435906001600160401b0382116102b957366023830112156102b9578181013561120e816113c2565b9261121b8651948561138d565b81845260209160248386019160051b830101913683116111cd57602401905b8282106112a15750507f00000000000000000000000000000000000000000000000000000000000000006001600160a01b0316915050338190036112845750906108c89135611c65565b6044925084519163073e64fd60e21b835233908301526024820152fd5b8135815290830190830161123a565b5050346101eb57816003193601126101eb5760209051610fa08152f35b919050346102b957826003193601126102b9576112e8611496565b600654835260076020528220611300815415156118f7565b016001815461131260ff821615611937565b61132260ff8260081c1615611975565b60ff19161790556006547fa664225dd6089d2e7eb155ed5dda4a608160b0dc0f6eb58d948171bc5bc813f58280a280f35b8490346101eb57816003193601126101eb576020907f00000000000000000000000000000000000000000000000000000000000000008152f35b90601f801991011681019081106001600160401b038211176113ae57604052565b634e487b7160e01b5f52604160045260245ffd5b6001600160401b0381116113ae5760051b60200190565b9181601f84011215611406578235916001600160401b038311611406576020838186019501011161140657565b5f80fd5b600435906001600160a01b038216820361140657565b9181601f84011215611406578235916001600160401b038311611406576020808501948460051b01011161140657565b5f5b8381106114615750505f910152565b8181015183820152602001611452565b9060209161148a81518092818552858086019101611450565b601f01601f1916010190565b5f546001600160a01b031633036114a957565b60405163118cdaa760e01b8152336004820152602490fd5b156114c857565b60405162461bcd60e51b81526020600482015260096024820152682737ba1030b236b4b760b91b6044820152606490fd5b1561150057565b60405162461bcd60e51b815260206004820152600c60248201526b5a65726f206164647265737360a01b6044820152606490fd5b90600182811c92168015611562575b602083101461154e57565b634e487b7160e01b5f52602260045260245ffd5b91607f1691611543565b9060405191825f82549261157f84611534565b9081845260019485811690815f146115ea57506001146115aa575b50506115a89250038361138d565b565b909391505f52602090815f20935f915b8183106115d25750506115a893508201015f8061159a565b855488840185015294850194879450918301916115ba565b9150506115a894506020925060ff191682840152151560051b8201015f8061159a565b611615611496565b6006545f9081526020906007825260409182822091611636835415156118f7565b6004928381019081549061164d60ff831615611937565b61165d60ff8360081c1615611975565b600181015442106118c25760050154156118905761ff0019166101001790558351926001600160401b0360c085018181118682101761187d578652838501868601906060870191608088019160a0890194606086527f00000000000000000000000000000000000000000000000000000000000000008a527f00000000000000000000000000000000000000000000000000000000000000008252600383526207a1208552600284528a519060608201908282109082111761186a578b528a815263125fa26760e31b818a01528a810188905285528951634d8e1c2f60e11b81529586018890529751602486015296516044850152955161ffff1660648401525163ffffffff9081166084840152945190941660a4820152925160c060c48501528290849081906117929060e4830190611471565b0381847f00000000000000000000000000000000000000000000000000000000000000006001600160a01b03165af190811561185f578085919261180a575b7fc6f253de430148d7581a940518a73a6d98efc85ea9162887a3918443ba67c2129450600654958184889352600a8652205551908152a2565b9293809250848092503d8311611858575b611825818361138d565b810103126101eb57517fc6f253de430148d7581a940518a73a6d98efc85ea9162887a3918443ba67c212929184906117d1565b503d61181b565b8451903d90823e3d90fd5b634e487b7160e01b895260418852602489fd5b634e487b7160e01b845260418352602484fd5b5050925162461bcd60e51b815291820152600b60248201526a4e6f2070726f66696c657360a81b604482015260649150fd5b865162461bcd60e51b8152808701869052600f60248201526e149bdd5b99081b9bdd08195b991959608a1b6044820152606490fd5b156118fe57565b60405162461bcd60e51b8152602060048201526011602482015270149bdd5b99081b9bdd081cdd185c9d1959607a1b6044820152606490fd5b1561193e57565b60405162461bcd60e51b815260206004820152600f60248201526e105b1c9958591e481cd95d1d1b1959608a1b6044820152606490fd5b1561197c57565b60405162461bcd60e51b815260206004820152600b60248201526a5652462070656e64696e6760a81b6044820152606490fd5b156119b657565b60405162461bcd60e51b815260206004820152600f60248201526e139bc81858dd1a5d99481c9bdd5b99608a1b6044820152606490fd5b6020919283604051948593843782019081520301902090565b8054821015611a1b575f5260205f2001905f90565b634e487b7160e01b5f52603260045260245ffd5b90918154680100000000000000008110156113ae57611a55906001938482018155611a06565b939093611b61576001600160401b0382116113ae57611a748454611534565b601f8111611b17575b505f90601f8311600114611ab5579282939183925f94611aaa575b50501b915f199060031b1c1916179055565b013592505f80611a98565b601f19831691858152836020938483209483905b88838310611afd5750505010611ae4575b505050811b019055565b01355f19600384901b60f8161c191690555f8080611ada565b868601358855909601959384019387935090810190611ac9565b5f85815260208120601f850160051c81019260208610611b57575b601f0160051c019185905b838110611b4c57505050611a7d565b828155018590611b3d565b9092508290611b32565b634e487b7160e01b5f525f60045260245ffd5b918060609160209396959660408652816040870152838601375f828286010152601f80199101168301019360018060a01b0316910152565b5f198114611bba5760010190565b634e487b7160e01b5f52601160045260245ffd5b9190811015611a1b5760051b81013590601e19813603018212156114065701908135916001600160401b038311611406576020018236038113611406579190565b9190811015611a1b5760051b0190565b356001600160a01b03811681036114065790565b91908201809211611bba57565b91908203918211611bba57565b90816020910312611406575180151581036114065790565b905f918252600a6020526040822054918281526007602052604081209160048301805460ff8160081c16156122875761ffff191660011790556005830154908115801561227b575b61227457805115612260576020015192600281015493841561224c5760609484805b858210612161575b505050505050828152600860205260408120602060405180928551611cff8184868a01611450565b82019081520301902090600282015491821580801561214f575b6121475760288402848104602814821715612133576064900490600a850290858204600a141715612133576064900490611d6082611d5b83611d5b818a611c40565b611c40565b835460405163a9059cbb60e01b8082526001600160a01b0392831660048301526024820185905291967f0000000000000000000000000000000000000000000000000000000000000000881695929490939291602081604481888b5af180156121285791602091611e099361210b575b5060038901548a168015612101575b6040518881526001600160a01b039091166004820152602481019190915291829081906044820190565b0381878a5af180156120f65791602091611e51936120d9575b50600354604051878152908a166001600160a01b03166004820152602481019190915291829081906044820190565b038186895af18015611fff5791602091611e99936120bc575b50876004541660405193849283928884526004840160209093929193604081019460018060a01b031681520152565b038185885af180156120b157612092575b5084600554168061200a575b506040516370a0823160e01b81523060048201529091602082602481875afa918215611fff578392611fcb575b5081611f3d575b50505050917fabf0728119ba3c53309b0f987eda834ecf31e54dfaeec92465c1512c5eb9c2b99391611f2d93541690604051938493606085526060850190611471565b91602084015260408301520390a2565b906044602092846040519687948593845261dead600485015260248401525af1908115611fbf5750917fabf0728119ba3c53309b0f987eda834ecf31e54dfaeec92465c1512c5eb9c2b9959391611f2d9593611fa0575b82949682949650611eea565b611fb89060203d60201161071757610709818361138d565b505f611f94565b604051903d90823e3d90fd5b9091506020813d602011611ff7575b81611fe76020938361138d565b810103126114065751905f611ee3565b3d9150611fda565b6040513d85823e3d90fd5b85855416813b156102b95788612057928b8580948c670de0b6b3a7640000604051988997889687956304546bd560e11b875260048701526024860152608060448601526084850190611471565b9104606483015203925af115611eb6576001600160401b03811161207e576040525f611eb6565b634e487b7160e01b82526041600452602482fd5b6120aa9060203d60201161071757610709818361138d565b505f611eaa565b6040513d84823e3d90fd5b6120d290833d851161071757610709818361138d565b505f611e6a565b6120ef90833d851161071757610709818361138d565b505f611e22565b6040513d86823e3d90fd5b5089895416611ddf565b61212190833d851161071757610709818361138d565b505f611dd0565b6040513d87823e3d90fd5b634e487b7160e01b84526011600452602484fd5b505050505050565b5081546001600160a01b031615611d19565b88875260086020526040872061217a8360058801611a06565b5060405191899180549061218d82611534565b916001811690811561223457506001146121ff575b505081528190036020019020600101546121bb91611c33565b9081838506106121d4576121ce90611bac565b90611ccf565b939150506121f39495506121ed93506005915001611a06565b5061156c565b905f8080808080611cd7565b909192508a5260208a208a905b8282106122205750508201906020836121a2565b60018160209254848801520191019061220c565b60ff19168652505080151502830191506020836121a2565b634e487b7160e01b84526012600452602484fd5b634e487b7160e01b83526032600452602483fd5b5050505050565b50600284015415611cad565b60405162461bcd60e51b815260206004820152600f60248201526e4e6f74205652462070656e64696e6760881b6044820152606490fd5b60025460405163a8a82fd760e01b81526001600160a01b039283166004808301919091526024939092602091839186918391165afa5f91816123f8575b50612307575b50505090565b600581146123da578181146123bd57600381146123a05760028114612383576001811461236657156123395780612301565b606e830292808404606e14901517156123555750506064900490565b601190634e487b7160e01b5f52525ffd5b50607d830292808404607d14901517156123555750506064900490565b506096830292808404609614901517156123555750506064900490565b5060af83029280840460af14901517156123555750506064900490565b5060c883029280840460c814901517156123555750506064900490565b5061012c928381029381850414901517156123555750506064900490565b90916020823d8211612423575b816124126020938361138d565b8101031261045f575051905f6122fb565b3d915061240556fea26469706673582212203f7a15fccaacc265ecc246c0e178464e6f03457aef70d33fd38650d7982fc41764736f6c63430008140033","linkReferences":{}},"methodIdentifiers":{"CALLBACK_GAS_LIMIT()":"33d608f1","MAX_VOTE_CAP_BPS()":"1770cc8e","MIN_VOTE()":"2efab6fa","NUM_WORDS()":"72cf6e34","REQUEST_CONFIRMATIONS()":"67f082b0","admin()":"f851a440","approveProfile(string,address)":"24016aae","batchApproveProfiles(string[],address[])":"24e2371b","charityWallet()":"7b208769","currentRoundId()":"9cbe5efd","getProfile(uint256,string)":"d6ca8383","getProfiles(uint256)":"3bf990e5","getRound(uint256)":"8f1327c0","getVoterAmount(uint256,string,address)":"e33a89c2","houseWallet()":"77818f02","keyHash()":"61728f39","midpointSnapshot()":"5fe00dc7","minProfilesPerRound()":"960ff419","nftContract()":"d56d229d","owner()":"8da5cb5b","rawFulfillRandomWords(uint256,uint256[])":"1fe543e3","renounceOwnership()":"715018a6","requestSettlement()":"93b2a651","rolloverRound()":"10947a33","setCharityWallet(address)":"30563bd7","setHouseWallet(address)":"35d4de51","setNFTContract(address)":"a7ccabdf","setStakingContract(address)":"9dd373b9","settleRound()":"6ffbfaa8","stakingContract()":"ee99205c","startRound()":"55e3f086","startRound(uint256)":"5fc3d52d","subscriptionId()":"09c1ba2e","takeMidpointSnapshot()":"2e52ce16","transferAdmin(address)":"75829def","transferOwnership(address)":"f2fde38b","ttsToken()":"f75edc8c","vote(string,uint256)":"a6385803"},"id":3}