{"abi":[{"type":"constructor","inputs":[{"name":"_ttsToken","type":"address","internalType":"address"},{"name":"vrfCoordinator_","type":"address","internalType":"address"},{"name":"_keyHash","type":"bytes32","internalType":"bytes32"},{"name":"_subscriptionId","type":"uint256","internalType":"uint256"},{"name":"_stakingContract","type":"address","internalType":"address"},{"name":"_charityWallet","type":"address","internalType":"address"},{"name":"_houseWallet","type":"address","internalType":"address"}],"stateMutability":"nonpayable"},{"type":"function","name":"CALLBACK_GAS_LIMIT","inputs":[],"outputs":[{"name":"","type":"uint32","internalType":"uint32"}],"stateMutability":"view"},{"type":"function","name":"MAX_PROFILES_PER_ROUND","inputs":[],"outputs":[{"name":"","type":"uint256","internalType":"uint256"}],"stateMutability":"view"},{"type":"function","name":"MAX_VOTE_CAP_BPS","inputs":[],"outputs":[{"name":"","type":"uint256","internalType":"uint256"}],"stateMutability":"view"},{"type":"function","name":"MIN_VOTE","inputs":[],"outputs":[{"name":"","type":"uint256","internalType":"uint256"}],"stateMutability":"view"},{"type":"function","name":"NUM_WORDS","inputs":[],"outputs":[{"name":"","type":"uint32","internalType":"uint32"}],"stateMutability":"view"},{"type":"function","name":"REQUEST_CONFIRMATIONS","inputs":[],"outputs":[{"name":"","type":"uint16","internalType":"uint16"}],"stateMutability":"view"},{"type":"function","name":"admin","inputs":[],"outputs":[{"name":"","type":"address","internalType":"address"}],"stateMutability":"view"},{"type":"function","name":"adminResetSettlement","inputs":[{"name":"roundId","type":"uint256","internalType":"uint256"}],"outputs":[],"stateMutability":"nonpayable"},{"type":"function","name":"approveProfile","inputs":[{"name":"profileId","type":"string","internalType":"string"},{"name":"wallet","type":"address","internalType":"address"}],"outputs":[],"stateMutability":"nonpayable"},{"type":"function","name":"batchApproveProfiles","inputs":[{"name":"profileIds","type":"string[]","internalType":"string[]"},{"name":"wallets","type":"address[]","internalType":"address[]"}],"outputs":[],"stateMutability":"nonpayable"},{"type":"function","name":"charityWallet","inputs":[],"outputs":[{"name":"","type":"address","internalType":"address"}],"stateMutability":"view"},{"type":"function","name":"clubWallets","inputs":[{"name":"","type":"string","internalType":"string"}],"outputs":[{"name":"","type":"address","internalType":"address"}],"stateMutability":"view"},{"type":"function","name":"currentRoundId","inputs":[],"outputs":[{"name":"","type":"uint256","internalType":"uint256"}],"stateMutability":"view"},{"type":"function","name":"getProfile","inputs":[{"name":"roundId","type":"uint256","internalType":"uint256"},{"name":"profileId","type":"string","internalType":"string"}],"outputs":[{"name":"wallet","type":"address","internalType":"address"},{"name":"totalTickets","type":"uint256","internalType":"uint256"},{"name":"rawVotes","type":"uint256","internalType":"uint256"},{"name":"topVoter","type":"address","internalType":"address"},{"name":"approved","type":"bool","internalType":"bool"}],"stateMutability":"view"},{"type":"function","name":"getProfiles","inputs":[{"name":"roundId","type":"uint256","internalType":"uint256"}],"outputs":[{"name":"","type":"string[]","internalType":"string[]"}],"stateMutability":"view"},{"type":"function","name":"getRound","inputs":[{"name":"roundId","type":"uint256","internalType":"uint256"}],"outputs":[{"name":"startTime","type":"uint256","internalType":"uint256"},{"name":"endTime","type":"uint256","internalType":"uint256"},{"name":"totalTickets","type":"uint256","internalType":"uint256"},{"name":"totalRawVotes","type":"uint256","internalType":"uint256"},{"name":"settled","type":"bool","internalType":"bool"},{"name":"vrfPending","type":"bool","internalType":"bool"},{"name":"profileCount","type":"uint256","internalType":"uint256"}],"stateMutability":"view"},{"type":"function","name":"getVoterAmount","inputs":[{"name":"roundId","type":"uint256","internalType":"uint256"},{"name":"profileId","type":"string","internalType":"string"},{"name":"voter","type":"address","internalType":"address"}],"outputs":[{"name":"","type":"uint256","internalType":"uint256"}],"stateMutability":"view"},{"type":"function","name":"houseWallet","inputs":[],"outputs":[{"name":"","type":"address","internalType":"address"}],"stateMutability":"view"},{"type":"function","name":"keyHash","inputs":[],"outputs":[{"name":"","type":"bytes32","internalType":"bytes32"}],"stateMutability":"view"},{"type":"function","name":"midpointSnapshot","inputs":[],"outputs":[],"stateMutability":"nonpayable"},{"type":"function","name":"minProfilesPerRound","inputs":[],"outputs":[{"name":"","type":"uint256","internalType":"uint256"}],"stateMutability":"pure"},{"type":"function","name":"nftContract","inputs":[],"outputs":[{"name":"","type":"address","internalType":"address"}],"stateMutability":"view"},{"type":"function","name":"owner","inputs":[],"outputs":[{"name":"","type":"address","internalType":"address"}],"stateMutability":"view"},{"type":"function","name":"profileClub","inputs":[{"name":"","type":"string","internalType":"string"}],"outputs":[{"name":"","type":"string","internalType":"string"}],"stateMutability":"view"},{"type":"function","name":"rawFulfillRandomWords","inputs":[{"name":"requestId","type":"uint256","internalType":"uint256"},{"name":"randomWords","type":"uint256[]","internalType":"uint256[]"}],"outputs":[],"stateMutability":"nonpayable"},{"type":"function","name":"renounceOwnership","inputs":[],"outputs":[],"stateMutability":"nonpayable"},{"type":"function","name":"requestSettlement","inputs":[],"outputs":[],"stateMutability":"nonpayable"},{"type":"function","name":"rolloverRound","inputs":[],"outputs":[],"stateMutability":"nonpayable"},{"type":"function","name":"setCharityWallet","inputs":[{"name":"_charity","type":"address","internalType":"address"}],"outputs":[],"stateMutability":"nonpayable"},{"type":"function","name":"setClubWallet","inputs":[{"name":"code","type":"string","internalType":"string"},{"name":"wallet","type":"address","internalType":"address"}],"outputs":[],"stateMutability":"nonpayable"},{"type":"function","name":"setHouseWallet","inputs":[{"name":"_house","type":"address","internalType":"address"}],"outputs":[],"stateMutability":"nonpayable"},{"type":"function","name":"setNFTContract","inputs":[{"name":"_nft","type":"address","internalType":"address"}],"outputs":[],"stateMutability":"nonpayable"},{"type":"function","name":"setProfileClub","inputs":[{"name":"profileId","type":"string","internalType":"string"},{"name":"clubCode","type":"string","internalType":"string"}],"outputs":[],"stateMutability":"nonpayable"},{"type":"function","name":"setStakingContract","inputs":[{"name":"_staking","type":"address","internalType":"address"}],"outputs":[],"stateMutability":"nonpayable"},{"type":"function","name":"settleRound","inputs":[],"outputs":[],"stateMutability":"nonpayable"},{"type":"function","name":"stakingContract","inputs":[],"outputs":[{"name":"","type":"address","internalType":"contract IStaking"}],"stateMutability":"view"},{"type":"function","name":"startRound","inputs":[],"outputs":[],"stateMutability":"nonpayable"},{"type":"function","name":"startRound","inputs":[{"name":"duration","type":"uint256","internalType":"uint256"}],"outputs":[],"stateMutability":"nonpayable"},{"type":"function","name":"subscriptionId","inputs":[],"outputs":[{"name":"","type":"uint256","internalType":"uint256"}],"stateMutability":"view"},{"type":"function","name":"takeMidpointSnapshot","inputs":[],"outputs":[],"stateMutability":"nonpayable"},{"type":"function","name":"transferAdmin","inputs":[{"name":"newAdmin","type":"address","internalType":"address"}],"outputs":[],"stateMutability":"nonpayable"},{"type":"function","name":"transferOwnership","inputs":[{"name":"newOwner","type":"address","internalType":"address"}],"outputs":[],"stateMutability":"nonpayable"},{"type":"function","name":"ttsToken","inputs":[],"outputs":[{"name":"","type":"address","internalType":"contract IERC20"}],"stateMutability":"view"},{"type":"function","name":"vote","inputs":[{"name":"profileId","type":"string","internalType":"string"},{"name":"amount","type":"uint256","internalType":"uint256"}],"outputs":[],"stateMutability":"nonpayable"},{"type":"event","name":"AdminTransferred","inputs":[{"name":"previous","type":"address","indexed":true,"internalType":"address"},{"name":"next","type":"address","indexed":true,"internalType":"address"}],"anonymous":false},{"type":"event","name":"CharityWalletUpdated","inputs":[{"name":"previous","type":"address","indexed":true,"internalType":"address"},{"name":"next","type":"address","indexed":true,"internalType":"address"}],"anonymous":false},{"type":"event","name":"ClubPayoutSent","inputs":[{"name":"roundId","type":"uint256","indexed":true,"internalType":"uint256"},{"name":"clubCode","type":"string","indexed":false,"internalType":"string"},{"name":"clubWallet","type":"address","indexed":true,"internalType":"address"},{"name":"amount","type":"uint256","indexed":false,"internalType":"uint256"}],"anonymous":false},{"type":"event","name":"ClubWalletSet","inputs":[{"name":"clubCode","type":"string","indexed":true,"internalType":"string"},{"name":"wallet","type":"address","indexed":true,"internalType":"address"}],"anonymous":false},{"type":"event","name":"HouseWalletUpdated","inputs":[{"name":"previous","type":"address","indexed":true,"internalType":"address"},{"name":"next","type":"address","indexed":true,"internalType":"address"}],"anonymous":false},{"type":"event","name":"MultiplierFallback","inputs":[{"name":"voter","type":"address","indexed":true,"internalType":"address"}],"anonymous":false},{"type":"event","name":"NFTContractUpdated","inputs":[{"name":"previous","type":"address","indexed":true,"internalType":"address"},{"name":"next","type":"address","indexed":true,"internalType":"address"}],"anonymous":false},{"type":"event","name":"OwnershipTransferred","inputs":[{"name":"previousOwner","type":"address","indexed":true,"internalType":"address"},{"name":"newOwner","type":"address","indexed":true,"internalType":"address"}],"anonymous":false},{"type":"event","name":"ProfileApproved","inputs":[{"name":"roundId","type":"uint256","indexed":true,"internalType":"uint256"},{"name":"profileId","type":"string","indexed":false,"internalType":"string"},{"name":"wallet","type":"address","indexed":false,"internalType":"address"}],"anonymous":false},{"type":"event","name":"ProfileClubSet","inputs":[{"name":"profileId","type":"string","indexed":true,"internalType":"string"},{"name":"clubCode","type":"string","indexed":true,"internalType":"string"}],"anonymous":false},{"type":"event","name":"RoundRolledOver","inputs":[{"name":"roundId","type":"uint256","indexed":true,"internalType":"uint256"}],"anonymous":false},{"type":"event","name":"RoundSettled","inputs":[{"name":"roundId","type":"uint256","indexed":true,"internalType":"uint256"},{"name":"winnerProfileId","type":"string","indexed":false,"internalType":"string"},{"name":"winnerWallet","type":"address","indexed":false,"internalType":"address"},{"name":"pool","type":"uint256","indexed":false,"internalType":"uint256"}],"anonymous":false},{"type":"event","name":"RoundStarted","inputs":[{"name":"roundId","type":"uint256","indexed":true,"internalType":"uint256"},{"name":"startTime","type":"uint256","indexed":false,"internalType":"uint256"},{"name":"endTime","type":"uint256","indexed":false,"internalType":"uint256"}],"anonymous":false},{"type":"event","name":"VRFRequested","inputs":[{"name":"roundId","type":"uint256","indexed":true,"internalType":"uint256"},{"name":"requestId","type":"uint256","indexed":false,"internalType":"uint256"}],"anonymous":false},{"type":"event","name":"Voted","inputs":[{"name":"roundId","type":"uint256","indexed":true,"internalType":"uint256"},{"name":"profileId","type":"string","indexed":true,"internalType":"string"},{"name":"voter","type":"address","indexed":false,"internalType":"address"},{"name":"amount","type":"uint256","indexed":false,"internalType":"uint256"},{"name":"tickets","type":"uint256","indexed":false,"internalType":"uint256"}],"anonymous":false},{"type":"error","name":"OnlyCoordinatorCanFulfill","inputs":[{"name":"have","type":"address","internalType":"address"},{"name":"want","type":"address","internalType":"address"}]},{"type":"error","name":"OwnableInvalidOwner","inputs":[{"name":"owner_","type":"address","internalType":"address"}]},{"type":"error","name":"OwnableUnauthorizedAccount","inputs":[{"name":"account","type":"address","internalType":"address"}]}],"bytecode":{"object":"0x610120346200023e57601f62002d4238819003918201601f1916830191906001600160401b0383118484101762000242578160e092859260409586528339810103126200023e57620000518262000256565b91620000606020820162000256565b9082810151606082015194620000796080840162000256565b6200009560c06200008d60a0870162000256565b950162000256565b92331562000227575f549560018060a01b03199533878916175f5588519760018060a01b03958691823391167f8be0079c531659141344cd1fd0a4f28419497f9722a3daafe3b4186f6b6457e05f80a38360805216978815620001f857508416948515620001c557841696871562000194579084913388600154161760015560a0521660c05260e05261010096875216826002541617600255816003541617600355600454161760045551612ad691826200026c8339608051826115b2015260a051828181610246015281816106640152612346015260c05182611d4f015260e051828181610cc70152611c6c0152518181816117240152611c8f0152f35b885162461bcd60e51b815260206004820152600a6024820152695a65726f20686f75736560b01b6044820152606490fd5b885162461bcd60e51b815260206004820152600c60248201526b5a65726f206368617269747960a01b6044820152606490fd5b62461bcd60e51b815260206004820152600a6024820152692d32b937903a37b5b2b760b11b6044820152606490fd5b8651631e4fbdf760e01b81525f6004820152602490fd5b5f80fd5b634e487b7160e01b5f52604160045260245ffd5b51906001600160a01b03821682036200023e5756fe610160604081815260049182361015610016575f80fd5b5f92833560e01c91826309c1ba2e1461170d5750816310947a331461163e5781631770cc8e146116215781631fe543e31461153e57816324016aae1461140657816324e2371b146111ff5781632e52ce1614610cea5781632efab6fa146111dc57816330563bd71461115e57816333d608f11461114057816335d4de51146110c35781633bf990e514610fef57816342600f9614610f275781634346e4ea14610ed357816355e3f08614610de15781635fc3d52d14610d035781635fe00dc714610cea57816361728f3914610caf57816367f082b014610c935781636ffbfaa8146109cc578163715018a614610c3957816372cf6e3414610c1d57816375829def14610ba657816377818f0214610b7e5781637b20876914610b55578163827ae5e114610a805781638da5cb5b14610a585781638f1327c0146109e857816393b2a651146109cc578163960ff419146109b05781639cbe5efd146109915781639dd373b9146109415781639fb6866b146108b3578163a638580314610530578163a7ccabdf146104ba578163d56d229d14610491578163d6ca838314610404578163de926dd6146103e8578163e33a89c214610370578163ee99205c14610347578163f2fac62714610300578163f2fde38b1461027557508063f75edc8c146102325763f851a44014610207575f80fd5b3461022e578160031936011261022e5760015490516001600160a01b039091168152602090f35b5080fd5b503461022e578160031936011261022e57517f00000000000000000000000000000000000000000000000000000000000000006001600160a01b03168152602090f35b9050346102fc5760203660031901126102fc576102906117df565b90610299611a08565b6001600160a01b039182169283156102e657505082546001600160a01b0319811683178455167f8be0079c531659141344cd1fd0a4f28419497f9722a3daafe3b4186f6b6457e08380a380f35b51631e4fbdf760e01b8152908101849052602490fd5b8280fd5b50503461022e57602090610313366118c8565b8261032683519283815193849201611867565b6006908201908152819003830190205490516001600160a01b039091168152f35b50503461022e578160031936011261022e5760025490516001600160a01b039091168152602090f35b9050346102fc5760603660031901126102fc576024356001600160401b0381116103e4576103a190369083016117ae565b6044356001600160a01b03811693908490036103e057602095928594926103d292358552600b885285852091611aa6565b908252845220549051908152f35b8580fd5b8380fd5b50503461022e578160031936011261022e576020905160328152f35b9050346102fc57816003193601126102fc576024356001600160401b0381116103e4579060a0938361043c61044e94369085016117ae565b929093358152600a6020522091611aa6565b90600180841b0391828154169260018201549260ff6005600285015493600386015416940154169381519586526020860152840152606083015215156080820152f35b50503461022e578160031936011261022e5760055490516001600160a01b039091168152602090f35b833461052d57602036600319011261052d576104d46117df565b6001546001600160a01b0391906104ee9083163314611a33565b816005549116809282167fab9636faa03b42a52a353eb86f070f1ac15b69f0bc419fba63d07b5d996edad78580a36001600160a01b0319161760055580f35b80fd5b919050346102fc57806003193601126102fc576001600160401b0382358181116108af5761056190369085016117ae565b60249391939485359560085480895260209560098752858a20918254801515806108a1575b61058f90611fa1565b42101580610893575b1561085e57674563918244f400008a1061082c578a52600a87526105bf868b20868a611aa6565b9260ff600585015416156107f45760028401906105dd8b8354612151565b9260038501936105ee8d8654612151565b90808211610779575b505088516323b872dd60e01b8b820152338382015230604482015260648082018e905281529160a08301918211838310176107685750938b96938996936106886002947fb44b499827de3c0d29f0a7c52813bfb08522a61d971fabccf87ad89bddab0db99d9b9860609d527f0000000000000000000000000000000000000000000000000000000000000000612808565b61069d6106958a3361290b565b998254612151565b9055600184016106ae898254612151565b90556106bb8d8254612151565b9055016106c9868254612151565b90556008548b52600b86526106e1848c20848b611aa6565b338c528652838b206106f48b8254612151565b90556008548b52600b865261070c848c20848b611aa6565b338c528652838b2054918101918254811161074a575b50505060085496818351928392833781018a815203902096815193338552840152820152a380f35b90915560030180546001600160a01b031916331790555f8080610722565b634e487b7160e01b8e52604188528dfd5b612710908181029181830414901517156107e257610fa0918281029281840414901517156107e257116107ad575f806105f7565b885162461bcd60e51b81528088018b90526010818401526f04578636565647320766f7465206361760841b6044820152606490fd5b634e487b7160e01b8f5260118952838ffd5b8460146064928a8a519362461bcd60e51b855284015282015273141c9bd99a5b19481b9bdd08185c1c1c9bdd995960621b6044820152fd5b865162461bcd60e51b8152808601899052600d818601526c42656c6f77206d696e696d756d60981b6044820152606490fd5b865162461bcd60e51b81528086018990526010818601526f526f756e64206e6f742061637469766560801b6044820152606490fd5b506001830154421115610598565b508386015460ff1615610586565b8480fd5b50503461022e576108c3366117f5565b929080929160018060a01b036108de81600154163314611a33565b8151838582376020818581016006815203019020951694856bffffffffffffffffffffffff60a01b82541617905551928392833781018481520390207feb1a8899125a6bae920bed4b13ea41775f79d071d165819cd2160c951756abb88380a380f35b833461052d57602036600319011261052d5761095b6117df565b6001546001600160a01b0391906109759083163314611a33565b166bffffffffffffffffffffffff60a01b600254161760025580f35b50503461022e578160031936011261022e576020906008549051908152f35b50503461022e578160031936011261022e576020905160018152f35b833461052d578060031936011261052d576109e5611bc5565b80f35b919050346102fc5760203660031901126102fc5760ff8160e094843581526009602052208054936001820154936002830154906005600385015493850154940154958151978852602088015286015260608501528181161515608085015260081c16151560a083015260c0820152f35b50503461022e578160031936011261022e57905490516001600160a01b039091168152602090f35b9050346102fc5760203660031901126102fc57610a9b611a08565b803583526009602052818320908082019283549260ff8460081c1615610b215760010154620151808101809111610b0e57421115610adf57505061ff001916905580f35b906020606492519162461bcd60e51b83528201526009602482015268546f6f206561726c7960b81b6044820152fd5b634e487b7160e01b865260118352602486fd5b815162461bcd60e51b8152602081850152600e60248201526d2737903832b73234b733902b292360911b6044820152606490fd5b50503461022e578160031936011261022e5760035490516001600160a01b039091168152602090f35b9050346102fc57826003193601126102fc575490516001600160a01b03909116815260209150f35b833461052d57602036600319011261052d57610bc06117df565b6001546001600160a01b0380821692610bda338514611a33565b168092610be8821515611a6b565b7ff8ccb027dfcd135e000e9d45e6cc2d662578a8825d4c45b5e32e0adf67e79ec68580a36001600160a01b0319161760015580f35b50503461022e578160031936011261022e576020905160028152f35b833461052d578060031936011261052d57610c52611a08565b80546001600160a01b03198116825581906001600160a01b03167f8be0079c531659141344cd1fd0a4f28419497f9722a3daafe3b4186f6b6457e08280a380f35b50503461022e578160031936011261022e576020905160038152f35b50503461022e578160031936011261022e57602090517f00000000000000000000000000000000000000000000000000000000000000008152f35b833461052d578060031936011261052d576109e5611a08565b9050346102fc5760203660031901126102fc57610d1e611a08565b60085480610d89575b917fa359b664a68acd8839e42112eb50eff3408165e15074fde89ddb58a0db2e691d91610d556001946120ca565b8060085585526009602052610d71828620914283553542612151565b9384910155600854928151904282526020820152a280f35b808452600960205260ff82848620015416610d2757506020606492519162461bcd60e51b8352820152601a60248201527f50726576696f757320726f756e64206e6f7420736574746c65640000000000006044820152fd5b83833461022e578160031936011261022e57610dfb611a08565b60085480610e7b575b610e0d906120ca565b80600855825260096020528082209042825562093a80420191824211610e6857908260017fa359b664a68acd8839e42112eb50eff3408165e15074fde89ddb58a0db2e691d930155600854928151904282526020820152a280f35b634e487b7160e01b845260118552602484fd5b808352600960205260ff84838520015416610e0457815162461bcd60e51b8152602081860152601a60248201527f50726576696f757320726f756e64206e6f7420736574746c65640000000000006044820152606490fd5b50503461022e57610f2390610f10610f016020610eef366118c8565b81855193828580945193849201611867565b81016007815203019020611967565b9051918291602083526020830190611888565b0390f35b9050346102fc57816003193601126102fc576001600160401b039080358281116108af57610f5890369083016117ae565b9290916024359182116103e057610f71913691016117ae565b92839192610f8a60018060a01b03600154163314611a33565b610fa883858851858582376020818781016007815203019020611abf565b81865192839283378101878152039020935192839283378101848152039020907fe3317bd8cb72b6bcda2048acbf25b3e72f5153a3cf13f751a78bfa96ecec98928380a380f35b8391503461022e57602090816003193601126102fc579190913581526009825260058382200190815461102181611797565b9061102e86519283611776565b8082528482018094845285842084915b83831061109f57505050508451938085019181865251809252858501958260051b8601019392955b8287106110735785850386f35b90919293828061108f600193603f198a82030186528851611888565b9601920196019592919092611066565b60018881926110b1859b98999b611967565b8152019201920191909694939661103e565b83903461022e57602036600319011261022e576110de6117df565b6001546001600160a01b039182916110f99083163314611a33565b1690611106821515611a6b565b8183549182167f4458ddb6dc3ec2ed00040644993729a554c5589daad7cb5e08572a3160d028838680a36001600160a01b03191617905580f35b50503461022e578160031936011261022e5760209051622625a08152f35b833461052d57602036600319011261052d576111786117df565b6001546001600160a01b039182916111939083163314611a33565b16906111a0821515611a6b565b816003549182167fc20073d1c4443096c55d22a3812db7261aa6911634e1a0850f068d0c9923402d8580a36001600160a01b0319161760035580f35b50503461022e578160031936011261022e5760209051674563918244f400008152f35b9050346102fc57816003193601126102fc576001600160401b039080358281116108af576112309036908301611837565b9390926024359081116103e05761124a9036908401611837565b9160018060a01b0390600194611264838754163314611a33565b8488036113d25760089081548a5260209360098552611294848c20928354151590816113c3575b509a959a611fa1565b6005918201948b805b8281106112a8575080f35b8b8b8b8f8b8a898f936113048f6112fe8b8e926113ab9e600a83976112e48a8f8f886112dc926112d7926120ec565b6120fc565b161515611f67565b6112f160328d5410611fdf565b8a5483525220928c612110565b90611aa6565b8d8101908c82549560ff87166113b2576113896113a398611383878f7f8d061afbca52698fe41de9d62735bed36e9df7431e20b1c6a1477aa1551cc6b89f908f988f9c61136d6113989f6112d79f879d6113909f9189928f996112d79560ff19161790556120ec565b82546001600160a01b0319169116179055612110565b9161204a565b549a612110565b9690956120ec565b8c5193849384612092565b0390a26120ca565b8c9061129d565b5050505050505050505050506120ca565b60ff915084015416155f61128b565b6020606492519162461bcd60e51b8352820152600f60248201526e098cadccee8d040dad2e6dac2e8c6d608b1b6044820152fd5b83833461022e57611416366117f5565b9460018060a09493941b0361143081600154163314611a33565b86169061143e821515611f67565b60085491828752600960205260058688208054151580611530575b61146290611fa1565b01926114716032855410611fdf565b8752600a6020526114858688208686611aa6565b91600583019081549060ff82166114fa575060ff1916600117905581546001600160a01b031916179055939492937f8d061afbca52698fe41de9d62735bed36e9df7431e20b1c6a1477aa1551cc6b8936114f4916114e6908590859061204a565b600854955193849384612092565b0390a280f35b60649060208a519162461bcd60e51b8352820152601060248201526f105b1c9958591e48185c1c1c9bdd995960821b6044820152fd5b508084015460ff1615611459565b8391503461022e578260031936011261022e57602435906001600160401b0382116102fc57366023830112156102fc578181013561157b81611797565b9261158886519485611776565b81845260209160248386019160051b8301019136831161161d57602401905b82821061160e5750507f00000000000000000000000000000000000000000000000000000000000000006001600160a01b0316915050338190036115f15750906109e5913561216b565b6044925084519163073e64fd60e21b835233908301526024820152fd5b813581529083019083016115a7565b8680fd5b50503461022e578160031936011261022e5760209051610fa08152f35b9050346102fc57826003193601126102fc57611658611a08565b600854835260096020528183209061167282541515611eaf565b80820192600184549361168860ff861615611eef565b61169860ff8660081c1615611f2d565b015442106116d557505060ff191660011790556008547fa664225dd6089d2e7eb155ed5dda4a608160b0dc0f6eb58d948171bc5bc813f58280a280f35b906020606492519162461bcd60e51b83528201526012602482015271526f756e64207374696c6c2061637469766560701b6044820152fd5b84903461022e578160031936011261022e576020907f00000000000000000000000000000000000000000000000000000000000000008152f35b608081019081106001600160401b0382111761176257604052565b634e487b7160e01b5f52604160045260245ffd5b90601f801991011681019081106001600160401b0382111761176257604052565b6001600160401b0381116117625760051b60200190565b9181601f840112156117db578235916001600160401b0383116117db57602083818601950101116117db57565b5f80fd5b600435906001600160a01b03821682036117db57565b60406003198201126117db57600435906001600160401b0382116117db5761181f916004016117ae565b90916024356001600160a01b03811681036117db5790565b9181601f840112156117db578235916001600160401b0383116117db576020808501948460051b0101116117db57565b5f5b8381106118785750505f910152565b8181015183820152602001611869565b906020916118a181518092818552858086019101611867565b601f01601f1916010190565b6001600160401b03811161176257601f01601f191660200190565b60206003198201126117db576004356001600160401b0381116117db57816023820112156117db578060040135906118ff826118ad565b9261190d6040519485611776565b828452602483830101116117db57815f92602460209301838601378301015290565b90600182811c9216801561195d575b602083101461194957565b634e487b7160e01b5f52602260045260245ffd5b91607f169161193e565b9060405191825f82549261197a8461192f565b9081845260019485811690815f146119e557506001146119a5575b50506119a392500383611776565b565b909391505f52602090815f20935f915b8183106119cd5750506119a393508201015f80611995565b855488840185015294850194879450918301916119b5565b9150506119a394506020925060ff191682840152151560051b8201015f80611995565b5f546001600160a01b03163303611a1b57565b60405163118cdaa760e01b8152336004820152602490fd5b15611a3a57565b60405162461bcd60e51b81526020600482015260096024820152682737ba1030b236b4b760b91b6044820152606490fd5b15611a7257565b60405162461bcd60e51b815260206004820152600c60248201526b5a65726f206164647265737360a01b6044820152606490fd5b6020919283604051948593843782019081520301902090565b9092916001600160401b03811161176257611ada825461192f565b601f8111611b7e575b505f601f8211600114611b1b57819293945f92611b10575b50508160011b915f199060031b1c1916179055565b013590505f80611afb565b601f198216948382526020918281209281905b888210611b6657505083600195969710611b4d575b505050811b019055565b01355f19600384901b60f8161c191690555f8080611b43565b80600184968294958701358155019501920190611b2e565b5f83815260208120601f840160051c81019260208510611bbb575b601f0160051c01915b828110611bb0575050611ae3565b818155600101611ba2565b9092508290611b99565b611bcd611a08565b6008545f9081526020906009825260409182822091611bee83541515611eaf565b60049283810190815490611c0560ff831615611eef565b611c1560ff8360081c1615611f2d565b60018101544210611e7a576005015415611e485761ff0019166101001790558351926001600160401b0360c0850181811186821017611e35578652838501868601906060870191608088019160a0890194606086527f00000000000000000000000000000000000000000000000000000000000000008a527f0000000000000000000000000000000000000000000000000000000000000000825260038352622625a08552600284528a5190606082019082821090821117611e22578b528a815263125fa26760e31b818a01528a810188905285528951634d8e1c2f60e11b81529586018890529751602486015296516044850152955161ffff1660648401525163ffffffff9081166084840152945190941660a4820152925160c060c4850152829084908190611d4a9060e4830190611888565b0381847f00000000000000000000000000000000000000000000000000000000000000006001600160a01b03165af1908115611e175780859192611dc2575b7fc6f253de430148d7581a940518a73a6d98efc85ea9162887a3918443ba67c2129450600854958184889352600c8652205551908152a2565b9293809250848092503d8311611e10575b611ddd8183611776565b8101031261022e57517fc6f253de430148d7581a940518a73a6d98efc85ea9162887a3918443ba67c21292918490611d89565b503d611dd3565b8451903d90823e3d90fd5b634e487b7160e01b895260418852602489fd5b634e487b7160e01b845260418352602484fd5b5050925162461bcd60e51b815291820152600b60248201526a4e6f2070726f66696c657360a81b604482015260649150fd5b865162461bcd60e51b8152808701869052600f60248201526e149bdd5b99081b9bdd08195b991959608a1b6044820152606490fd5b15611eb657565b60405162461bcd60e51b8152602060048201526011602482015270149bdd5b99081b9bdd081cdd185c9d1959607a1b6044820152606490fd5b15611ef657565b60405162461bcd60e51b815260206004820152600f60248201526e105b1c9958591e481cd95d1d1b1959608a1b6044820152606490fd5b15611f3457565b60405162461bcd60e51b815260206004820152600b60248201526a5652462070656e64696e6760a81b6044820152606490fd5b15611f6e57565b60405162461bcd60e51b815260206004820152600b60248201526a16995c9bc81dd85b1b195d60aa1b6044820152606490fd5b15611fa857565b60405162461bcd60e51b815260206004820152600f60248201526e139bc81858dd1a5d99481c9bdd5b99608a1b6044820152606490fd5b15611fe657565b60405162461bcd60e51b8152602060048201526013602482015272141c9bd99a5b194818d85c081c995858da1959606a1b6044820152606490fd5b8054821015612036575f5260205f2001905f90565b634e487b7160e01b5f52603260045260245ffd5b9190918054680100000000000000008110156117625761206f91600182018155612021565b92909261207f576119a392611abf565b634e487b7160e01b5f525f60045260245ffd5b918060609160209396959660408652816040870152838601375f828286010152601f80199101168301019360018060a01b0316910152565b5f1981146120d85760010190565b634e487b7160e01b5f52601160045260245ffd5b91908110156120365760051b0190565b356001600160a01b03811681036117db5790565b91908110156120365760051b81013590601e19813603018212156117db5701908135916001600160401b0383116117db5760200182360381136117db579190565b919082018092116120d857565b919082039182116120d857565b905f918252602060a052600c60a05152604060805260805182205490818352600960a051526080518320926004918285019081549160ff8360081c1615612797576001809361ffff191617905560058601918254918215801561278b575b6127815780511561276e5760029060a0510151970154801561275b576060610100529196919091069083805b88821061266c575b505050505090918093508152600a60a051526080518120906080515161010051519260a051610100510193612233818487611867565b82019081528160a05191030190209160028301546101405261014051159081801561265a575b612652576023610140510261014051810460231483171561263f576064900491600a610140510261012052610140516101205104600a14171561262c576122c66122b28792608051519182916101005151928391611867565b8101600781528160a0519103019020611967565b805180156126255760805151906122e2818360a0518601611867565b600690820190815260a05190829003019020546001600160a01b03165b6001600160a01b0360c081905285908216156125fc57506123b960646101205104946123926123428761233d8161233d8661233d816101405161215e565b61215e565b915b7f000000000000000000000000000000000000000000000000000000000000000060e05261237a8160c0518c541660e0516127cf565b60c05160038b01541680156125f0575b60e0516127cf565b6123ab6064610120510460c0516003541660e0516127cf565b60c05189541660e0516127cf565b8361258e575b5050505060c0516005541680612500575b5060805151926370a0823160e01b8452309084015260a0518360248160c05160e051165afa9081156124f357906124a1575b7fabf0728119ba3c53309b0f987eda834ecf31e54dfaeec92465c1512c5eb9c2b9925080612462575b5060c0519054166080515180916060825261244c6060830161010051611888565b9060a051830152610140516080518301520390a2565b61249b90608051519063a9059cbb60e01b60a05183015261dead602483015260448201526044815261249381611747565b60e051612808565b5f61242b565b5060a0513d81116124ec575b6124b78184611776565b8260a05191810103126117db577fabf0728119ba3c53309b0f987eda834ecf31e54dfaeec92465c1512c5eb9c2b99151612402565b503d6124ad565b60805151903d90823e3d90fd5b60c051835416813b156102fc578290608051519283916304546bd560e11b835287830152876024830152608060448301528183816125446084820161010051611888565b670de0b6b3a764000061014051046064830152039262030d40f1156123d0576001600160401b03811161257b57608051525f6123d0565b634e487b7160e01b825260418452602482fd5b7f1fdaf9e270dd288f02596ed65fa57029f29b68ec99c2e5790a4b0a2900447f7891816125c1866125d89460e0516127cf565b608051519283926080518452608051840190611888565b9560a05183015260c05116940390a35f8481806123bf565b5060c0518a541661238a565b936123b99061239261261f6064610120510461233d8461233d816101405161215e565b91612344565b50836122ff565b634e487b7160e01b835260118552602483fd5b634e487b7160e01b845260118652602484fd5b505050505050565b5083546001600160a01b031615612259565b878652600a60a05152608051862090836126868488612021565b506080515190899080549061269a8261192f565b91858116908115612742575060011461270a575b50506126c79481528160a0519103019020015490612151565b908184106126de576126d8906120ca565b906121f5565b925050506126f992939495506126f391612021565b50611967565b610100529082915f808080806121fd565b8b5260a0518b209591508a5b81811061272c575090945081016126c75f6126ae565b86548482015260a0519690940195889401612716565b60ff19168552505080151502820190506126c75f6126ae565b634e487b7160e01b855260128652602485fd5b634e487b7160e01b855260328652602485fd5b5050505050505050565b506002880154156121c9565b6080515162461bcd60e51b815260a05181870152600f60248201526e4e6f74205652462070656e64696e6760881b6044820152606490fd5b60405163a9059cbb60e01b60208201526001600160a01b0390921660248301526044808301939093529181526119a39161280882611747565b5f8080928451908260208097019160018060a01b03165af13d15612903573d90612831826118ad565b9161283f6040519384611776565b82523d838584013e5b156128c55780518061285b575b50505050565b8184918101031261022e578201519081159182150361052d575061288157808080612855565b6064906040519062461bcd60e51b82526004820152601a60248201527f5361666545524332303a207472616e73666572206661696c65640000000000006044820152fd5b60405162461bcd60e51b815260048101849052601660248201527514d85999515490cc8c0e8818d85b1b0819985a5b195960521b6044820152606490fd5b606090612848565b60025460405163a8a82fd760e01b81526001600160a01b0392831660048083018290529093602493919291602091839186918391165afa5f9181612a6d575b50612979575050507f32e643d797f24a2bb73f47cdb5c26e93d91c5a6f19d2611ae8a8663699f59a7c5f80a290565b9091925060058114612a4f57818114612a325760038114612a1557600281146129f857600181146129db57156129ae57505090565b606e830292808404606e14901517156129ca5750506064900490565b601190634e487b7160e01b5f52525ffd5b50607d830292808404607d14901517156129ca5750506064900490565b506096830292808404609614901517156129ca5750506064900490565b5060af83029280840460af14901517156129ca5750506064900490565b5060c883029280840460c814901517156129ca5750506064900490565b5061012c928381029381850414901517156129ca5750506064900490565b90916020823d8211612a98575b81612a8760209383611776565b8101031261052d575051905f61294a565b3d9150612a7a56fea264697066735822122043688d232f0dee2920d13ddfeb67b39ced6a16b8f85b5d6a45a930af27121f1b64736f6c63430008140033","linkReferences":{}},"methodIdentifiers":{"CALLBACK_GAS_LIMIT()":"33d608f1","MAX_PROFILES_PER_ROUND()":"de926dd6","MAX_VOTE_CAP_BPS()":"1770cc8e","MIN_VOTE()":"2efab6fa","NUM_WORDS()":"72cf6e34","REQUEST_CONFIRMATIONS()":"67f082b0","admin()":"f851a440","adminResetSettlement(uint256)":"827ae5e1","approveProfile(string,address)":"24016aae","batchApproveProfiles(string[],address[])":"24e2371b","charityWallet()":"7b208769","clubWallets(string)":"f2fac627","currentRoundId()":"9cbe5efd","getProfile(uint256,string)":"d6ca8383","getProfiles(uint256)":"3bf990e5","getRound(uint256)":"8f1327c0","getVoterAmount(uint256,string,address)":"e33a89c2","houseWallet()":"77818f02","keyHash()":"61728f39","midpointSnapshot()":"5fe00dc7","minProfilesPerRound()":"960ff419","nftContract()":"d56d229d","owner()":"8da5cb5b","profileClub(string)":"4346e4ea","rawFulfillRandomWords(uint256,uint256[])":"1fe543e3","renounceOwnership()":"715018a6","requestSettlement()":"93b2a651","rolloverRound()":"10947a33","setCharityWallet(address)":"30563bd7","setClubWallet(string,address)":"9fb6866b","setHouseWallet(address)":"35d4de51","setNFTContract(address)":"a7ccabdf","setProfileClub(string,string)":"42600f96","setStakingContract(address)":"9dd373b9","settleRound()":"6ffbfaa8","stakingContract()":"ee99205c","startRound()":"55e3f086","startRound(uint256)":"5fc3d52d","subscriptionId()":"09c1ba2e","takeMidpointSnapshot()":"2e52ce16","transferAdmin(address)":"75829def","transferOwnership(address)":"f2fde38b","ttsToken()":"f75edc8c","vote(string,uint256)":"a6385803"},"id":0}