{"abi":[{"type":"constructor","inputs":[{"name":"_ttsToken","type":"address","internalType":"address"},{"name":"vrfCoordinator_","type":"address","internalType":"address"},{"name":"_keyHash","type":"bytes32","internalType":"bytes32"},{"name":"_subscriptionId","type":"uint256","internalType":"uint256"},{"name":"_stakingContract","type":"address","internalType":"address"},{"name":"_charityWallet","type":"address","internalType":"address"},{"name":"_houseWallet","type":"address","internalType":"address"}],"stateMutability":"nonpayable"},{"type":"function","name":"CALLBACK_GAS_LIMIT","inputs":[],"outputs":[{"name":"","type":"uint32","internalType":"uint32"}],"stateMutability":"view"},{"type":"function","name":"MAX_VOTE_CAP_BPS","inputs":[],"outputs":[{"name":"","type":"uint256","internalType":"uint256"}],"stateMutability":"view"},{"type":"function","name":"MIN_VOTE","inputs":[],"outputs":[{"name":"","type":"uint256","internalType":"uint256"}],"stateMutability":"view"},{"type":"function","name":"NUM_WORDS","inputs":[],"outputs":[{"name":"","type":"uint32","internalType":"uint32"}],"stateMutability":"view"},{"type":"function","name":"REQUEST_CONFIRMATIONS","inputs":[],"outputs":[{"name":"","type":"uint16","internalType":"uint16"}],"stateMutability":"view"},{"type":"function","name":"admin","inputs":[],"outputs":[{"name":"","type":"address","internalType":"address"}],"stateMutability":"view"},{"type":"function","name":"approveProfile","inputs":[{"name":"profileId","type":"string","internalType":"string"},{"name":"wallet","type":"address","internalType":"address"}],"outputs":[],"stateMutability":"nonpayable"},{"type":"function","name":"batchApproveProfiles","inputs":[{"name":"profileIds","type":"string[]","internalType":"string[]"},{"name":"wallets","type":"address[]","internalType":"address[]"}],"outputs":[],"stateMutability":"nonpayable"},{"type":"function","name":"charityWallet","inputs":[],"outputs":[{"name":"","type":"address","internalType":"address"}],"stateMutability":"view"},{"type":"function","name":"currentRoundId","inputs":[],"outputs":[{"name":"","type":"uint256","internalType":"uint256"}],"stateMutability":"view"},{"type":"function","name":"getProfile","inputs":[{"name":"roundId","type":"uint256","internalType":"uint256"},{"name":"profileId","type":"string","internalType":"string"}],"outputs":[{"name":"wallet","type":"address","internalType":"address"},{"name":"totalTickets","type":"uint256","internalType":"uint256"},{"name":"rawVotes","type":"uint256","internalType":"uint256"},{"name":"topVoter","type":"address","internalType":"address"},{"name":"approved","type":"bool","internalType":"bool"}],"stateMutability":"view"},{"type":"function","name":"getRound","inputs":[{"name":"roundId","type":"uint256","internalType":"uint256"}],"outputs":[{"name":"startTime","type":"uint256","internalType":"uint256"},{"name":"endTime","type":"uint256","internalType":"uint256"},{"name":"totalTickets","type":"uint256","internalType":"uint256"},{"name":"totalRawVotes","type":"uint256","internalType":"uint256"},{"name":"settled","type":"bool","internalType":"bool"},{"name":"vrfPending","type":"bool","internalType":"bool"},{"name":"profileCount","type":"uint256","internalType":"uint256"}],"stateMutability":"view"},{"type":"function","name":"getVoterAmount","inputs":[{"name":"roundId","type":"uint256","internalType":"uint256"},{"name":"profileId","type":"string","internalType":"string"},{"name":"voter","type":"address","internalType":"address"}],"outputs":[{"name":"","type":"uint256","internalType":"uint256"}],"stateMutability":"view"},{"type":"function","name":"houseWallet","inputs":[],"outputs":[{"name":"","type":"address","internalType":"address"}],"stateMutability":"view"},{"type":"function","name":"keyHash","inputs":[],"outputs":[{"name":"","type":"bytes32","internalType":"bytes32"}],"stateMutability":"view"},{"type":"function","name":"midpointSnapshot","inputs":[],"outputs":[],"stateMutability":"nonpayable"},{"type":"function","name":"owner","inputs":[],"outputs":[{"name":"","type":"address","internalType":"address"}],"stateMutability":"view"},{"type":"function","name":"rawFulfillRandomWords","inputs":[{"name":"requestId","type":"uint256","internalType":"uint256"},{"name":"randomWords","type":"uint256[]","internalType":"uint256[]"}],"outputs":[],"stateMutability":"nonpayable"},{"type":"function","name":"renounceOwnership","inputs":[],"outputs":[],"stateMutability":"nonpayable"},{"type":"function","name":"setCharityWallet","inputs":[{"name":"_charity","type":"address","internalType":"address"}],"outputs":[],"stateMutability":"nonpayable"},{"type":"function","name":"setHouseWallet","inputs":[{"name":"_house","type":"address","internalType":"address"}],"outputs":[],"stateMutability":"nonpayable"},{"type":"function","name":"setStakingContract","inputs":[{"name":"_staking","type":"address","internalType":"address"}],"outputs":[],"stateMutability":"nonpayable"},{"type":"function","name":"settleRound","inputs":[],"outputs":[],"stateMutability":"nonpayable"},{"type":"function","name":"stakingContract","inputs":[],"outputs":[{"name":"","type":"address","internalType":"contract IStaking"}],"stateMutability":"view"},{"type":"function","name":"startRound","inputs":[],"outputs":[],"stateMutability":"nonpayable"},{"type":"function","name":"startRound","inputs":[{"name":"duration","type":"uint256","internalType":"uint256"}],"outputs":[],"stateMutability":"nonpayable"},{"type":"function","name":"subscriptionId","inputs":[],"outputs":[{"name":"","type":"uint256","internalType":"uint256"}],"stateMutability":"view"},{"type":"function","name":"transferAdmin","inputs":[{"name":"newAdmin","type":"address","internalType":"address"}],"outputs":[],"stateMutability":"nonpayable"},{"type":"function","name":"transferOwnership","inputs":[{"name":"newOwner","type":"address","internalType":"address"}],"outputs":[],"stateMutability":"nonpayable"},{"type":"function","name":"ttsToken","inputs":[],"outputs":[{"name":"","type":"address","internalType":"contract IERC20"}],"stateMutability":"view"},{"type":"function","name":"vote","inputs":[{"name":"profileId","type":"string","internalType":"string"},{"name":"amount","type":"uint256","internalType":"uint256"}],"outputs":[],"stateMutability":"nonpayable"},{"type":"event","name":"AdminTransferred","inputs":[{"name":"previous","type":"address","indexed":true,"internalType":"address"},{"name":"next","type":"address","indexed":true,"internalType":"address"}],"anonymous":false},{"type":"event","name":"OwnershipTransferred","inputs":[{"name":"previousOwner","type":"address","indexed":true,"internalType":"address"},{"name":"newOwner","type":"address","indexed":true,"internalType":"address"}],"anonymous":false},{"type":"event","name":"ProfileApproved","inputs":[{"name":"roundId","type":"uint256","indexed":true,"internalType":"uint256"},{"name":"profileId","type":"string","indexed":false,"internalType":"string"},{"name":"wallet","type":"address","indexed":false,"internalType":"address"}],"anonymous":false},{"type":"event","name":"RoundSettled","inputs":[{"name":"roundId","type":"uint256","indexed":true,"internalType":"uint256"},{"name":"winnerProfileId","type":"string","indexed":false,"internalType":"string"},{"name":"winnerWallet","type":"address","indexed":false,"internalType":"address"},{"name":"pool","type":"uint256","indexed":false,"internalType":"uint256"}],"anonymous":false},{"type":"event","name":"RoundStarted","inputs":[{"name":"roundId","type":"uint256","indexed":true,"internalType":"uint256"},{"name":"startTime","type":"uint256","indexed":false,"internalType":"uint256"},{"name":"endTime","type":"uint256","indexed":false,"internalType":"uint256"}],"anonymous":false},{"type":"event","name":"VRFRequested","inputs":[{"name":"roundId","type":"uint256","indexed":true,"internalType":"uint256"},{"name":"requestId","type":"uint256","indexed":false,"internalType":"uint256"}],"anonymous":false},{"type":"event","name":"Voted","inputs":[{"name":"roundId","type":"uint256","indexed":true,"internalType":"uint256"},{"name":"profileId","type":"string","indexed":true,"internalType":"string"},{"name":"voter","type":"address","indexed":false,"internalType":"address"},{"name":"amount","type":"uint256","indexed":false,"internalType":"uint256"},{"name":"tickets","type":"uint256","indexed":false,"internalType":"uint256"}],"anonymous":false},{"type":"error","name":"OnlyCoordinatorCanFulfill","inputs":[{"name":"have","type":"address","internalType":"address"},{"name":"want","type":"address","internalType":"address"}]},{"type":"error","name":"OwnableInvalidOwner","inputs":[{"name":"owner_","type":"address","internalType":"address"}]},{"type":"error","name":"OwnableUnauthorizedAccount","inputs":[{"name":"account","type":"address","internalType":"address"}]}],"bytecode":{"object":"0x610120346200019157601f6200230438819003918201601f19168301916001600160401b03831184841017620001955780849260e09460405283398101031262000191576200004e81620001a9565b6200005c60208301620001a9565b906040830151916060840151936200007760808201620001a9565b926200009460c06200008c60a08501620001a9565b9301620001a9565b91331562000179575f5460018060a01b03199533878316175f556040519760018060a01b0380978180978196823391167f8be0079c531659141344cd1fd0a4f28419497f9722a3daafe3b4186f6b6457e05f80a382608052338c60015416176001551660a0521660c05260e0526101009889521685600254161760025516836003541617600355169060045416176004556121459182620001bf833960805182611407015260a0518281816101b6015281816104b80152611a8f015260c05182610b34015260e051828181610a510152610d5d015251818181610a7401526114b90152f35b604051631e4fbdf760e01b81525f6004820152602490fd5b5f80fd5b634e487b7160e01b5f52604160045260245ffd5b51906001600160a01b0382168203620001915756fe6080604081815260049182361015610015575f80fd5b5f92833560e01c91826309c1ba2e146114a2575081631770cc8e146114855781631fe543e31461139057816324016aae1461123f57816324e2371b1461105b5781632efab6fa1461103857816330563bd714610fdd57816333d608f114610fbf57816335d4de5114610f6c57816355e3f08614610e7a5781635fc3d52d14610d9c5781635fe00dc714610d8057816361728f3914610d4557816367f082b014610d295781636ffbfaa8146109b0578163715018a61461095657816372cf6e341461093a57816375829def146108c357816377818f021461089b5781637b208769146108725781638da5cb5b1461084a5781638f1327c0146107da5781639cbe5efd146107bb5781639dd373b914610768578163a6385803146103a0578163d6ca838314610312578163e33a89c214610299578163ee99205c14610270578163f2fde38b146101e557508063f75edc8c146101a25763f851a44014610177575f80fd5b3461019e578160031936011261019e5760015490516001600160a01b039091168152602090f35b5080fd5b503461019e578160031936011261019e57517f00000000000000000000000000000000000000000000000000000000000000006001600160a01b03168152602090f35b90503461026c57602036600319011261026c57610200611544565b9061020961158b565b6001600160a01b0391821692831561025657505082546001600160a01b0319811683178455167f8be0079c531659141344cd1fd0a4f28419497f9722a3daafe3b4186f6b6457e08380a380f35b51631e4fbdf760e01b8152908101849052602490fd5b8280fd5b50503461019e578160031936011261019e5760025490516001600160a01b039091168152602090f35b90503461026c57606036600319011261026c5760243567ffffffffffffffff811161030e576102cb9036908301611512565b6044356001600160a01b038116939084900361030a57602095928594926102fc923585526008885285852091611667565b908252845220549051908152f35b8580fd5b8380fd5b90503461026c578160031936011261026c5760243567ffffffffffffffff811161030e579060a0938361034b61035d9436908501611512565b92909335815260076020522091611667565b90600180841b0391828154169260018201549260ff6005600285015493600386015416940154169381519586526020860152840152606083015215156080820152f35b9190503461026c578060031936011261026c57813567ffffffffffffffff811161030e576103d19036908401611512565b909160249182359460055493848852602094600686528489209081548015158061075a575b6103ff90611629565b4210158061074c575b1561071757674563918244f4000089106106e55789526007865261042f858a208589611667565b9160ff600584015416156106ad576002830161044c8a82546118e7565b91600384019261045d8c85546118e7565b906127109081810291818304149015171561069b57610fa09182810292818404149015171561069b5711610667578b898c60648b51809481936323b872dd60e01b8352338d8401523088840152604483015260018060a01b037f0000000000000000000000000000000000000000000000000000000000000000165af190811561065d578d91610630575b50156105fd57509260027fb44b499827de3c0d29f0a7c52813bfb08522a61d971fabccf87ad89bddab0db99896938b96936060999661053261052a8a33611fa2565b9982546118e7565b9055600184016105438982546118e7565b90556105508d82546118e7565b90550161055e8682546118e7565b90556005548b5260088652610576848c20848b611667565b338c528652838b206105898b82546118e7565b90556005548b52600886526105a1848c20848b611667565b338c528652838b205491810191825481116105df575b50505060055496818351928392833781018a815203902096815193338552840152820152a380f35b90915560030180546001600160a01b031916331790555f80806105b7565b85600f6064928b8b519362461bcd60e51b85528401528201526e151c985b9cd9995c8819985a5b1959608a1b6044820152fd5b61065091508a3d8c11610656575b61064881836114dc565b810190611947565b5f6104e8565b503d61063e565b89513d8f823e3d90fd5b8560106064928b8b519362461bcd60e51b85528401528201526f04578636565647320766f7465206361760841b6044820152fd5b634e487b7160e01b8e5260118852828efd5b8360146064928989519362461bcd60e51b855284015282015273141c9bd99a5b19481b9bdd08185c1c1c9bdd995960621b6044820152fd5b855162461bcd60e51b8152808501889052600d818501526c42656c6f77206d696e696d756d60981b6044820152606490fd5b855162461bcd60e51b81528085018890526010818501526f526f756e64206e6f742061637469766560801b6044820152606490fd5b506001820154421115610408565b508285015460ff16156103f6565b83346107b85760203660031901126107b857610782611544565b6001546001600160a01b03919061079c90831633146115b6565b166bffffffffffffffffffffffff60a01b600254161760025580f35b80fd5b50503461019e578160031936011261019e576020906005549051908152f35b9190503461026c57602036600319011261026c5760ff8160e094843581526006602052208054936001820154936002830154906005600385015493850154940154958151978852602088015286015260608501528181161515608085015260081c16151560a083015260c0820152f35b50503461019e578160031936011261019e57905490516001600160a01b039091168152602090f35b50503461019e578160031936011261019e5760035490516001600160a01b039091168152602090f35b90503461026c578260031936011261026c575490516001600160a01b03909116815260209150f35b83346107b85760203660031901126107b8576108dd611544565b6001546001600160a01b03808216926108f73385146115b6565b1680926109058215156115ee565b7ff8ccb027dfcd135e000e9d45e6cc2d662578a8825d4c45b5e32e0adf67e79ec68580a36001600160a01b0319161760015580f35b50503461019e578160031936011261019e576020905160028152f35b83346107b857806003193601126107b85761096f61158b565b80546001600160a01b03198116825581906001600160a01b03167f8be0079c531659141344cd1fd0a4f28419497f9722a3daafe3b4186f6b6457e08280a380f35b90503461026c578260031936011261026c576109ca61158b565b6005548352602060068152828420805415610cf4578281019081549060ff8216610cbe5760ff8260081c16610c8c5760018101544210610c56576005015415610c265761ff00191661010017905582519167ffffffffffffffff60c0840181811185821017610c13578552828401858501906060860191608087019160a0880194606086527f000000000000000000000000000000000000000000000000000000000000000089527f00000000000000000000000000000000000000000000000000000000000000008252600383526207a120855260028452895190606082019082821090821117610c00578a5289815263125fa26760e31b818901528981018b905285528851634d8e1c2f60e11b81529586018790529651602486015295516044850152945161ffff1660648401525163ffffffff9081166084840152935190931660a4820152915160c060c4840152819083908190610b2f9060e4830190611915565b0381877f00000000000000000000000000000000000000000000000000000000000000006001600160a01b03165af18015610bf3578490610ba6575b7fc6f253de430148d7581a940518a73a6d98efc85ea9162887a3918443ba67c21292506005549381865260098352848187205551908152a280f35b508082813d8311610bec575b610bbc81836114dc565b8101031261030e577fc6f253de430148d7581a940518a73a6d98efc85ea9162887a3918443ba67c2129151610b6b565b503d610bb2565b50505051903d90823e3d90fd5b634e487b7160e01b8c526041885260248cfd5b634e487b7160e01b875260418352602487fd5b5050606492519162461bcd60e51b8352820152600b60248201526a4e6f2070726f66696c657360a81b6044820152fd5b5050925162461bcd60e51b815291820152600f60248201526e149bdd5b99081b9bdd08195b991959608a1b604482015260649150fd5b5050925162461bcd60e51b815291820152600b60248201526a5652462070656e64696e6760a81b604482015260649150fd5b5050925162461bcd60e51b815291820152600f60248201526e105b1c9958591e481cd95d1d1b1959608a1b604482015260649150fd5b50606492519162461bcd60e51b83528201526011602482015270149bdd5b99081b9bdd081cdd185c9d1959607a1b6044820152fd5b50503461019e578160031936011261019e576020905160038152f35b50503461019e578160031936011261019e57602090517f00000000000000000000000000000000000000000000000000000000000000008152f35b83346107b857806003193601126107b857610d9961158b565b80f35b90503461026c57602036600319011261026c57610db761158b565b60055480610e22575b917fa359b664a68acd8839e42112eb50eff3408165e15074fde89ddb58a0db2e691d91610dee60019461185f565b8060055585526006602052610e0a8286209142835535426118e7565b9384910155600554928151904282526020820152a280f35b808452600660205260ff82848620015416610dc057506020606492519162461bcd60e51b8352820152601a60248201527f50726576696f757320726f756e64206e6f7420736574746c65640000000000006044820152fd5b83833461019e578160031936011261019e57610e9461158b565b60055480610f14575b610ea69061185f565b80600555825260066020528082209042825562093a80420191824211610f0157908260017fa359b664a68acd8839e42112eb50eff3408165e15074fde89ddb58a0db2e691d930155600554928151904282526020820152a280f35b634e487b7160e01b845260118552602484fd5b808352600660205260ff84838520015416610e9d57815162461bcd60e51b8152602081860152601a60248201527f50726576696f757320726f756e64206e6f7420736574746c65640000000000006044820152606490fd5b83903461019e57602036600319011261019e57610f87611544565b6001546001600160a01b039190610fa190831633146115b6565b16610fad8115156115ee565b81546001600160a01b03191617905580f35b50503461019e578160031936011261019e57602090516207a1208152f35b83346107b85760203660031901126107b857610ff7611544565b6001546001600160a01b03919061101190831633146115b6565b1661101d8115156115ee565b6bffffffffffffffffffffffff60a01b600354161760035580f35b50503461019e578160031936011261019e5760209051674563918244f400008152f35b9190503461026c578060031936011261026c5767ffffffffffffffff90823582811161123b5761108e903690850161155a565b91909260243590811161030a576110a8903690860161155a565b9160018060a01b03906001946110c28387541633146115b6565b8481036112065760059081548a52602093600685526110f2848c209a8b54151590816111f7575b509a959a611629565b8a83819601955b838110611104575080f35b8a8a8a8a8f8988876111338f948f838f92916111df9e600761112d948a5483525220928c611881565b90611667565b838101908d82549560ff87166111e6576111bd6111d7986111b7878f7f8d061afbca52698fe41de9d62735bed36e9df7431e20b1c6a1477aa1551cc6b89f908f988f9c6111a16111cc9f61119c9f879d6111c49f9189928f9961119c9560ff19161790556118c3565b6118d3565b82546001600160a01b0319169116179055611881565b916116e1565b549a611881565b9690956118c3565b8b5193849384611827565b0390a261185f565b8b906110f9565b50505050505050505050505061185f565b60ff91508c015416155f6110e9565b815162461bcd60e51b81526020818a0152600f60248201526e098cadccee8d040dad2e6dac2e8c6d608b1b6044820152606490fd5b8480fd5b83833461019e578060031936011261019e57823567ffffffffffffffff811161026c5761126f9036908501611512565b602435949091906001600160a01b03808716919082880361138c57611299906001541633146115b6565b60055491828752600660205285872092835415158061137e575b6112bc90611629565b875260076020526112d08688208686611667565b91600583019081549060ff8216611348575060ff1916600117905581546001600160a01b031916179055939492937f8d061afbca52698fe41de9d62735bed36e9df7431e20b1c6a1477aa1551cc6b8936113429161133490859085906005016116e1565b600554955193849384611827565b0390a280f35b60649060208a519162461bcd60e51b8352820152601060248201526f105b1c9958591e48185c1c1c9bdd995960821b6044820152fd5b508383015460ff16156112b3565b8680fd5b8391503461019e578260031936011261019e576024359067ffffffffffffffff80831161030e573660238401121561030e5782820135908111611472578060051b928551936020926113e4848301876114dc565b85526024838601918301019136831161138c57602401905b8282106114635750507f00000000000000000000000000000000000000000000000000000000000000006001600160a01b031691505033819003611446575090610d99913561195f565b6044925084519163073e64fd60e21b835233908301526024820152fd5b813581529083019083016113fc565b634e487b7160e01b845260418252602484fd5b50503461019e578160031936011261019e5760209051610fa08152f35b84903461019e578160031936011261019e576020907f00000000000000000000000000000000000000000000000000000000000000008152f35b90601f8019910116810190811067ffffffffffffffff8211176114fe57604052565b634e487b7160e01b5f52604160045260245ffd5b9181601f840112156115405782359167ffffffffffffffff8311611540576020838186019501011161154057565b5f80fd5b600435906001600160a01b038216820361154057565b9181601f840112156115405782359167ffffffffffffffff8311611540576020808501948460051b01011161154057565b5f546001600160a01b0316330361159e57565b60405163118cdaa760e01b8152336004820152602490fd5b156115bd57565b60405162461bcd60e51b81526020600482015260096024820152682737ba1030b236b4b760b91b6044820152606490fd5b156115f557565b60405162461bcd60e51b815260206004820152600c60248201526b5a65726f206164647265737360a01b6044820152606490fd5b1561163057565b60405162461bcd60e51b815260206004820152600f60248201526e139bc81858dd1a5d99481c9bdd5b99608a1b6044820152606490fd5b6020919283604051948593843782019081520301902090565b8054821015611695575f5260205f2001905f90565b634e487b7160e01b5f52603260045260245ffd5b90600182811c921680156116d7575b60208310146116c357565b634e487b7160e01b5f52602260045260245ffd5b91607f16916116b8565b90918154680100000000000000008110156114fe57611707906001938482018155611680565b9390936118145767ffffffffffffffff82116114fe5761172784546116a9565b601f81116117ca575b505f90601f8311600114611768579282939183925f9461175d575b50501b915f199060031b1c1916179055565b013592505f8061174b565b601f19831691858152836020938483209483905b888383106117b05750505010611797575b505050811b019055565b01355f19600384901b60f8161c191690555f808061178d565b86860135885590960195938401938793509081019061177c565b5f85815260208120601f850160051c8101926020861061180a575b601f0160051c019185905b8381106117ff57505050611730565b8281550185906117f0565b90925082906117e5565b634e487b7160e01b5f525f60045260245ffd5b918060609160209396959660408652816040870152838601375f828286010152601f80199101168301019360018060a01b0316910152565b5f19811461186d5760010190565b634e487b7160e01b5f52601160045260245ffd5b91908110156116955760051b81013590601e198136030182121561154057019081359167ffffffffffffffff8311611540576020018236038113611540579190565b91908110156116955760051b0190565b356001600160a01b03811681036115405790565b9190820180921161186d57565b5f5b8381106119055750505f910152565b81810151838201526020016118f6565b9060209161192e815180928185528580860191016118f4565b601f01601f1916010190565b9190820391821161186d57565b90816020910312611540575180151581036115405790565b905f9182526020600981526040928381205493848252600683528082209360049081860180549060ff8260081c1615611f6d576001809261ffff191617905560058088019788549384158015611f61575b611f5457805115611f4157886002910151910154908115611f2e5760609991900687805b868210611dba575b505050505050508583526007845281832084835180928851611a018184868d016118f4565b820190815203019020600281015493841592838015611da8575b611d9d5760288602868104602814851715611d8a576064900493600a870290878204600a141715611d8a576064900493611a6285611a5d83611a5d818c61193a565b61193a565b8454875163a9059cbb60e01b8082526001600160a01b0392831686830190815260208101869052929890947f00000000000000000000000000000000000000000000000000000000000000008a169493919290918d908290819060400103818b895af18015611d8057918d91611b1193611d63575b5060038a01548b168015611d59575b8c518881526001600160a01b0390911689820190815260208101929092529283918291604090910190565b03818a885af18015611d4f57918c91611b5693611d32575b5089600354168b5193849283928984528a840160209093929193604081019460018060a01b031681520152565b038189875af18015611d2857918b91611b9a93611d0b575b50888654168a51938492839288845289840160209093929193604081019460018060a01b031681520152565b038188865af18015611ce457611cee575b5086516370a0823160e01b815230848201528981602481855afa908115611ce4578591611cb7575b5080611c2a575b5050505050917fabf0728119ba3c53309b0f987eda834ecf31e54dfaeec92465c1512c5eb9c2b9959391611c1e959354168151958695606087526060870190611915565b938501528301520390a2565b89928561dead9695936044938b519889968795865285015260248401525af1908115611cac5750917fabf0728119ba3c53309b0f987eda834ecf31e54dfaeec92465c1512c5eb9c2b997959391611c1e979593611c8f575b8294969882949698611bda565b611ca590863d88116106565761064881836114dc565b505f611c82565b8551903d90823e3d90fd5b90508981813d8311611cdd575b611cce81836114dc565b8101031261123b57515f611bd3565b503d611cc4565b88513d87823e3d90fd5b611d04908a3d8c116106565761064881836114dc565b505f611bab565b611d2190833d85116106565761064881836114dc565b505f611b6e565b89513d88823e3d90fd5b611d4890833d85116106565761064881836114dc565b505f611b29565b8a513d89823e3d90fd5b508a8a5416611ae6565b611d7990833d85116106565761064881836114dc565b505f611ad7565b8b513d8a823e3d90fd5b634e487b7160e01b835260118252602483fd5b505050505050505050565b5082546001600160a01b031615611a1b565b8c8a5260078b52888a20611dce8386611680565b508a51918d8d9280548b611de1826116a9565b93828216928315611f1357505050600114611edd575b505081528190038c019020860154611e0e916118e7565b90818310611e2557611e1f9061185f565b906119d4565b9395505050611e3692949850611680565b509183519283918691805489611e4b826116a9565b80875296828516928315611ebb57505050600114611e7f575b5050611e72925003826114dc565b935f8080808080806119dc565b88925087528187209087915b858310611ea3575050611e7293508201015f80611e64565b80548388018501528694508993909201918101611e8b565b60ff191687830152611e72971515901b86010193505f9250829150611e649050565b909192509e9f9e8d528d8d208d905b828210611f0257509e9f9e508201908d83611df7565b805485830152908f01908a01611eec565b60ff1916885284151590940287019550869250611df7915050565b634e487b7160e01b885260128652602488fd5b634e487b7160e01b885260328652602488fd5b5050505050505050505050565b506002820154156119b0565b845162461bcd60e51b8152808501889052600f60248201526e4e6f74205652462070656e64696e6760881b6044820152606490fd5b60025460405163a8a82fd760e01b81526001600160a01b039283166004808301919091526024939092602091839186918391165afa5f91816120dc575b50611feb575b50505090565b600581146120be578181146120a157600381146120845760028114612067576001811461204a571561201d5780611fe5565b606e830292808404606e14901517156120395750506064900490565b601190634e487b7160e01b5f52525ffd5b50607d830292808404607d14901517156120395750506064900490565b506096830292808404609614901517156120395750506064900490565b5060af83029280840460af14901517156120395750506064900490565b5060c883029280840460c814901517156120395750506064900490565b5061012c928381029381850414901517156120395750506064900490565b90916020823d8211612107575b816120f6602093836114dc565b810103126107b8575051905f611fdf565b3d91506120e956fea2646970667358221220a36e22d0ad1c7b11662b6fd1010f2b898e9c4a5c77d3b8c14514a47dc12dac0d64736f6c63430008140033","linkReferences":{}},"methodIdentifiers":{"CALLBACK_GAS_LIMIT()":"33d608f1","MAX_VOTE_CAP_BPS()":"1770cc8e","MIN_VOTE()":"2efab6fa","NUM_WORDS()":"72cf6e34","REQUEST_CONFIRMATIONS()":"67f082b0","admin()":"f851a440","approveProfile(string,address)":"24016aae","batchApproveProfiles(string[],address[])":"24e2371b","charityWallet()":"7b208769","currentRoundId()":"9cbe5efd","getProfile(uint256,string)":"d6ca8383","getRound(uint256)":"8f1327c0","getVoterAmount(uint256,string,address)":"e33a89c2","houseWallet()":"77818f02","keyHash()":"61728f39","midpointSnapshot()":"5fe00dc7","owner()":"8da5cb5b","rawFulfillRandomWords(uint256,uint256[])":"1fe543e3","renounceOwnership()":"715018a6","setCharityWallet(address)":"30563bd7","setHouseWallet(address)":"35d4de51","setStakingContract(address)":"9dd373b9","settleRound()":"6ffbfaa8","stakingContract()":"ee99205c","startRound()":"55e3f086","startRound(uint256)":"5fc3d52d","subscriptionId()":"09c1ba2e","transferAdmin(address)":"75829def","transferOwnership(address)":"f2fde38b","ttsToken()":"f75edc8c","vote(string,uint256)":"a6385803"},"id":2}