{"abi":[{"type":"constructor","inputs":[{"name":"_ttsToken","type":"address","internalType":"address"},{"name":"vrfCoordinator_","type":"address","internalType":"address"},{"name":"_keyHash","type":"bytes32","internalType":"bytes32"},{"name":"_subscriptionId","type":"uint256","internalType":"uint256"},{"name":"_stakingContract","type":"address","internalType":"address"},{"name":"_charityWallet","type":"address","internalType":"address"},{"name":"_houseWallet","type":"address","internalType":"address"}],"stateMutability":"nonpayable"},{"type":"function","name":"CALLBACK_GAS_LIMIT","inputs":[],"outputs":[{"name":"","type":"uint32","internalType":"uint32"}],"stateMutability":"view"},{"type":"function","name":"MAX_VOTE_CAP_BPS","inputs":[],"outputs":[{"name":"","type":"uint256","internalType":"uint256"}],"stateMutability":"view"},{"type":"function","name":"MIN_VOTE","inputs":[],"outputs":[{"name":"","type":"uint256","internalType":"uint256"}],"stateMutability":"view"},{"type":"function","name":"NUM_WORDS","inputs":[],"outputs":[{"name":"","type":"uint32","internalType":"uint32"}],"stateMutability":"view"},{"type":"function","name":"REQUEST_CONFIRMATIONS","inputs":[],"outputs":[{"name":"","type":"uint16","internalType":"uint16"}],"stateMutability":"view"},{"type":"function","name":"acceptOwnership","inputs":[],"outputs":[],"stateMutability":"nonpayable"},{"type":"function","name":"admin","inputs":[],"outputs":[{"name":"","type":"address","internalType":"address"}],"stateMutability":"view"},{"type":"function","name":"approveProfile","inputs":[{"name":"profileId","type":"string","internalType":"string"},{"name":"wallet","type":"address","internalType":"address"}],"outputs":[],"stateMutability":"nonpayable"},{"type":"function","name":"batchApproveProfiles","inputs":[{"name":"profileIds","type":"string[]","internalType":"string[]"},{"name":"wallets","type":"address[]","internalType":"address[]"}],"outputs":[],"stateMutability":"nonpayable"},{"type":"function","name":"charityWallet","inputs":[],"outputs":[{"name":"","type":"address","internalType":"address"}],"stateMutability":"view"},{"type":"function","name":"currentRoundId","inputs":[],"outputs":[{"name":"","type":"uint256","internalType":"uint256"}],"stateMutability":"view"},{"type":"function","name":"getProfile","inputs":[{"name":"roundId","type":"uint256","internalType":"uint256"},{"name":"profileId","type":"string","internalType":"string"}],"outputs":[{"name":"wallet","type":"address","internalType":"address"},{"name":"totalTickets","type":"uint256","internalType":"uint256"},{"name":"rawVotes","type":"uint256","internalType":"uint256"},{"name":"topVoter","type":"address","internalType":"address"},{"name":"approved","type":"bool","internalType":"bool"}],"stateMutability":"view"},{"type":"function","name":"getRound","inputs":[{"name":"roundId","type":"uint256","internalType":"uint256"}],"outputs":[{"name":"startTime","type":"uint256","internalType":"uint256"},{"name":"endTime","type":"uint256","internalType":"uint256"},{"name":"totalTickets","type":"uint256","internalType":"uint256"},{"name":"totalRawVotes","type":"uint256","internalType":"uint256"},{"name":"settled","type":"bool","internalType":"bool"},{"name":"vrfPending","type":"bool","internalType":"bool"},{"name":"profileCount","type":"uint256","internalType":"uint256"}],"stateMutability":"view"},{"type":"function","name":"getVoterAmount","inputs":[{"name":"roundId","type":"uint256","internalType":"uint256"},{"name":"profileId","type":"string","internalType":"string"},{"name":"voter","type":"address","internalType":"address"}],"outputs":[{"name":"","type":"uint256","internalType":"uint256"}],"stateMutability":"view"},{"type":"function","name":"houseWallet","inputs":[],"outputs":[{"name":"","type":"address","internalType":"address"}],"stateMutability":"view"},{"type":"function","name":"keyHash","inputs":[],"outputs":[{"name":"","type":"bytes32","internalType":"bytes32"}],"stateMutability":"view"},{"type":"function","name":"midpointSnapshot","inputs":[],"outputs":[],"stateMutability":"nonpayable"},{"type":"function","name":"owner","inputs":[],"outputs":[{"name":"","type":"address","internalType":"address"}],"stateMutability":"view"},{"type":"function","name":"pendingOwner","inputs":[],"outputs":[{"name":"","type":"address","internalType":"address"}],"stateMutability":"view"},{"type":"function","name":"rawFulfillRandomWords","inputs":[{"name":"requestId","type":"uint256","internalType":"uint256"},{"name":"randomWords","type":"uint256[]","internalType":"uint256[]"}],"outputs":[],"stateMutability":"nonpayable"},{"type":"function","name":"renounceOwnership","inputs":[],"outputs":[],"stateMutability":"nonpayable"},{"type":"function","name":"setCharityWallet","inputs":[{"name":"_charity","type":"address","internalType":"address"}],"outputs":[],"stateMutability":"nonpayable"},{"type":"function","name":"setHouseWallet","inputs":[{"name":"_house","type":"address","internalType":"address"}],"outputs":[],"stateMutability":"nonpayable"},{"type":"function","name":"setStakingContract","inputs":[{"name":"_staking","type":"address","internalType":"address"}],"outputs":[],"stateMutability":"nonpayable"},{"type":"function","name":"settleRound","inputs":[],"outputs":[],"stateMutability":"nonpayable"},{"type":"function","name":"stakingContract","inputs":[],"outputs":[{"name":"","type":"address","internalType":"contract IStaking"}],"stateMutability":"view"},{"type":"function","name":"startRound","inputs":[],"outputs":[],"stateMutability":"nonpayable"},{"type":"function","name":"startRound","inputs":[{"name":"duration","type":"uint256","internalType":"uint256"}],"outputs":[],"stateMutability":"nonpayable"},{"type":"function","name":"subscriptionId","inputs":[],"outputs":[{"name":"","type":"uint256","internalType":"uint256"}],"stateMutability":"view"},{"type":"function","name":"transferAdmin","inputs":[{"name":"newAdmin","type":"address","internalType":"address"}],"outputs":[],"stateMutability":"nonpayable"},{"type":"function","name":"transferOwnership","inputs":[{"name":"newOwner","type":"address","internalType":"address"}],"outputs":[],"stateMutability":"nonpayable"},{"type":"function","name":"ttsToken","inputs":[],"outputs":[{"name":"","type":"address","internalType":"contract IERC20"}],"stateMutability":"view"},{"type":"function","name":"vote","inputs":[{"name":"profileId","type":"string","internalType":"string"},{"name":"amount","type":"uint256","internalType":"uint256"}],"outputs":[],"stateMutability":"nonpayable"},{"type":"event","name":"AdminTransferred","inputs":[{"name":"previous","type":"address","indexed":true,"internalType":"address"},{"name":"next","type":"address","indexed":true,"internalType":"address"}],"anonymous":false},{"type":"event","name":"OwnershipTransferStarted","inputs":[{"name":"previousOwner","type":"address","indexed":true,"internalType":"address"},{"name":"newOwner","type":"address","indexed":true,"internalType":"address"}],"anonymous":false},{"type":"event","name":"OwnershipTransferred","inputs":[{"name":"previousOwner","type":"address","indexed":true,"internalType":"address"},{"name":"newOwner","type":"address","indexed":true,"internalType":"address"}],"anonymous":false},{"type":"event","name":"ProfileApproved","inputs":[{"name":"roundId","type":"uint256","indexed":true,"internalType":"uint256"},{"name":"profileId","type":"string","indexed":false,"internalType":"string"},{"name":"wallet","type":"address","indexed":false,"internalType":"address"}],"anonymous":false},{"type":"event","name":"RoundSettled","inputs":[{"name":"roundId","type":"uint256","indexed":true,"internalType":"uint256"},{"name":"winnerProfileId","type":"string","indexed":false,"internalType":"string"},{"name":"winnerWallet","type":"address","indexed":false,"internalType":"address"},{"name":"pool","type":"uint256","indexed":false,"internalType":"uint256"}],"anonymous":false},{"type":"event","name":"RoundStarted","inputs":[{"name":"roundId","type":"uint256","indexed":true,"internalType":"uint256"},{"name":"startTime","type":"uint256","indexed":false,"internalType":"uint256"},{"name":"endTime","type":"uint256","indexed":false,"internalType":"uint256"}],"anonymous":false},{"type":"event","name":"VRFRequested","inputs":[{"name":"roundId","type":"uint256","indexed":true,"internalType":"uint256"},{"name":"requestId","type":"uint256","indexed":false,"internalType":"uint256"}],"anonymous":false},{"type":"event","name":"Voted","inputs":[{"name":"roundId","type":"uint256","indexed":true,"internalType":"uint256"},{"name":"profileId","type":"string","indexed":true,"internalType":"string"},{"name":"voter","type":"address","indexed":false,"internalType":"address"},{"name":"amount","type":"uint256","indexed":false,"internalType":"uint256"},{"name":"tickets","type":"uint256","indexed":false,"internalType":"uint256"}],"anonymous":false},{"type":"error","name":"OnlyCoordinatorCanFulfill","inputs":[{"name":"have","type":"address","internalType":"address"},{"name":"want","type":"address","internalType":"address"}]},{"type":"error","name":"OwnableInvalidOwner","inputs":[{"name":"owner_","type":"address","internalType":"address"}]},{"type":"error","name":"OwnableUnauthorizedAccount","inputs":[{"name":"account","type":"address","internalType":"address"}]}],"bytecode":{"object":"0x610120346200019a57601f620023d538819003918201601f19168301916001600160401b038311848410176200019e5780849260e0946040528339810103126200019a576200004e81620001b2565b6200005c60208301620001b2565b906040830151916060840151936200007760808201620001b2565b926200009460c06200008c60a08501620001b2565b9301620001b2565b913315620001825760018060a01b03199485600154166001555f549033878316175f556040519760018060a01b0380978180978196823391167f8be0079c531659141344cd1fd0a4f28419497f9722a3daafe3b4186f6b6457e05f80a382608052338c60025416176002551660a0521660c05260e05261010098895216856003541617600355168360045416176004551690600554161760055561220d9182620001c88339608051826114b6015260a0518281816101cc015281816104df0152611b47015260c05182610be6015260e051828181610b030152610e0f015251818181610b2601526115680152f35b604051631e4fbdf760e01b81525f6004820152602490fd5b5f80fd5b634e487b7160e01b5f52604160045260245ffd5b51906001600160a01b03821682036200019a5756fe6080604081815260049182361015610015575f80fd5b5f92833560e01c91826309c1ba2e14611551575081631770cc8e146115345781631fe543e31461143f57816324016aae146112ee57816324e2371b1461110d5781632efab6fa146110ea57816330563bd71461109757816333d608f11461107957816335d4de511461101e57816355e3f08614610f2c5781635fc3d52d14610e4e5781635fe00dc714610e3257816361728f3914610df757816367f082b014610ddb5781636ffbfaa814610a62578163715018a6146109fd57816372cf6e34146109e157816375829def1461096a57816377818f021461094157816379ba5097146108be5781637b208769146108965781638da5cb5b1461086e5781638f1327c0146107fe5781639cbe5efd146107df5781639dd373b91461078f578163a6385803146103c7578163d6ca838314610339578163e30c397814610310578163e33a89c21461029357508063ee99205c1461026b578063f2fde38b146101fb578063f75edc8c146101b85763f851a4401461018d575f80fd5b346101b457816003193601126101b45760025490516001600160a01b039091168152602090f35b5080fd5b50346101b457816003193601126101b457517f00000000000000000000000000000000000000000000000000000000000000006001600160a01b03168152602090f35b8234610268576020366003190112610268576102156115f3565b61021d61163a565b600180546001600160a01b0319166001600160a01b0392831690811790915582549091167f38d16b8cac22d99fc7c124b9cd0de2d3fa1faef420bfe791d8c362d765e227008380a380f35b80fd5b50346101b457816003193601126101b45760035490516001600160a01b039091168152602090f35b90503461030c57606036600319011261030c5760243567ffffffffffffffff8111610308576102c590369083016115c1565b6044356001600160a01b038116939084900361030457602095928594926102f6923585526009885285852091611716565b908252845220549051908152f35b8580fd5b8380fd5b8280fd5b5050346101b457816003193601126101b45760015490516001600160a01b039091168152602090f35b90503461030c578160031936011261030c5760243567ffffffffffffffff8111610308579060a0938361037261038494369085016115c1565b92909335815260086020522091611716565b90600180841b0391828154169260018201549260ff6005600285015493600386015416940154169381519586526020860152840152606083015215156080820152f35b9190503461030c578060031936011261030c57813567ffffffffffffffff8111610308576103f890369084016115c1565b9091602491823594600654938488526020946007865284892090815480151580610781575b610426906116d8565b42101580610773575b1561073e57674563918244f40000891061070c57895260088652610456858a208589611716565b9160ff600584015416156106d457600283016104738a8254611996565b9160038401926104848c8554611996565b90612710908181029181830414901517156106c257610fa0918281029281840414901517156106c2571161068e578b898c60648b51809481936323b872dd60e01b8352338d8401523088840152604483015260018060a01b037f0000000000000000000000000000000000000000000000000000000000000000165af1908115610684578d91610657575b501561062457509260027fb44b499827de3c0d29f0a7c52813bfb08522a61d971fabccf87ad89bddab0db99896938b9693606099966105596105518a3361206a565b998254611996565b90556001840161056a898254611996565b90556105778d8254611996565b905501610585868254611996565b90556006548b526009865261059d848c20848b611716565b338c528652838b206105b08b8254611996565b90556006548b52600986526105c8848c20848b611716565b338c528652838b20549181019182548111610606575b50505060065496818351928392833781018a815203902096815193338552840152820152a380f35b90915560030180546001600160a01b031916331790555f80806105de565b85600f6064928b8b519362461bcd60e51b85528401528201526e151c985b9cd9995c8819985a5b1959608a1b6044820152fd5b61067791508a3d8c1161067d575b61066f818361158b565b8101906119f6565b5f61050f565b503d610665565b89513d8f823e3d90fd5b8560106064928b8b519362461bcd60e51b85528401528201526f04578636565647320766f7465206361760841b6044820152fd5b634e487b7160e01b8e5260118852828efd5b8360146064928989519362461bcd60e51b855284015282015273141c9bd99a5b19481b9bdd08185c1c1c9bdd995960621b6044820152fd5b855162461bcd60e51b8152808501889052600d818501526c42656c6f77206d696e696d756d60981b6044820152606490fd5b855162461bcd60e51b81528085018890526010818501526f526f756e64206e6f742061637469766560801b6044820152606490fd5b50600182015442111561042f565b508285015460ff161561041d565b8334610268576020366003190112610268576107a96115f3565b6002546001600160a01b0391906107c39083163314611665565b166bffffffffffffffffffffffff60a01b600354161760035580f35b5050346101b457816003193601126101b4576020906006549051908152f35b9190503461030c57602036600319011261030c5760ff8160e094843581526007602052208054936001820154936002830154906005600385015493850154940154958151978852602088015286015260608501528181161515608085015260081c16151560a083015260c0820152f35b5050346101b457816003193601126101b457905490516001600160a01b039091168152602090f35b90503461030c578260031936011261030c575490516001600160a01b03909116815260209150f35b9190503461030c578260031936011261030c57600154916001600160a01b0391338385160361092a5750506001600160a01b031991821660015582543392811683178455167f8be0079c531659141344cd1fd0a4f28419497f9722a3daafe3b4186f6b6457e08380a380f35b60249250519063118cdaa760e01b82523390820152fd5b5050346101b457816003193601126101b45760055490516001600160a01b039091168152602090f35b8334610268576020366003190112610268576109846115f3565b6002546001600160a01b038082169261099e338514611665565b1680926109ac82151561169d565b7ff8ccb027dfcd135e000e9d45e6cc2d662578a8825d4c45b5e32e0adf67e79ec68580a36001600160a01b0319161760025580f35b5050346101b457816003193601126101b4576020905160028152f35b8334610268578060031936011261026857610a1661163a565b600180546001600160a01b03199081169091558154908116825581906001600160a01b03167f8be0079c531659141344cd1fd0a4f28419497f9722a3daafe3b4186f6b6457e08280a380f35b90503461030c578260031936011261030c57610a7c61163a565b6006548352602060078152828420805415610da6578281019081549060ff8216610d705760ff8260081c16610d3e5760018101544210610d08576005015415610cd85761ff00191661010017905582519167ffffffffffffffff60c0840181811185821017610cc5578552828401858501906060860191608087019160a0880194606086527f000000000000000000000000000000000000000000000000000000000000000089527f00000000000000000000000000000000000000000000000000000000000000008252600383526207a120855260028452895190606082019082821090821117610cb2578a5289815263125fa26760e31b818901528981018b905285528851634d8e1c2f60e11b81529586018790529651602486015295516044850152945161ffff1660648401525163ffffffff9081166084840152935190931660a4820152915160c060c4840152819083908190610be19060e48301906119c4565b0381877f00000000000000000000000000000000000000000000000000000000000000006001600160a01b03165af18015610ca5578490610c58575b7fc6f253de430148d7581a940518a73a6d98efc85ea9162887a3918443ba67c212925060065493818652600a8352848187205551908152a280f35b508082813d8311610c9e575b610c6e818361158b565b81010312610308577fc6f253de430148d7581a940518a73a6d98efc85ea9162887a3918443ba67c2129151610c1d565b503d610c64565b50505051903d90823e3d90fd5b634e487b7160e01b8c526041885260248cfd5b634e487b7160e01b875260418352602487fd5b5050606492519162461bcd60e51b8352820152600b60248201526a4e6f2070726f66696c657360a81b6044820152fd5b5050925162461bcd60e51b815291820152600f60248201526e149bdd5b99081b9bdd08195b991959608a1b604482015260649150fd5b5050925162461bcd60e51b815291820152600b60248201526a5652462070656e64696e6760a81b604482015260649150fd5b5050925162461bcd60e51b815291820152600f60248201526e105b1c9958591e481cd95d1d1b1959608a1b604482015260649150fd5b50606492519162461bcd60e51b83528201526011602482015270149bdd5b99081b9bdd081cdd185c9d1959607a1b6044820152fd5b5050346101b457816003193601126101b4576020905160038152f35b5050346101b457816003193601126101b457602090517f00000000000000000000000000000000000000000000000000000000000000008152f35b8334610268578060031936011261026857610e4b61163a565b80f35b90503461030c57602036600319011261030c57610e6961163a565b60065480610ed4575b917fa359b664a68acd8839e42112eb50eff3408165e15074fde89ddb58a0db2e691d91610ea060019461190e565b8060065585526007602052610ebc828620914283553542611996565b9384910155600654928151904282526020820152a280f35b808452600760205260ff82848620015416610e7257506020606492519162461bcd60e51b8352820152601a60248201527f50726576696f757320726f756e64206e6f7420736574746c65640000000000006044820152fd5b8383346101b457816003193601126101b457610f4661163a565b60065480610fc6575b610f589061190e565b80600655825260076020528082209042825562093a80420191824211610fb357908260017fa359b664a68acd8839e42112eb50eff3408165e15074fde89ddb58a0db2e691d930155600654928151904282526020820152a280f35b634e487b7160e01b845260118552602484fd5b808352600760205260ff84838520015416610f4f57815162461bcd60e51b8152602081860152601a60248201527f50726576696f757320726f756e64206e6f7420736574746c65640000000000006044820152606490fd5b8334610268576020366003190112610268576110386115f3565b6002546001600160a01b0391906110529083163314611665565b1661105e81151561169d565b6bffffffffffffffffffffffff60a01b600554161760055580f35b5050346101b457816003193601126101b457602090516207a1208152f35b8390346101b45760203660031901126101b4576110b26115f3565b6002546001600160a01b0391906110cc9083163314611665565b166110d881151561169d565b81546001600160a01b03191617905580f35b5050346101b457816003193601126101b45760209051674563918244f400008152f35b90503461030c578160031936011261030c5767ffffffffffffffff9080358281116112ea5761113f9036908301611609565b939092602435908111610304576111599036908401611609565b60025490926001600160a01b03916111749083163314611665565b8387036112b65760069485548952602090600782526111a4838b20918254151590816112a7575b509992996116d8565b6005908101918a805b8281106111b8575080f35b8a8a8a8a8f8a6112909760086111df938754835252206111d9878a88611930565b90611716565b898c878b8401918254908c60ff8316611297577f8d061afbca52698fe41de9d62735bed36e9df7431e20b1c6a1477aa1551cc6b89961126e61127d97611268878f86908f9d8f996112889f61124d61124d9f611252926112759f9e899f9260018b9460ff1916179055611972565b611982565b82546001600160a01b0319169116179055611930565b91611790565b549a611930565b969095611972565b8b51938493846118d6565b0390a261190e565b8b906111ad565b505050505050505050505061190e565b60ff915083015416155f61119b565b5162461bcd60e51b8152602081860152600f60248201526e098cadccee8d040dad2e6dac2e8c6d608b1b6044820152606490fd5b8480fd5b8383346101b457806003193601126101b457823567ffffffffffffffff811161030c5761131e90369085016115c1565b602435949091906001600160a01b03808716919082880361143b5761134890600254163314611665565b60065491828752600760205285872092835415158061142d575b61136b906116d8565b8752600860205261137f8688208686611716565b91600583019081549060ff82166113f7575060ff1916600117905581546001600160a01b031916179055939492937f8d061afbca52698fe41de9d62735bed36e9df7431e20b1c6a1477aa1551cc6b8936113f1916113e39085908590600501611790565b6006549551938493846118d6565b0390a280f35b60649060208a519162461bcd60e51b8352820152601060248201526f105b1c9958591e48185c1c1c9bdd995960821b6044820152fd5b508383015460ff1615611362565b8680fd5b839150346101b457826003193601126101b4576024359067ffffffffffffffff80831161030857366023840112156103085782820135908111611521578060051b928551936020926114938483018761158b565b85526024838601918301019136831161143b57602401905b8282106115125750507f00000000000000000000000000000000000000000000000000000000000000006001600160a01b0316915050338190036114f5575090610e4b9135611a0e565b6044925084519163073e64fd60e21b835233908301526024820152fd5b813581529083019083016114ab565b634e487b7160e01b845260418252602484fd5b5050346101b457816003193601126101b45760209051610fa08152f35b8490346101b457816003193601126101b4576020907f00000000000000000000000000000000000000000000000000000000000000008152f35b90601f8019910116810190811067ffffffffffffffff8211176115ad57604052565b634e487b7160e01b5f52604160045260245ffd5b9181601f840112156115ef5782359167ffffffffffffffff83116115ef57602083818601950101116115ef57565b5f80fd5b600435906001600160a01b03821682036115ef57565b9181601f840112156115ef5782359167ffffffffffffffff83116115ef576020808501948460051b0101116115ef57565b5f546001600160a01b0316330361164d57565b60405163118cdaa760e01b8152336004820152602490fd5b1561166c57565b60405162461bcd60e51b81526020600482015260096024820152682737ba1030b236b4b760b91b6044820152606490fd5b156116a457565b60405162461bcd60e51b815260206004820152600c60248201526b5a65726f206164647265737360a01b6044820152606490fd5b156116df57565b60405162461bcd60e51b815260206004820152600f60248201526e139bc81858dd1a5d99481c9bdd5b99608a1b6044820152606490fd5b6020919283604051948593843782019081520301902090565b8054821015611744575f5260205f2001905f90565b634e487b7160e01b5f52603260045260245ffd5b90600182811c92168015611786575b602083101461177257565b634e487b7160e01b5f52602260045260245ffd5b91607f1691611767565b90918154680100000000000000008110156115ad576117b690600193848201815561172f565b9390936118c35767ffffffffffffffff82116115ad576117d68454611758565b601f8111611879575b505f90601f8311600114611817579282939183925f9461180c575b50501b915f199060031b1c1916179055565b013592505f806117fa565b601f19831691858152836020938483209483905b8883831061185f5750505010611846575b505050811b019055565b01355f19600384901b60f8161c191690555f808061183c565b86860135885590960195938401938793509081019061182b565b5f85815260208120601f850160051c810192602086106118b9575b601f0160051c019185905b8381106118ae575050506117df565b82815501859061189f565b9092508290611894565b634e487b7160e01b5f525f60045260245ffd5b918060609160209396959660408652816040870152838601375f828286010152601f80199101168301019360018060a01b0316910152565b5f19811461191c5760010190565b634e487b7160e01b5f52601160045260245ffd5b91908110156117445760051b81013590601e19813603018212156115ef57019081359167ffffffffffffffff83116115ef5760200182360381136115ef579190565b91908110156117445760051b0190565b356001600160a01b03811681036115ef5790565b9190820180921161191c57565b5f5b8381106119b45750505f910152565b81810151838201526020016119a5565b906020916119dd815180928185528580860191016119a3565b601f01601f1916010190565b9190820391821161191c57565b908160209103126115ef575180151581036115ef5790565b5f9081526020600a8152604090818320549283815260078252828120926004918285019081549160089060ff84831c1615612035576001809461ffff19161790556005928388019788549a8b158015612029575b61201b5780511561200857886002910151910154908115611ff55760609991900684805b8d8210611e73575b50505050509091929394959680985082528552828120858451809282611aba8b848151938492016119a3565b820190815203019020906002820154948515808015611e61575b611e555760288702878104602814821715611e42576064900490600a880290888204600a141715611e425760649004611b1a81611b1584611b15818d6119e9565b6119e9565b8554885163a9059cbb60e01b8082526001600160a01b0392831687830190815260208101879052929990957f00000000000000000000000000000000000000000000000000000000000000008b16959193919290918e908290819060400103818c8a5af18015611e3857918e91611bca93611e1b575b5060038b01548c168015611e11575b8d518981526001600160a01b039091168a820190815260208101929092529283918291604090910190565b03818b895af18015611e0757918d91611c0e93611dea575b508a8854168c5193849283928a84528b840160209093929193604081019460018060a01b031681520152565b03818a885af18015611de0578c92611c5294928b92611dc3575b5054168a51938492839288845289840160209093929193604081019460018060a01b031681520152565b038188865af18015611d9c57611da6575b5086516370a0823160e01b815230848201528981602481855afa908115611d9c578591611d6f575b5080611ce2575b5050505050917fabf0728119ba3c53309b0f987eda834ecf31e54dfaeec92465c1512c5eb9c2b9959391611cd69593541681519586956060875260608701906119c4565b938501528301520390a2565b89928561dead9695936044938b519889968795865285015260248401525af1908115611d645750917fabf0728119ba3c53309b0f987eda834ecf31e54dfaeec92465c1512c5eb9c2b997959391611cd6979593611d47575b8294969882949698611c92565b611d5d90863d881161067d5761066f818361158b565b505f611d3a565b8551903d90823e3d90fd5b90508981813d8311611d95575b611d86818361158b565b810103126112ea57515f611c8b565b503d611d7c565b88513d87823e3d90fd5b611dbc908a3d8c1161067d5761066f818361158b565b505f611c63565b611dd990853d871161067d5761066f818361158b565b505f611c28565b8a513d89823e3d90fd5b611e0090833d851161067d5761066f818361158b565b505f611be2565b8b513d8a823e3d90fd5b508b8b5416611b9f565b611e3190833d851161067d5761066f818361158b565b505f611b90565b8c513d8b823e3d90fd5b634e487b7160e01b845260118352602484fd5b50505050505050505050565b5083546001600160a01b031615611ad4565b8c8752858b528887209085611e88848761172f565b50928d8c51918b95805490611e9c82611758565b91868116908115611fdc5750600114611f9c575b5050858391611ec6975203019020015490611996565b90818310611edd57611ed79061190e565b90611a86565b9395969798999a505050611ef392999a5061172f565b50845180928490835493611f0685611758565b948585528b83821691825f14611f7b575050600114611f3f575b5050611f2e9250038261158b565b949392919087965f80808080611a8e565b8a925086528186209086915b858310611f63575050611f2e93508201015f80611f20565b80548388018501528694508b93909201918101611f4b565b9250935050611f2e94915060ff1916828401521515861b8201015f80611f20565b909196508c52818c208c905b828210611fbd57505082019480611ec6611eb0565b8097959193929496975484880152019101918f91928a94969593611fa8565b60ff191686525050801515028301955080611ec6611eb0565b634e487b7160e01b855260128852602485fd5b634e487b7160e01b855260328852602485fd5b505050505050505050505050565b50600282015415611a62565b845162461bcd60e51b8152808701889052600f60248201526e4e6f74205652462070656e64696e6760881b6044820152606490fd5b60035460405163a8a82fd760e01b81526001600160a01b039283166004808301919091526024939092602091839186918391165afa5f91816121a4575b506120b3575b50505090565b6005811461218657818114612169576003811461214c576002811461212f576001811461211257156120e557806120ad565b606e830292808404606e14901517156121015750506064900490565b601190634e487b7160e01b5f52525ffd5b50607d830292808404607d14901517156121015750506064900490565b506096830292808404609614901517156121015750506064900490565b5060af83029280840460af14901517156121015750506064900490565b5060c883029280840460c814901517156121015750506064900490565b5061012c928381029381850414901517156121015750506064900490565b90916020823d82116121cf575b816121be6020938361158b565b81010312610268575051905f6120a7565b3d91506121b156fea2646970667358221220bedb7b8e8749518844d5fe6e19ec9bde682d7faa4003397b25984b7468b5e51564736f6c63430008140033","linkReferences":{}},"methodIdentifiers":{"CALLBACK_GAS_LIMIT()":"33d608f1","MAX_VOTE_CAP_BPS()":"1770cc8e","MIN_VOTE()":"2efab6fa","NUM_WORDS()":"72cf6e34","REQUEST_CONFIRMATIONS()":"67f082b0","acceptOwnership()":"79ba5097","admin()":"f851a440","approveProfile(string,address)":"24016aae","batchApproveProfiles(string[],address[])":"24e2371b","charityWallet()":"7b208769","currentRoundId()":"9cbe5efd","getProfile(uint256,string)":"d6ca8383","getRound(uint256)":"8f1327c0","getVoterAmount(uint256,string,address)":"e33a89c2","houseWallet()":"77818f02","keyHash()":"61728f39","midpointSnapshot()":"5fe00dc7","owner()":"8da5cb5b","pendingOwner()":"e30c3978","rawFulfillRandomWords(uint256,uint256[])":"1fe543e3","renounceOwnership()":"715018a6","setCharityWallet(address)":"30563bd7","setHouseWallet(address)":"35d4de51","setStakingContract(address)":"9dd373b9","settleRound()":"6ffbfaa8","stakingContract()":"ee99205c","startRound()":"55e3f086","startRound(uint256)":"5fc3d52d","subscriptionId()":"09c1ba2e","transferAdmin(address)":"75829def","transferOwnership(address)":"f2fde38b","ttsToken()":"f75edc8c","vote(string,uint256)":"a6385803"},"id":0}