{"abi":[{"type":"constructor","inputs":[{"name":"_ttsToken","type":"address","internalType":"address"},{"name":"vrfCoordinator_","type":"address","internalType":"address"},{"name":"_keyHash","type":"bytes32","internalType":"bytes32"},{"name":"_subscriptionId","type":"uint256","internalType":"uint256"},{"name":"_stakingContract","type":"address","internalType":"address"},{"name":"_charityWallet","type":"address","internalType":"address"},{"name":"_houseWallet","type":"address","internalType":"address"}],"stateMutability":"nonpayable"},{"type":"function","name":"CALLBACK_GAS_LIMIT","inputs":[],"outputs":[{"name":"","type":"uint32","internalType":"uint32"}],"stateMutability":"view"},{"type":"function","name":"MAX_VOTE_CAP_BPS","inputs":[],"outputs":[{"name":"","type":"uint256","internalType":"uint256"}],"stateMutability":"view"},{"type":"function","name":"MIN_VOTE","inputs":[],"outputs":[{"name":"","type":"uint256","internalType":"uint256"}],"stateMutability":"view"},{"type":"function","name":"NUM_WORDS","inputs":[],"outputs":[{"name":"","type":"uint32","internalType":"uint32"}],"stateMutability":"view"},{"type":"function","name":"REQUEST_CONFIRMATIONS","inputs":[],"outputs":[{"name":"","type":"uint16","internalType":"uint16"}],"stateMutability":"view"},{"type":"function","name":"admin","inputs":[],"outputs":[{"name":"","type":"address","internalType":"address"}],"stateMutability":"view"},{"type":"function","name":"approveProfile","inputs":[{"name":"profileId","type":"string","internalType":"string"},{"name":"wallet","type":"address","internalType":"address"}],"outputs":[],"stateMutability":"nonpayable"},{"type":"function","name":"batchApproveProfiles","inputs":[{"name":"profileIds","type":"string[]","internalType":"string[]"},{"name":"wallets","type":"address[]","internalType":"address[]"}],"outputs":[],"stateMutability":"nonpayable"},{"type":"function","name":"charityWallet","inputs":[],"outputs":[{"name":"","type":"address","internalType":"address"}],"stateMutability":"view"},{"type":"function","name":"currentRoundId","inputs":[],"outputs":[{"name":"","type":"uint256","internalType":"uint256"}],"stateMutability":"view"},{"type":"function","name":"getProfile","inputs":[{"name":"roundId","type":"uint256","internalType":"uint256"},{"name":"profileId","type":"string","internalType":"string"}],"outputs":[{"name":"wallet","type":"address","internalType":"address"},{"name":"totalTickets","type":"uint256","internalType":"uint256"},{"name":"rawVotes","type":"uint256","internalType":"uint256"},{"name":"topVoter","type":"address","internalType":"address"},{"name":"approved","type":"bool","internalType":"bool"}],"stateMutability":"view"},{"type":"function","name":"getRound","inputs":[{"name":"roundId","type":"uint256","internalType":"uint256"}],"outputs":[{"name":"startTime","type":"uint256","internalType":"uint256"},{"name":"endTime","type":"uint256","internalType":"uint256"},{"name":"totalTickets","type":"uint256","internalType":"uint256"},{"name":"totalRawVotes","type":"uint256","internalType":"uint256"},{"name":"settled","type":"bool","internalType":"bool"},{"name":"vrfPending","type":"bool","internalType":"bool"},{"name":"profileCount","type":"uint256","internalType":"uint256"}],"stateMutability":"view"},{"type":"function","name":"getVoterAmount","inputs":[{"name":"roundId","type":"uint256","internalType":"uint256"},{"name":"profileId","type":"string","internalType":"string"},{"name":"voter","type":"address","internalType":"address"}],"outputs":[{"name":"","type":"uint256","internalType":"uint256"}],"stateMutability":"view"},{"type":"function","name":"houseWallet","inputs":[],"outputs":[{"name":"","type":"address","internalType":"address"}],"stateMutability":"view"},{"type":"function","name":"keyHash","inputs":[],"outputs":[{"name":"","type":"bytes32","internalType":"bytes32"}],"stateMutability":"view"},{"type":"function","name":"midpointSnapshot","inputs":[],"outputs":[],"stateMutability":"nonpayable"},{"type":"function","name":"owner","inputs":[],"outputs":[{"name":"","type":"address","internalType":"address"}],"stateMutability":"view"},{"type":"function","name":"rawFulfillRandomWords","inputs":[{"name":"requestId","type":"uint256","internalType":"uint256"},{"name":"randomWords","type":"uint256[]","internalType":"uint256[]"}],"outputs":[],"stateMutability":"nonpayable"},{"type":"function","name":"renounceOwnership","inputs":[],"outputs":[],"stateMutability":"nonpayable"},{"type":"function","name":"setCharityWallet","inputs":[{"name":"_charity","type":"address","internalType":"address"}],"outputs":[],"stateMutability":"nonpayable"},{"type":"function","name":"setHouseWallet","inputs":[{"name":"_house","type":"address","internalType":"address"}],"outputs":[],"stateMutability":"nonpayable"},{"type":"function","name":"setStakingContract","inputs":[{"name":"_staking","type":"address","internalType":"address"}],"outputs":[],"stateMutability":"nonpayable"},{"type":"function","name":"settleRound","inputs":[],"outputs":[],"stateMutability":"nonpayable"},{"type":"function","name":"stakingContract","inputs":[],"outputs":[{"name":"","type":"address","internalType":"contract IStaking"}],"stateMutability":"view"},{"type":"function","name":"startRound","inputs":[],"outputs":[],"stateMutability":"nonpayable"},{"type":"function","name":"startRound","inputs":[{"name":"duration","type":"uint256","internalType":"uint256"}],"outputs":[],"stateMutability":"nonpayable"},{"type":"function","name":"subscriptionId","inputs":[],"outputs":[{"name":"","type":"uint256","internalType":"uint256"}],"stateMutability":"view"},{"type":"function","name":"transferAdmin","inputs":[{"name":"newAdmin","type":"address","internalType":"address"}],"outputs":[],"stateMutability":"nonpayable"},{"type":"function","name":"transferOwnership","inputs":[{"name":"newOwner","type":"address","internalType":"address"}],"outputs":[],"stateMutability":"nonpayable"},{"type":"function","name":"ttsToken","inputs":[],"outputs":[{"name":"","type":"address","internalType":"contract IERC20"}],"stateMutability":"view"},{"type":"function","name":"vote","inputs":[{"name":"profileId","type":"string","internalType":"string"},{"name":"amount","type":"uint256","internalType":"uint256"}],"outputs":[],"stateMutability":"nonpayable"},{"type":"event","name":"AdminTransferred","inputs":[{"name":"previous","type":"address","indexed":true,"internalType":"address"},{"name":"next","type":"address","indexed":true,"internalType":"address"}],"anonymous":false},{"type":"event","name":"OwnershipTransferred","inputs":[{"name":"previousOwner","type":"address","indexed":true,"internalType":"address"},{"name":"newOwner","type":"address","indexed":true,"internalType":"address"}],"anonymous":false},{"type":"event","name":"ProfileApproved","inputs":[{"name":"roundId","type":"uint256","indexed":true,"internalType":"uint256"},{"name":"profileId","type":"string","indexed":false,"internalType":"string"},{"name":"wallet","type":"address","indexed":false,"internalType":"address"}],"anonymous":false},{"type":"event","name":"RoundSettled","inputs":[{"name":"roundId","type":"uint256","indexed":true,"internalType":"uint256"},{"name":"winnerProfileId","type":"string","indexed":false,"internalType":"string"},{"name":"winnerWallet","type":"address","indexed":false,"internalType":"address"},{"name":"pool","type":"uint256","indexed":false,"internalType":"uint256"}],"anonymous":false},{"type":"event","name":"RoundStarted","inputs":[{"name":"roundId","type":"uint256","indexed":true,"internalType":"uint256"},{"name":"startTime","type":"uint256","indexed":false,"internalType":"uint256"},{"name":"endTime","type":"uint256","indexed":false,"internalType":"uint256"}],"anonymous":false},{"type":"event","name":"VRFRequested","inputs":[{"name":"roundId","type":"uint256","indexed":true,"internalType":"uint256"},{"name":"requestId","type":"uint256","indexed":false,"internalType":"uint256"}],"anonymous":false},{"type":"event","name":"Voted","inputs":[{"name":"roundId","type":"uint256","indexed":true,"internalType":"uint256"},{"name":"profileId","type":"string","indexed":true,"internalType":"string"},{"name":"voter","type":"address","indexed":false,"internalType":"address"},{"name":"amount","type":"uint256","indexed":false,"internalType":"uint256"},{"name":"tickets","type":"uint256","indexed":false,"internalType":"uint256"}],"anonymous":false},{"type":"error","name":"OnlyCoordinatorCanFulfill","inputs":[{"name":"have","type":"address","internalType":"address"},{"name":"want","type":"address","internalType":"address"}]},{"type":"error","name":"OwnableInvalidOwner","inputs":[{"name":"owner_","type":"address","internalType":"address"}]},{"type":"error","name":"OwnableUnauthorizedAccount","inputs":[{"name":"account","type":"address","internalType":"address"}]}],"bytecode":{"object":"0x61012060405234801562000011575f80fd5b50604051620026f1380380620026f183398101604081905262000034916200013e565b8533806200005b57604051631e4fbdf760e01b81525f600482015260240160405180910390fd5b6200006681620000d3565b506001600160a01b0390811660805260018054336001600160a01b03199182161790915597811660a05295861660c05260e09490945261010092909252600280548616918516919091179055600380548516918416919091179055600480549093169116179055620001bc565b5f80546001600160a01b038381166001600160a01b0319831681178455604051919092169283917f8be0079c531659141344cd1fd0a4f28419497f9722a3daafe3b4186f6b6457e09190a35050565b80516001600160a01b038116811462000139575f80fd5b919050565b5f805f805f805f60e0888a03121562000155575f80fd5b620001608862000122565b9650620001706020890162000122565b955060408801519450606088015193506200018e6080890162000122565b92506200019e60a0890162000122565b9150620001ae60c0890162000122565b905092959891949750929550565b60805160a05160c05160e051610100516124b1620002405f395f81816101e50152610c2c01525f81816102da0152610c0901525f610c9c01525f81816104cf01528181610feb015281816116060152818161168001528181611764015281816117fd0152818161187f015261191601525f818161050f015261055101526124b15ff3fe608060405234801561000f575f80fd5b50600436106101dc575f3560e01c8063715018a6116101095780639dd373b91161009e578063ee99205c1161006e578063ee99205c146104a4578063f2fde38b146104b7578063f75edc8c146104ca578063f851a440146104f1575f80fd5b80639dd373b914610421578063a638580314610434578063d6ca838314610447578063e33a89c214610491575f80fd5b80637b208769116100d95780637b2087691461036d5780638da5cb5b146103805780638f1327c0146103905780639cbe5efd14610418575f80fd5b8063715018a61461031f57806372cf6e341461032757806375829def1461032f57806377818f0214610342575f80fd5b806333d608f11161017f5780635fe00dc71161014f5780635fe00dc7146102cd57806361728f39146102d557806367f082b0146102fc5780636ffbfaa814610317575f80fd5b806333d608f11461028057806335d4de511461029f57806355e3f086146102b25780635fc3d52d146102ba575f80fd5b806324016aae116101ba57806324016aae1461023857806324e2371b1461024b5780632efab6fa1461025e57806330563bd71461026d575f80fd5b806309c1ba2e146101e05780631770cc8e1461021a5780631fe543e314610223575b5f80fd5b6102077f000000000000000000000000000000000000000000000000000000000000000081565b6040519081526020015b60405180910390f35b610207610fa081565b610236610231366004611c63565b610504565b005b610236610246366004611d88565b610591565b610236610259366004611e19565b610707565b610207674563918244f4000081565b61023661027b366004611e80565b61095f565b61028a6207a12081565b60405163ffffffff9091168152602001610211565b6102366102ad366004611e80565b6109d1565b610236610a43565b6102366102c8366004611ea0565b610a59565b610236610a6d565b6102077f000000000000000000000000000000000000000000000000000000000000000081565b610304600381565b60405161ffff9091168152602001610211565b610236610a75565b610236610d67565b61028a600281565b61023661033d366004611e80565b610d78565b600454610355906001600160a01b031681565b6040516001600160a01b039091168152602001610211565b600354610355906001600160a01b031681565b5f546001600160a01b0316610355565b6103df61039e366004611ea0565b5f90815260066020526040902080546001820154600283015460038401546004850154600590950154939592949193909260ff808416936101009004169190565b60408051978852602088019690965294860193909352606085019190915215156080840152151560a083015260c082015260e001610211565b61020760055481565b61023661042f366004611e80565b610e23565b610236610442366004611eb7565b610e6f565b61045a610455366004611eff565b61122b565b604080516001600160a01b03968716815260208101959095528401929092529092166060820152901515608082015260a001610211565b61020761049f366004611f47565b61129f565b600254610355906001600160a01b031681565b6102366104c5366004611e80565b6112ec565b6103557f000000000000000000000000000000000000000000000000000000000000000081565b600154610355906001600160a01b031681565b336001600160a01b037f000000000000000000000000000000000000000000000000000000000000000016146105835760405163073e64fd60e21b81523360048201526001600160a01b037f00000000000000000000000000000000000000000000000000000000000000001660248201526044015b60405180910390fd5b61058d8282611326565b5050565b6001546001600160a01b031633146105bb5760405162461bcd60e51b815260040161057a90611fa1565b6005545f9081526006602052604090208054158015906105e05750600481015460ff16155b6105fc5760405162461bcd60e51b815260040161057a90611fc4565b6005545f90815260076020526040808220905161061c9087908790611fed565b908152604051908190036020019020600581015490915060ff16156106765760405162461bcd60e51b815260206004820152601060248201526f105b1c9958591e48185c1c1c9bdd995960821b604482015260640161057a565b60058181018054600160ff19909116811790915582546001600160a01b0319166001600160a01b038616178355908301805491820181555f90815260209020016106c185878361207e565b506005547f8d061afbca52698fe41de9d62735bed36e9df7431e20b1c6a1477aa1551cc6b88686866040516106f89392919061213a565b60405180910390a25050505050565b6001546001600160a01b031633146107315760405162461bcd60e51b815260040161057a90611fa1565b8281146107725760405162461bcd60e51b815260206004820152600f60248201526e098cadccee8d040dad2e6dac2e8c6d608b1b604482015260640161057a565b6005545f9081526006602052604090208054158015906107975750600481015460ff16155b6107b35760405162461bcd60e51b815260040161057a90611fc4565b5f5b84811015610957576005545f9081526007602052604081208787848181106107df576107df61217a565b90506020028101906107f1919061218e565b6040516107ff929190611fed565b908152604051908190036020019020600581015490915060ff16156108245750610945565b60058101805460ff191660011790558484838181106108455761084561217a565b905060200201602081019061085a9190611e80565b81546001600160a01b0319166001600160a01b03919091161781556005830187878481811061088b5761088b61217a565b905060200281019061089d919061218e565b82546001810184555f9384526020909320909201916108bc918361207e565b506005547f8d061afbca52698fe41de9d62735bed36e9df7431e20b1c6a1477aa1551cc6b88888858181106108f3576108f361217a565b9050602002810190610905919061218e565b8888878181106109175761091761217a565b905060200201602081019061092c9190611e80565b60405161093b9392919061213a565b60405180910390a2505b8061094f816121e5565b9150506107b5565b505050505050565b6001546001600160a01b031633146109895760405162461bcd60e51b815260040161057a90611fa1565b6001600160a01b0381166109af5760405162461bcd60e51b815260040161057a906121fd565b600380546001600160a01b0319166001600160a01b0392909216919091179055565b6001546001600160a01b031633146109fb5760405162461bcd60e51b815260040161057a90611fa1565b6001600160a01b038116610a215760405162461bcd60e51b815260040161057a906121fd565b600480546001600160a01b0319166001600160a01b0392909216919091179055565b610a4b6119e4565b610a5762093a80611a10565b565b610a616119e4565b610a6a81611a10565b50565b610a576119e4565b610a7d6119e4565b6005545f9081526006602052604090208054610acf5760405162461bcd60e51b8152602060048201526011602482015270149bdd5b99081b9bdd081cdd185c9d1959607a1b604482015260640161057a565b600481015460ff1615610b165760405162461bcd60e51b815260206004820152600f60248201526e105b1c9958591e481cd95d1d1b1959608a1b604482015260640161057a565b6004810154610100900460ff1615610b5e5760405162461bcd60e51b815260206004820152600b60248201526a5652462070656e64696e6760a81b604482015260640161057a565b8060010154421015610ba45760405162461bcd60e51b815260206004820152600f60248201526e149bdd5b99081b9bdd08195b991959608a1b604482015260640161057a565b6005810154610be35760405162461bcd60e51b815260206004820152600b60248201526a4e6f2070726f66696c657360a81b604482015260640161057a565b60048101805461ff0019166101001790556040805160c081018252606060a082018190527f000000000000000000000000000000000000000000000000000000000000000082527f00000000000000000000000000000000000000000000000000000000000000006020808401919091526003838501526207a1208284015260026080840152835191820184528382529192909161243c9083013960a0820152604051634d8e1c2f60e11b81525f906001600160a01b037f00000000000000000000000000000000000000000000000000000000000000001690639b1c385e90610cd1908590600401612270565b6020604051808303815f875af1158015610ced573d5f803e3d5ffd5b505050506040513d601f19601f82011682018060405250810190610d1191906122d4565b6005545f828152600960205260409081902082905551919250907fc6f253de430148d7581a940518a73a6d98efc85ea9162887a3918443ba67c21290610d5a9084815260200190565b60405180910390a2505050565b610d6f6119e4565b610a575f611afa565b6001546001600160a01b03163314610da25760405162461bcd60e51b815260040161057a90611fa1565b6001600160a01b038116610dc85760405162461bcd60e51b815260040161057a906121fd565b6001546040516001600160a01b038084169216907ff8ccb027dfcd135e000e9d45e6cc2d662578a8825d4c45b5e32e0adf67e79ec6905f90a3600180546001600160a01b0319166001600160a01b0392909216919091179055565b6001546001600160a01b03163314610e4d5760405162461bcd60e51b815260040161057a90611fa1565b600280546001600160a01b0319166001600160a01b0392909216919091179055565b6005545f908152600660205260409020805415801590610e945750600481015460ff16155b610eb05760405162461bcd60e51b815260040161057a90611fc4565b80544210801590610ec5575080600101544211155b610f045760405162461bcd60e51b815260206004820152601060248201526f526f756e64206e6f742061637469766560801b604482015260640161057a565b674563918244f40000821015610f4c5760405162461bcd60e51b815260206004820152600d60248201526c42656c6f77206d696e696d756d60981b604482015260640161057a565b6005545f908152600760205260408082209051610f6c9087908790611fed565b908152604051908190036020019020600581015490915060ff16610fc95760405162461bcd60e51b8152602060048201526014602482015273141c9bd99a5b19481b9bdd08185c1c1c9bdd995960621b604482015260640161057a565b6040516323b872dd60e01b8152336004820152306024820152604481018490527f00000000000000000000000000000000000000000000000000000000000000006001600160a01b0316906323b872dd906064016020604051808303815f875af1158015611039573d5f803e3d5ffd5b505050506040513d601f19601f8201168201806040525081019061105d91906122eb565b61109b5760405162461bcd60e51b815260206004820152600f60248201526e151c985b9cd9995c8819985a5b1959608a1b604482015260640161057a565b5f6110a63385611b49565b905083826002015f8282546110bb919061230a565b9250508190555080826001015f8282546110d5919061230a565b9250508190555083836003015f8282546110ef919061230a565b9250508190555080836002015f828254611109919061230a565b90915550506005545f908152600860205260409081902090518591906111329089908990611fed565b9081526040805160209281900383019020335f90815292528120805490919061115c90849061230a565b90915550506005545f9081526008602052604080822090516111819089908990611fed565b9081526040805160209281900383019020335f908152925290205460048401549091508111156111c757600483018190556003830180546001600160a01b031916331790555b86866040516111d7929190611fed565b6040805191829003822060055433845260208401899052918301859052917fb44b499827de3c0d29f0a7c52813bfb08522a61d971fabccf87ad89bddab0db99060600160405180910390a350505050505050565b5f805f805f8060075f8a81526020019081526020015f208888604051611252929190611fed565b90815260405190819003602001902080546001820154600283015460038401546005909401546001600160a01b039384169a5091985096509116935060ff16915050939792965093509350565b5f8481526008602052604080822090516112bc9086908690611fed565b908152604080519182900360209081019092206001600160a01b0385165f90815292529020549050949350505050565b6112f46119e4565b6001600160a01b03811661131d57604051631e4fbdf760e01b81525f600482015260240161057a565b610a6a81611afa565b5f8281526009602090815260408083205480845260069092529091206004810154610100900460ff1661138d5760405162461bcd60e51b815260206004820152600f60248201526e4e6f74205652462070656e64696e6760881b604482015260640161057a565b60048101805461ffff19166001179055600581015415806113b057506002810154155b156113bb5750505050565b5f8160020154845f815181106113d3576113d361217a565b60200260200101516113e59190612331565b90505f60605f5b6005850154811015611514575f8681526007602052604090206005860180548390811061141b5761141b61217a565b905f5260205f20016040516114309190612344565b9081526020016040518091039020600101548361144d919061230a565b9250828410156115025784600501818154811061146c5761146c61217a565b905f5260205f2001805461147f90611ffc565b80601f01602080910402602001604051908101604052809291908181526020018280546114ab90611ffc565b80156114f65780601f106114cd576101008083540402835291602001916114f6565b820191905f5260205f20905b8154815290600101906020018083116114d957829003601f168201915b50505050509150611514565b8061150c816121e5565b9150506113ec565b505f8581526007602052604080822090516115309084906123b6565b908152604051908190036020019020600281015490915080158061155c575081546001600160a01b0316155b1561156c57505050505050505050565b5f606461157a8360286123d1565b61158491906123e8565b90505f60646115948460286123d1565b61159e91906123e8565b90505f60646115ae85600a6123d1565b6115b891906123e8565b90505f81836115c786886123fb565b6115d191906123fb565b6115db91906123fb565b865460405163a9059cbb60e01b81526001600160a01b039182166004820152602481018790529192507f0000000000000000000000000000000000000000000000000000000000000000169063a9059cbb906044016020604051808303815f875af115801561164c573d5f803e3d5ffd5b505050506040513d601f19601f8201168201806040525081019061167091906122eb565b5060038601546001600160a01b037f000000000000000000000000000000000000000000000000000000000000000081169163a9059cbb91166116bd5787546001600160a01b03166116cc565b60038801546001600160a01b03165b6040516001600160e01b031960e084901b1681526001600160a01b039091166004820152602481018690526044016020604051808303815f875af1158015611716573d5f803e3d5ffd5b505050506040513d601f19601f8201168201806040525081019061173a91906122eb565b5060035460405163a9059cbb60e01b81526001600160a01b039182166004820152602481018490527f00000000000000000000000000000000000000000000000000000000000000009091169063a9059cbb906044016020604051808303815f875af11580156117ac573d5f803e3d5ffd5b505050506040513d601f19601f820116820180604052508101906117d091906122eb565b506004805460405163a9059cbb60e01b81526001600160a01b0391821692810192909252602482018390527f0000000000000000000000000000000000000000000000000000000000000000169063a9059cbb906044016020604051808303815f875af1158015611843573d5f803e3d5ffd5b505050506040513d601f19601f8201168201806040525081019061186791906122eb565b506040516370a0823160e01b81523060048201525f907f00000000000000000000000000000000000000000000000000000000000000006001600160a01b0316906370a0823190602401602060405180830381865afa1580156118cc573d5f803e3d5ffd5b505050506040513d601f19601f820116820180604052508101906118f091906122d4565b9050801561198a5760405163a9059cbb60e01b815261dead6004820152602481018290527f00000000000000000000000000000000000000000000000000000000000000006001600160a01b03169063a9059cbb906044016020604051808303815f875af1158015611964573d5f803e3d5ffd5b505050506040513d601f19601f8201168201806040525081019061198891906122eb565b505b86546040518d917fabf0728119ba3c53309b0f987eda834ecf31e54dfaeec92465c1512c5eb9c2b9916119cc918c916001600160a01b03909116908b9061240e565b60405180910390a25050505050505050505050505050565b5f546001600160a01b03163314610a575760405163118cdaa760e01b815233600482015260240161057a565b60055415611a7b576005545f9081526006602052604090206004015460ff16611a7b5760405162461bcd60e51b815260206004820152601a60248201527f50726576696f757320726f756e64206e6f7420736574746c6564000000000000604482015260640161057a565b60058054905f611a8a836121e5565b90915550506005545f90815260066020526040902042808255611aae90839061230a565b60018201819055600554825460408051918252602082019390935290917fa359b664a68acd8839e42112eb50eff3408165e15074fde89ddb58a0db2e691d910160405180910390a25050565b5f80546001600160a01b038381166001600160a01b0319831681178455604051919092169283917f8be0079c531659141344cd1fd0a4f28419497f9722a3daafe3b4186f6b6457e09190a35050565b60025460405163a8a82fd760e01b81526001600160a01b0384811660048301525f92169063a8a82fd790602401602060405180830381865afa925050508015611baf575060408051601f3d908101601f19168201909252611bac918101906122d4565b60015b15611c465780600503611bdc576064611bca8461012c6123d1565b611bd491906123e8565b915050611c49565b80600403611bf1576064611bca8460c86123d1565b80600303611c06576064611bca8460af6123d1565b80600203611c1b576064611bca8460966123d1565b80600103611c30576064611bca84607d6123d1565b805f03611c44576064611bca84606e6123d1565b505b50805b92915050565b634e487b7160e01b5f52604160045260245ffd5b5f8060408385031215611c74575f80fd5b8235915060208084013567ffffffffffffffff80821115611c93575f80fd5b818601915086601f830112611ca6575f80fd5b813581811115611cb857611cb8611c4f565b8060051b604051601f19603f83011681018181108582111715611cdd57611cdd611c4f565b604052918252848201925083810185019189831115611cfa575f80fd5b938501935b82851015611d1857843584529385019392850192611cff565b8096505050505050509250929050565b5f8083601f840112611d38575f80fd5b50813567ffffffffffffffff811115611d4f575f80fd5b602083019150836020828501011115611d66575f80fd5b9250929050565b80356001600160a01b0381168114611d83575f80fd5b919050565b5f805f60408486031215611d9a575f80fd5b833567ffffffffffffffff811115611db0575f80fd5b611dbc86828701611d28565b9094509250611dcf905060208501611d6d565b90509250925092565b5f8083601f840112611de8575f80fd5b50813567ffffffffffffffff811115611dff575f80fd5b6020830191508360208260051b8501011115611d66575f80fd5b5f805f8060408587031215611e2c575f80fd5b843567ffffffffffffffff80821115611e43575f80fd5b611e4f88838901611dd8565b90965094506020870135915080821115611e67575f80fd5b50611e7487828801611dd8565b95989497509550505050565b5f60208284031215611e90575f80fd5b611e9982611d6d565b9392505050565b5f60208284031215611eb0575f80fd5b5035919050565b5f805f60408486031215611ec9575f80fd5b833567ffffffffffffffff811115611edf575f80fd5b611eeb86828701611d28565b909790965060209590950135949350505050565b5f805f60408486031215611f11575f80fd5b83359250602084013567ffffffffffffffff811115611f2e575f80fd5b611f3a86828701611d28565b9497909650939450505050565b5f805f8060608587031215611f5a575f80fd5b84359350602085013567ffffffffffffffff811115611f77575f80fd5b611f8387828801611d28565b9094509250611f96905060408601611d6d565b905092959194509250565b6020808252600990820152682737ba1030b236b4b760b91b604082015260600190565b6020808252600f908201526e139bc81858dd1a5d99481c9bdd5b99608a1b604082015260600190565b818382375f9101908152919050565b600181811c9082168061201057607f821691505b60208210810361202e57634e487b7160e01b5f52602260045260245ffd5b50919050565b601f821115612079575f81815260208120601f850160051c8101602086101561205a5750805b601f850160051c820191505b8181101561095757828155600101612066565b505050565b67ffffffffffffffff83111561209657612096611c4f565b6120aa836120a48354611ffc565b83612034565b5f601f8411600181146120db575f85156120c45750838201355b5f19600387901b1c1916600186901b178355612133565b5f83815260209020601f19861690835b8281101561210b57868501358255602094850194600190920191016120eb565b5086821015612127575f1960f88860031b161c19848701351681555b505060018560011b0183555b5050505050565b60408152826040820152828460608301375f60608483018101919091526001600160a01b03929092166020820152601f909201601f191690910101919050565b634e487b7160e01b5f52603260045260245ffd5b5f808335601e198436030181126121a3575f80fd5b83018035915067ffffffffffffffff8211156121bd575f80fd5b602001915036819003821315611d66575f80fd5b634e487b7160e01b5f52601160045260245ffd5b5f600182016121f6576121f66121d1565b5060010190565b6020808252600c908201526b5a65726f206164647265737360a01b604082015260600190565b5f5b8381101561223d578181015183820152602001612225565b50505f910152565b5f815180845261225c816020860160208601612223565b601f01601f19169290920160200192915050565b60208152815160208201526020820151604082015261ffff60408301511660608201525f606083015163ffffffff80821660808501528060808601511660a0850152505060a083015160c0808401526122cc60e0840182612245565b949350505050565b5f602082840312156122e4575f80fd5b5051919050565b5f602082840312156122fb575f80fd5b81518015158114611e99575f80fd5b80820180821115611c4957611c496121d1565b634e487b7160e01b5f52601260045260245ffd5b5f8261233f5761233f61231d565b500690565b5f80835461235181611ffc565b60018281168015612369576001811461237e576123aa565b60ff19841687528215158302870194506123aa565b875f526020805f205f5b858110156123a15781548a820152908401908201612388565b50505082870194505b50929695505050505050565b5f82516123c7818460208701612223565b9190910192915050565b8082028115828204841417611c4957611c496121d1565b5f826123f6576123f661231d565b500490565b81810381811115611c4957611c496121d1565b606081525f6124206060830186612245565b6001600160a01b03949094166020830152506040015291905056fe92fd1338000000000000000000000000000000000000000000000000000000000000000000000000000000000000000000000000000000000000000000000000a2646970667358221220e57157d889ba47eb327ca34ebd5af1ef694142a5496e0db8a0311dd97dd30fbb64736f6c63430008140033","linkReferences":{}},"methodIdentifiers":{"CALLBACK_GAS_LIMIT()":"33d608f1","MAX_VOTE_CAP_BPS()":"1770cc8e","MIN_VOTE()":"2efab6fa","NUM_WORDS()":"72cf6e34","REQUEST_CONFIRMATIONS()":"67f082b0","admin()":"f851a440","approveProfile(string,address)":"24016aae","batchApproveProfiles(string[],address[])":"24e2371b","charityWallet()":"7b208769","currentRoundId()":"9cbe5efd","getProfile(uint256,string)":"d6ca8383","getRound(uint256)":"8f1327c0","getVoterAmount(uint256,string,address)":"e33a89c2","houseWallet()":"77818f02","keyHash()":"61728f39","midpointSnapshot()":"5fe00dc7","owner()":"8da5cb5b","rawFulfillRandomWords(uint256,uint256[])":"1fe543e3","renounceOwnership()":"715018a6","setCharityWallet(address)":"30563bd7","setHouseWallet(address)":"35d4de51","setStakingContract(address)":"9dd373b9","settleRound()":"6ffbfaa8","stakingContract()":"ee99205c","startRound()":"55e3f086","startRound(uint256)":"5fc3d52d","subscriptionId()":"09c1ba2e","transferAdmin(address)":"75829def","transferOwnership(address)":"f2fde38b","ttsToken()":"f75edc8c","vote(string,uint256)":"a6385803"},"id":1}