{"abi":[{"type":"constructor","inputs":[],"stateMutability":"nonpayable"},{"type":"function","name":"approve","inputs":[{"name":"to","type":"address","internalType":"address"},{"name":"tokenId","type":"uint256","internalType":"uint256"}],"outputs":[],"stateMutability":"nonpayable"},{"type":"function","name":"balanceOf","inputs":[{"name":"owner_","type":"address","internalType":"address"}],"outputs":[{"name":"","type":"uint256","internalType":"uint256"}],"stateMutability":"view"},{"type":"function","name":"getApproved","inputs":[{"name":"tokenId","type":"uint256","internalType":"uint256"}],"outputs":[{"name":"","type":"address","internalType":"address"}],"stateMutability":"view"},{"type":"function","name":"getMetadata","inputs":[{"name":"tokenId","type":"uint256","internalType":"uint256"}],"outputs":[{"name":"roundId","type":"uint256","internalType":"uint256"},{"name":"winnerProfile","type":"string","internalType":"string"},{"name":"voteCount","type":"uint256","internalType":"uint256"},{"name":"date","type":"uint256","internalType":"uint256"}],"stateMutability":"view"},{"type":"function","name":"isApprovedForAll","inputs":[{"name":"owner_","type":"address","internalType":"address"},{"name":"operator","type":"address","internalType":"address"}],"outputs":[{"name":"","type":"bool","internalType":"bool"}],"stateMutability":"view"},{"type":"function","name":"mint","inputs":[{"name":"to","type":"address","internalType":"address"},{"name":"roundId","type":"uint256","internalType":"uint256"},{"name":"winnerProfile","type":"string","internalType":"string"},{"name":"voteCount","type":"uint256","internalType":"uint256"}],"outputs":[{"name":"tokenId","type":"uint256","internalType":"uint256"}],"stateMutability":"nonpayable"},{"type":"function","name":"minter","inputs":[],"outputs":[{"name":"","type":"address","internalType":"address"}],"stateMutability":"view"},{"type":"function","name":"name","inputs":[],"outputs":[{"name":"","type":"string","internalType":"string"}],"stateMutability":"view"},{"type":"function","name":"owner","inputs":[],"outputs":[{"name":"","type":"address","internalType":"address"}],"stateMutability":"view"},{"type":"function","name":"ownerOf","inputs":[{"name":"tokenId","type":"uint256","internalType":"uint256"}],"outputs":[{"name":"","type":"address","internalType":"address"}],"stateMutability":"view"},{"type":"function","name":"safeTransferFrom","inputs":[{"name":"from","type":"address","internalType":"address"},{"name":"to","type":"address","internalType":"address"},{"name":"tokenId","type":"uint256","internalType":"uint256"}],"outputs":[],"stateMutability":"nonpayable"},{"type":"function","name":"safeTransferFrom","inputs":[{"name":"from","type":"address","internalType":"address"},{"name":"to","type":"address","internalType":"address"},{"name":"tokenId","type":"uint256","internalType":"uint256"},{"name":"data","type":"bytes","internalType":"bytes"}],"outputs":[],"stateMutability":"nonpayable"},{"type":"function","name":"setApprovalForAll","inputs":[{"name":"operator","type":"address","internalType":"address"},{"name":"approved","type":"bool","internalType":"bool"}],"outputs":[],"stateMutability":"nonpayable"},{"type":"function","name":"setMinter","inputs":[{"name":"newMinter","type":"address","internalType":"address"}],"outputs":[],"stateMutability":"nonpayable"},{"type":"function","name":"supportsInterface","inputs":[{"name":"id","type":"bytes4","internalType":"bytes4"}],"outputs":[{"name":"","type":"bool","internalType":"bool"}],"stateMutability":"pure"},{"type":"function","name":"symbol","inputs":[],"outputs":[{"name":"","type":"string","internalType":"string"}],"stateMutability":"view"},{"type":"function","name":"tokenURI","inputs":[{"name":"tokenId","type":"uint256","internalType":"uint256"}],"outputs":[{"name":"","type":"string","internalType":"string"}],"stateMutability":"view"},{"type":"function","name":"totalSupply","inputs":[],"outputs":[{"name":"","type":"uint256","internalType":"uint256"}],"stateMutability":"view"},{"type":"function","name":"transferFrom","inputs":[{"name":"from","type":"address","internalType":"address"},{"name":"to","type":"address","internalType":"address"},{"name":"tokenId","type":"uint256","internalType":"uint256"}],"outputs":[],"stateMutability":"nonpayable"},{"type":"function","name":"transferOwnership","inputs":[{"name":"newOwner","type":"address","internalType":"address"}],"outputs":[],"stateMutability":"nonpayable"},{"type":"event","name":"Approval","inputs":[{"name":"owner","type":"address","indexed":true,"internalType":"address"},{"name":"approved","type":"address","indexed":true,"internalType":"address"},{"name":"tokenId","type":"uint256","indexed":true,"internalType":"uint256"}],"anonymous":false},{"type":"event","name":"ApprovalForAll","inputs":[{"name":"owner","type":"address","indexed":true,"internalType":"address"},{"name":"operator","type":"address","indexed":true,"internalType":"address"},{"name":"approved","type":"bool","indexed":false,"internalType":"bool"}],"anonymous":false},{"type":"event","name":"Minted","inputs":[{"name":"tokenId","type":"uint256","indexed":true,"internalType":"uint256"},{"name":"roundId","type":"uint256","indexed":false,"internalType":"uint256"},{"name":"winnerProfile","type":"string","indexed":false,"internalType":"string"},{"name":"to","type":"address","indexed":false,"internalType":"address"}],"anonymous":false},{"type":"event","name":"OwnershipTransferred","inputs":[{"name":"prev","type":"address","indexed":true,"internalType":"address"},{"name":"next","type":"address","indexed":true,"internalType":"address"}],"anonymous":false},{"type":"event","name":"Transfer","inputs":[{"name":"from","type":"address","indexed":true,"internalType":"address"},{"name":"to","type":"address","indexed":true,"internalType":"address"},{"name":"tokenId","type":"uint256","indexed":true,"internalType":"uint256"}],"anonymous":false}],"bytecode":{"object":"0x608060405234620000ee575f620000178154620000f2565b601f8111620000c1575b5060206f2a2a29902937bab732102bb4b73732b960811b0181556001906200004a8254620000f2565b90601f821162000092575b826008635454535760e01b01815560075560018060a01b03193381600854161760085533906009541617600955604051611d5990816200012e8239f35b82815282601f60208320930160051c8301925b838110620000b557505062000055565b828155018390620000a5565b818052601f60208320910160051c8101905b818110620000e2575062000021565b828155600101620000d3565b5f80fd5b90600182811c9216801562000122575b60208310146200010e57565b634e487b7160e01b5f52602260045260245ffd5b91607f16916200010256fe608080604052600480361015610013575f80fd5b5f3560e01c91826301ffc9a7146112375750816306fdde0314611197578163075461721461116f578163081812fc1461112657816308a8d7aa14610ddc578163095ea7b314610d2e57816318160ddd14610cf157816323b872dd14610cda57816342842e0e14610c8d5781636352211e14610c5e57816370a0823114610c1b5781638da5cb5b14610bf357816395d89b4114610b17578163a22cb46514610a96578163a574cea414610a12578163b88d4fde146109b1578163c87b56dd1461021057508063e985e9c5146101be578063f2fde38b146101495763fca3b5aa146100fa575f80fd5b3461014557602036600319011261014557610113611412565b6008546001600160a01b03919061012d9083163314611834565b166001600160601b0360a01b60095416176009555f80f35b5f80fd5b3461014557602036600319011261014557610162611412565b6008546001600160a01b038082169261017c338514611834565b16809261018a8215156114c5565b7f8be0079c531659141344cd1fd0a4f28419497f9722a3daafe3b4186f6b6457e05f80a36001600160a01b03191617600855005b34610145576040366003190112610145576101d7611412565b6101df611428565b9060018060a01b038091165f52600560205260405f2091165f52602052602060ff60405f2054166040519015158152f35b34610145576020908160031936011261014557355f818152600283526040902054610245906001600160a01b03161515611500565b5f526006815261094760405f206106c0610165604051610264816112d9565b835481526102746001850161132b565b9086810191825260036002860154956040830196875201549060608101918252607d60f81b886106c56102a784516118c3565b956106c06103256102b887516118c3565b9b8351956102fa670de0b6b3a76400006102f26102eb6102e46102dd848851046118c3565b9e516118c3565b9c516118c3565b975161197d565b9351046118c3565b9470102a2a29903b37ba32b21e17ba32bc3a1f60791b6040519687947f3c73766720786d6c6e733d22687474703a2f2f7777772e77332e6f72672f3230858701527f30302f737667222077696474683d2234303022206865696768743d22343030226040870152601f60f91b60608701527f3c726563742077696474683d2234303022206865696768743d2234303022206660618701526e34b6361e911198321832183211179f60891b60818701527f3c7465787420783d223230302220793d2238302220746578742d616e63686f7260908701527f3d226d6964646c652220666f6e742d66616d696c793d226d6f6e6f737061636560b08701527f2220666f6e742d73697a653d223336222066696c6c3d2223666664373030223e60d0870152692a2a299e17ba32bc3a1f60b11b60f08701527f3c7465787420783d223230302220793d223132302220746578742d616e63686f60fa8701527f723d226d6964646c652220666f6e742d66616d696c793d226d6f6e6f73706163938461011a8801527f652220666f6e742d73697a653d223134222066696c6c3d2223383838223e524f61013a880152702aa722102ba4a72722a91e17ba32bc3a1f60791b61015a8801527f3c7465787420783d223230302220793d223139302220746578742d616e63686f61016b8801528461018b8801527f652220666f6e742d73697a653d223438222066696c6c3d2223666664373030226101ab880152613e2360f01b6101cb8801528051610535816101cd9389858c0191016113cc565b8701661e17ba32bc3a1f60c91b80928201527f3c7465787420783d223230302220793d223234302220746578742d616e63686f6101d4820152856101f48201527f652220666f6e742d73697a653d223133222066696c6c3d2223636363223e00006102148201528251906105b282610232958a87850191016113cc565b01918201527f3c7465787420783d223230302220793d223237352220746578742d616e63686f610239820152836102598201527f652220666f6e742d73697a653d223132222066696c6c3d2223383838223e0000610279820152610621825180936102979788850191016113cc565b01928301527f3c7465787420783d223230302220793d223335302220746578742d616e63686f6102a88301526102c88201527f652220666f6e742d73697a653d223130222066696c6c3d2223343434223e74656102e88201527f6d70746174696f6e746f6b656e2e696f3c2f746578743e000000000000000000610308820152651e17b9bb339f60d11b61031f82015203610305810184520182611309565b6119f6565b93604051988996737b226e616d65223a2254545320526f756e64202360601b8d8901526106fc8d825192839160348c0191016113cc565b8701680815da5b9b995c888b60ba1b60348201527f226465736372697074696f6e223a2254656d70746174696f6e20546f6b656e20603d8201527f6f6e2d636861696e20726f756e642077696e6e65722063657274696669636174605d82015263194b888b60e21b607d8201526d2261747472696275746573223a5b60901b60818201527f7b2274726169745f74797065223a22526f756e64222c2276616c7565223a0000608f8201526107ba8d835193849160ad850191016113cc565b0191611f4b60f21b928360ad8201527f7b2274726169745f74797065223a2257696e6e65722050726f66696c65222c2260af820152673b30b63ab2911d1160c11b60cf8201526108148d835193849160d7850191016113cc565b0162089f4b60ea1b60d78201527f7b2274726169745f74797065223a22566f746520436f756e74222c2276616c7560da8201526232911d60e91b60fa8201526108678c835193849160fd850191016113cc565b019060fd8201527f7b2274726169745f74797065223a22536574746c656d656e742044617465222c60ff8201527f22646973706c61795f74797065223a2264617465222c2276616c7565223a000061011f8201528251906108d18261013d958d87850191016113cc565b019182015261174b60f21b61013e8201527f22696d616765223a22646174613a696d6167652f7376672b786d6c3b62617365610140820152620d8d0b60ea1b61016082015281519061092c82610163948b86850191016113cc565b019061227d60f01b9082015203610145810184520182611309565b90610999603d60405180947f646174613a6170706c69636174696f6e2f6a736f6e3b6261736536342c00000085830152610989815180928786860191016113cc565b810103601d810185520183611309565b6109ad6040519282849384528301906113ed565b0390f35b34610145576080366003190112610145576109ca611412565b6109d2611428565b9060643567ffffffffffffffff8111610145573660238201121561014557610a1093816024610a069336930135910161148f565b916044359161170b565b005b3461014557602036600319011261014557355f52600660205260405f20604051610a3b816112d9565b81548152610a4b6001830161132b565b9182602083015260036002820154918260408501520154918260608201525191610a8760405194859485526080602086015260808501906113ed565b91604084015260608301520390f35b3461014557604036600319011261014557610aaf611412565b60243580151580910361014557335f52600560205260405f209160018060a01b031691825f5260205260405f2060ff1981541660ff83161790556040519081527f17307eab39ab6107e8899845ad3d59bd9653f200f220920489ca2b5937696c3160203392a3005b34610145575f366003190112610145576040515f6001805490610b39826112a1565b80855291818116908115610bcc5750600114610b74575b6109ad84610b6081860382611309565b6040519182916020835260208301906113ed565b5f81815292507fb10e2d527612073b26eecdfd717e6a320cf44b4afac2b0732d9fcbe2b7fa0cf65b828410610bb4575050508101602001610b6082610b50565b80546020858701810191909152909301928101610b9c565b60ff191660208087019190915292151560051b85019092019250610b609150839050610b50565b34610145575f366003190112610145576008546040516001600160a01b039091168152602090f35b34610145576020366003190112610145576001600160a01b03610c3c611412565b16610c488115156114c5565b5f526003602052602060405f2054604051908152f35b3461014557602036600319011261014557610c7b60209135611539565b6040516001600160a01b039091168152f35b3461014557610c9b3661143e565b90604051926020840184811067ffffffffffffffff821117610cc757610a1095506040525f845261170b565b604186634e487b7160e01b5f525260245ffd5b3461014557610a10610ceb3661143e565b916115c9565b34610145575f366003190112610145576007545f19810191908211610d1b57602082604051908152f35b601190634e487b7160e01b5f525260245ffd5b3461014557604036600319011261014557610d47611412565b602435916001600160a01b0380610d5d85611539565b16918233148015610db7575b610d729061155e565b845f5260205260405f20921691826001600160601b0360a01b8254161790557f8c5be1e5ebec7d5bd14f71427d1e84f3dd0314c0f7b2291e5b200ac8c7c3b9255f80a4005b50825f52600560205260405f20335f52602052610d7260ff60405f2054169050610d69565b3461014557608036600319011261014557610df5611412565b906044359167ffffffffffffffff91828411610145573660238501121561014557828482013511610145573660248583013586010111610145576009546001600160a01b039490851633148015611119575b156110e857610e5985841615156114c5565b60075493610e66856115bb565b600755845f52600260205260405f208685166001600160601b0360a01b8254161790558584165f52600360205260405f20610ea181546115bb565b9055604051610eaf816112d9565b6024358152610ec536848601356024860161148f565b91602082019283526064356040830152426060830152865f52600660205260405f209282518455518051918211610cc757610f0360018501546112a1565b601f81116110a4575b5091602098959391889795938a90601f8311600114611002576060601f94847fd0240404e3bbfd199fa47226f1862a0789e1f2f446854145f913c72946528cce9b9a989560809a98956003955f92610ff7575b50505f1982861b1c1916600191821b17908501555b604081015160028501550151910155604051958489828997165f7fddf252ad1be2c89b69c2b068fc378daa952ba7f163c4a11628f55a4df523b3ef8180a4602435865260608c8701528285013560608701528285013560248401888801375f878487013588010152166040850152811992013501168101030190a2604051908152f35b015190505f80610f5f565b6001859493929a9998979695015f528b5f20905f5b601f198416811061108a57506080979695936001846003947fd0240404e3bbfd199fa47226f1862a0789e1f2f446854145f913c72946528cce9d9e606095601f9a988b19811610611073575b505050811b016001850155610f74565b01515f1983881b60f8161c191690555f8080611063565b818c015183559a8d019a8c9a506001909201918d01611017565b600185015f5260205f20601f840160051c8101602085106110e1575b601f830160051c820181106110d6575050610f0c565b5f81556001016110c0565b50806110c0565b60405162461bcd60e51b8152602081840152600a6024820152692737ba1036b4b73a32b960b11b6044820152606490fd5b5084600854163314610e47565b3461014557602036600319011261014557806020913590815f526002835260018060a01b039161115d8360405f2054161515611500565b5f52825260405f205416604051908152f35b34610145575f366003190112610145576009546040516001600160a01b039091168152602090f35b34610145575f366003190112610145576040515f80546111b6816112a1565b80845290600190818116908115610bcc57506001146111df576109ad84610b6081860382611309565b5f80805292507f290decd9548b62a8d60345a988386fc84ba6bc95484008f6362f93160ef3e5635b82841061121f575050508101602001610b6082610b50565b80546020858701810191909152909301928101611207565b903461014557602036600319011261014557359063ffffffff60e01b8216809203610145576020916301ffc9a760e01b8114908115611290575b811561127f575b5015158152f35b635b5e139f60e01b14905083611278565b6380ac58cd60e01b81149150611271565b90600182811c921680156112cf575b60208310146112bb57565b634e487b7160e01b5f52602260045260245ffd5b91607f16916112b0565b6080810190811067ffffffffffffffff8211176112f557604052565b634e487b7160e01b5f52604160045260245ffd5b90601f8019910116810190811067ffffffffffffffff8211176112f557604052565b9060405191825f82549261133e846112a1565b9081845260019485811690815f146113a95750600114611369575b505061136792500383611309565b565b909391505f52602090815f20935f915b81831061139157505061136793508201015f80611359565b85548884018501529485019487945091830191611379565b91505061136794506020925060ff191682840152151560051b8201015f80611359565b5f5b8381106113dd5750505f910152565b81810151838201526020016113ce565b90602091611406815180928185528580860191016113cc565b601f01601f1916010190565b600435906001600160a01b038216820361014557565b602435906001600160a01b038216820361014557565b6060906003190112610145576001600160a01b0390600435828116810361014557916024359081168103610145579060443590565b67ffffffffffffffff81116112f557601f01601f191660200190565b92919261149b82611473565b916114a96040519384611309565b829481845281830111610145578281602093845f960137010152565b156114cc57565b60405162461bcd60e51b815260206004820152600c60248201526b5a65726f206164647265737360a01b6044820152606490fd5b1561150757565b60405162461bcd60e51b815260206004820152600a602482015269139bdd081b5a5b9d195960b21b6044820152606490fd5b5f908152600260205260409020546001600160a01b031661155b811515611500565b90565b1561156557565b60405162461bcd60e51b815260206004820152600e60248201526d139bdd08185d5d1a1bdc9a5e995960921b6044820152606490fd5b80156115a7575f190190565b634e487b7160e01b5f52601160045260245ffd5b5f1981146115a75760010190565b906115d383611539565b6001600160a01b0392831691908316908282036116d8578316926115f88415156114c5565b8133149081156116bf575b50801561169d575b611615915061155e565b7fddf252ad1be2c89b69c2b068fc378daa952ba7f163c4a11628f55a4df523b3ef5f8481526004602052604081206001600160601b0360a01b9081815416905583825260036020526040822061166b815461159b565b905584825260036020526040822061168381546115bb565b9055858252600260205284604083209182541617905580a4565b505f52600560205260405f20335f5260205261161560ff60405f20541661160b565b9050845f526004602052339060405f205416145f611603565b60405162461bcd60e51b815260206004820152600b60248201526a2bb937b7339037bbb732b960a91b6044820152606490fd5b9092919261171a8482846115c9565b803b611727575b50505050565b604051630a85bd0160e11b8082523360048301526001600160a01b039384166024830152604482019590955260806064820152926020918491829081906117729060848301906113ed565b03915f958691165af19182156118275781926117da575b50506001600160e01b031916036117a3575f808080611721565b60405162461bcd60e51b815260206004820152600f60248201526e2ab739b0b332903932b1b2b4bb32b960891b6044820152606490fd5b9091506020813d821161181f575b816117f560209383611309565b8101031261181b5751906001600160e01b03198216820361181857505f80611789565b80fd5b5080fd5b3d91506117e8565b50604051903d90823e3d90fd5b1561183b57565b60405162461bcd60e51b81526020600482015260096024820152682737ba1037bbb732b960b91b6044820152606490fd5b9061187682611473565b6118836040519182611309565b8281528092611894601f1991611473565b0190602036910137565b9081518110156118af570160200190565b634e487b7160e01b5f52603260045260245ffd5b801561194e575f8082805b61193a5750826118dd8261186c565b935b6118e95750505090565b600a906030928282068401809411611926576119049061159b565b9260f81b6001600160f81b031916841a61191e848761189e565b5304806118df565b634e487b7160e01b85526011600452602485fd5b90611946600a916115bb565b9104806118ce565b506040516040810181811067ffffffffffffffff8211176112f55760405260018152600360fc1b602082015290565b601880825111156119f257604051916040830183811067ffffffffffffffff8211176112f557604052818352602036818501375f90815b8381106119c2575050505090565b6119ed906001600160f81b03196119d9828561189e565b5116841a6119e7828861189e565b536115bb565b6119b4565b5090565b6040516060810181811067ffffffffffffffff8211176112f557604052604081527f4142434445464748494a4b4c4d4e4f505152535455565758595a61626364656660208201527f6768696a6b6c6d6e6f707172737475767778797a303132333435363738392b2f60408201528151916002938484018094116115a7576003938490046001600160fe1b03811681036115a757611a96908692961b61186c565b925f91825b8181018082116115a7578551811015611bbb57611ab8828761189e565b51600183018084116115a757611ace908861189e565b5191611ada908861189e565b519060ff60f81b92838281809460fa1c611af4908b61189e565b5116998c611b01826115bb565b9b5f1a91611b0e9161189e565b538260fc1c9060f41c60301617611b25908961189e565b511697611b31816115bb565b985f1a90611b3f908c61189e565b538260fe1c9060f61c603c1617611b56908761189e565b511695611b62816115bb565b965f1a90611b70908a61189e565b5360f81c603f16611b81908561189e565b511693611b8d816115bb565b945f1a90611b9b908861189e565b5386810180911115611a9b57634e487b7160e01b5f52601160045260245ffd5b5092939194955060018301908184116115a75782518203611c6b57505092611c28611bec611c679493603d9661189e565b5191603060ff60f81b9384611c048260fa1c8561189e565b511695611c1d611c13826115bb565b975f1a918b61189e565b5360f41c169061189e565b511690611c41611c37826115bb565b925f1a918661189e565b5382611c56611c4f836115bb565b928661189e565b53611c60816115bb565b508361189e565b5390565b83919493018082116115a757825114611c87575b505050505090565b603d94603c83611cab611d1897611ca4611d0996611cef9861189e565b519261189e565b519060ff60f81b95818b611cdc89611cc7819660fa1c8a61189e565b51169a611cd3816115bb565b9b5f1a9261189e565b5360308460fc1c9160f41c16178561189e565b511695611cfe611c13826115bb565b5360f61c169061189e565b511690611c56611c37826115bb565b535f80808080611c7f56fea2646970667358221220adce6df8afa185546f82ae025fdea8518319215b979c28a35a011e3fb4716b4364736f6c63430008140033","linkReferences":{}},"methodIdentifiers":{"approve(address,uint256)":"095ea7b3","balanceOf(address)":"70a08231","getApproved(uint256)":"081812fc","getMetadata(uint256)":"a574cea4","isApprovedForAll(address,address)":"e985e9c5","mint(address,uint256,string,uint256)":"08a8d7aa","minter()":"07546172","name()":"06fdde03","owner()":"8da5cb5b","ownerOf(uint256)":"6352211e","safeTransferFrom(address,address,uint256)":"42842e0e","safeTransferFrom(address,address,uint256,bytes)":"b88d4fde","setApprovalForAll(address,bool)":"a22cb465","setMinter(address)":"fca3b5aa","supportsInterface(bytes4)":"01ffc9a7","symbol()":"95d89b41","tokenURI(uint256)":"c87b56dd","totalSupply()":"18160ddd","transferFrom(address,address,uint256)":"23b872dd","transferOwnership(address)":"f2fde38b"},"id":0}